:020000040800F2
:10000000A88600205902000821100008050B0008EE
:10001000890D0008F10300082D18000800000000F9
:10002000000000000000000000000000A101000826
:10003000F308000800000000F5010008F1130008B3
:1000400073020008730200087302000873020008BC
:1000500073020008730200087302000873020008AC
:10006000730200087302000873020008730200089C
:10007000730200087302000873020008730200088C
:10008000730200087302000873020008730200087C
:10009000730200087302000873020008F5080008E4
:1000A000730200087302000873020008730200085C
:1000B000730200087302000873020008730200084C
:1000C000730200087302000873020008730200083C
:1000D000730200084D15000873020008730200083F
:1000E000730200087302000873020008730200081C
:1000F000730200087302000873020008730200080C
:1001000073020008730200087302000873020008FB
:1001100073020008730200087302000873020008EB
:1001200073020008730200087302000873020008DB
:1001300073020008730200087302000873020008CB
:10014000F503000873020008730200087302000838
:1001500073020008730200087302000873020008AB
:10016000730200087302000873020008730200089B
:10017000730200087302000873020008730200088B
:100180007302000873020008DFF810D000F09AF83C
:1001900000480047C51C0008AFF30080A886002077
:1001A0002A4B19680868B0E8F04F80F30988BFF35C
:1001B0006F8F4FF0000080F311887047000000003F
:1001C00006480068006880F3088862B661B6BFF32D
:1001D0004F8FBFF36F8F00DF00BF00BF08ED00E05F
:1001E000DFF80C00016841F470010160704700BF46
:1001F00088ED00E0EFF30980BFF36F8F134B1A68AF
:100200001EF0100F08BF20ED108A20E9F04F10609B
:1002100008B44FF0100080F31188BFF34F8FBFF385
:100220006F8F02F0BDFF4FF0000080F3118808BC13
:1002300019680868B0E8F04F1EF0100F08BFB0EC66
:10024000108A80F30988BFF36F8F70476C0000201D
:10025000EFF30580704700000648804706480047D6
:10026000FEE7FEE7FEE7FEE7FEE7FEE7FEE7FEE766
:10027000FEE7FEE7E51400088901000840EA0103F3
:100280009B0703D009E008C9121F08C0042AFAD24C
:1002900003E011F8013B00F8013B521EF9D2704710
:1002A000D2B201E000F8012B491EFBD270470022B8
:1002B000F6E710B513460A4604461946FFF7F0FF65
:1002C000204610BD064C074D06E0E06840F00103F3
:1002D00094E8070098471034AC42F6D3FFF758FF74
:1002E0003C4300085C43000810B5002214210A209A
:1002F00003F0ACF909490860002214210A2003F038
:10030000A5F90749086002F098FF06490860022134
:10031000084603F061F90449086010BD140000208C
:1003200018000020200000201C0000201FB5002025
:100330001B4A0123CDE901200093039003464FF4AB
:10034000007218A11A4803F073FC0020194A032315
:10035000CDE901200093039003464FF4007216A1EB
:10036000184803F065FC0020174A0423CDE901205A
:100370000093039003464FF4007214A1164803F053
:1003800057FC0020154A0223CDE901200093039079
:1003900003464FF4007212A1144803F049FC1FBD3C
:1003A00004000020765461736B4C4544000000004B
:1003B000E92D000800000020765461736B557365C9
:1003C000724946002D3200080800002076546173FF
:1003D0006B4D736750726F00352E00080C000020C3
:1003E000765461736B53746172740000F9300008C5
:1003F00000BFFEE708B500200090124A0021124815
:1004000000F05BF90F48006840F24111884217D1B3
:100410000C48007AA0B90B48807A082810D1002334
:100420006A4608490948006803F044FB009838B15F
:100430004FF0805006490860BFF34F8FBFF36F8FB6
:1004400008BD0000EC0000200068004014000020FF
:1004500004ED00E010B504460B48844209D10121A7
:10046000480600F045FE00214FF0007000F040FE0D
:1004700008E00121880600F03BFE00214FF080607B
:1004800000F036FE10BD00000064004010B50021F1
:10049000837A012202FA03F13D4A126842F0010216
:1004A0003B4B1A603A4A1C3212688A43384B1C3361
:1004B0001A60027BCAB9364A0C3212688A43344B3E
:1004C0000C331A604288C38842EA0343304A403200
:1004D000847A42F834300288838842EA03432C4A03
:1004E0004032847A02EBC4025360027B012A19D1A4
:1004F000274A0C3212680A43254B0C331A60428893
:10050000038842EA0343224A4032847A42F8343074
:10051000C288838842EA03431D4A4032847A02EB50
:10052000C4025360C27A3AB9194A121D12688A434A
:10053000174B1B1D1A6006E0154A121D12680A436C
:10054000134B1B1D1A60028932B9114A143212680A
:100550008A430F4B14331A600289012A06D10C4AD0
:10056000143212680A430A4B14331A60427B012A80
:1005700006D1074A1C3212680A43054B1C331A6025
:10058000034A126822F00102014B1A6010BD0000FC
:10059000006600401AB143690B43436102E04369BE
:1005A0008B434361704730B5024600200023146836
:1005B00024F002041460146844F00104146000E0A4
:1005C0005B1C546804F001041CB94FF6FF74A3428D
:1005D000F6D1546804F001040CB900206CE08C7969
:1005E000012C04D1146844F08004146003E0146802
:1005F00024F080041460CC79012C04D1146844F0F8
:100600004004146003E0146824F0400414600C7A81
:10061000012C04D1146844F02004146003E0146831
:1006200024F0200414604C7A012C04D1146844F0A6
:100630001004146003E0146824F0100414608C7A31
:10064000012C04D1146844F00804146003E0146819
:1006500024F008041460CC7A012C04D1146844F00E
:100660000404146003E0146824F0040414608C781B
:10067000A407CD7844EA05640D7944EA05444D7930
:1006800044EA05540D886D1E2C43D461146824F08F
:1006900001041460002300E05B1C546804F00104B2
:1006A0001CB14FF6FF74A342F6D1546804F0010464
:1006B0000CB1002000E0012030BD10B500F5D8736A
:1006C00003EB01131B6803F004031372137A53B98D
:1006D00000F5D87303EB01131B6840F2FF7404EAC2
:1006E0005353136009E000F5D87303EB01131B6843
:1006F0006FF0604404EAD303536000F5D87303EB52
:1007000001131B6803F00203537200F5D87303EB67
:1007100001135B6803F00F03937200F5D87303EBCA
:1007200001135B681B0AD37400F5D87303EB011344
:100730009B68D37200F5D87303EB01139B681C0A06
:10074000147300F5D87303EB01139B681C0C5473EE
:1007500000F5D87303EB01139B681B0E937300F530
:10076000D87303EB0113DB68D37300F5D87303EB85
:100770000113DB681C0A147400F5D87303EB011332
:10078000DB681C0C547400F5D87303EB0113DB68B1
:100790001B0E937421B9C36843F02003C36003E0C8
:1007A000036943F02003036110BD10B50246002029
:1007B000936803F08063B3F1806F00D110E0936819
:1007C00003F00063B3F1006F01D1012008E09368EA
:1007D00003F08053B3F1805F01D1022000E00420D8
:1007E000042874D002F5C07303EB00131B6803F0F8
:1007F000010402F5C07303EB00131C600B7A7BB994
:100800004B7A0C8843EA445302F5C07404EB00149D
:100810002468234302F5C07404EB0014236010E045
:100820000B7A4C6843EAC4034C7A234302F5C07444
:1008300004EB00142468234302F5C07404EB001495
:1008400023608B7A03F00F038B7202F5C07303EB06
:1008500000135B6823F00F0402F5C07303EB001371
:100860005C6002F5C07303EB00135B688C7A234372
:1008700002F5C07404EB001463608B7B1C064B7B99
:1008800044EA03440B7B44EA0323CC7A234302F576
:10089000C07404EB0014A3608B7C1C064B7C44EA00
:1008A00003440B7C44EA0323CC7B234302F5C0744E
:1008B00004EB0014E36002F5C07303EB00131B6844
:1008C00043F0010402F5C07303EB00131C6010BD7C
:1008D00008B525208DF8000001208DF801000020CA
:1008E0008DF8020001208DF80300684600F09AFBA5
:1008F00008BD704738B500200090202000F03CF87B
:1009000050B31648006800F02000202821D1144878
:100910000078012807D16A4601211248006802F0D8
:1009200001FD04460AE00E480078022806D16A4616
:1009300002210C48006802F0F5FC04464CB1009816
:1009400038B14FF0805008490860BFF34F8FBFF3B4
:100950006F8F202000F00AF838BD00001008024018
:100960002E0000202000002004ED00E00149086076
:1009700070470000143C014001460020034A126801
:100980000A400AB1012000E000207047143C0140F9
:10099000002123498279002A3AD00A461268036866
:1009A0009A430B461A600A1D126803689A430B1D8E
:1009B0001A60027911440A6803681A430A60184AE7
:1009C0000832126803689A43154B08331A601A1DDF
:1009D000126803689A43124B0C331A604279102A4A
:1009E0000ED11A1F126803681A430D4B08331A60A0
:1009F0001A1D126803681A43094B0C331A600DE084
:100A00000749427911440A6803681A430A6005E0FD
:100A1000027911440A6803689A430A60704700002B
:100A2000003C0140F0B50A4600210023002400BF2D
:100A30003DE0012505FA01F3156805EA03049C422F
:100A400034D105684F000326BE40B54305601579D3
:100A50004E00B5400668354305601579012D02D07A
:100A60001579022D16D185684F000326BE40B54387
:100A7000856055794E00B540866835438560456888
:100A800001268E40B5434560456896798E40B6B2E2
:100A900035434560C5684F000326BE40B543C56079
:100AA000D5794E00B540C6683543C560491C10294C
:100AB000BFD3F0BDF0B5002300244D07ED0E02FAC0
:100AC00005F3CE1000F1200555F826504E07F70E1D
:100AD0000F26BE40B543CF1000F1200646F8275040
:100AE000CE1000F1200555F8265045EA0304CE103B
:100AF00000F1200545F82640F0BD41837047018391
:100B00007047000009A100200BE00A5C124B9A809C
:100B100000BF114A128802F04002002AF9D0421C9C
:100B2000D0B22A28F1D300BFFEE700000D0A456EBF
:100B300074657220486172644661756C745F4861C7
:100B40006E646C65722C2053797374656D204861F6
:100B50006C742E0D0A0000000010014013B586B021
:100B600004460194002002908DF80D008DF80C00D1
:100B700008208DF80E00A7208DF80F0000218DF8B9
:100B800010108DF811108DF812109DF81C108DF8B2
:100B900013109DF81D108DF814109DF81E108DF87F
:100BA00015109DF81F108DF8161001A90248FFF7C7
:100BB000FCFD08B010BD00000068004017B585B00E
:100BC00004460094002001908DF809008DF808007B
:100BD00008208DF80A00A8208DF80B0000218DF860
:100BE0000C109DF818108DF80D109DF819108DF847
:100BF0000E109DF81C108DF80F109DF81D108DF82B
:100C000010109DF81E108DF811109DF81F108DF812
:100C1000121069460248FFF7C8FD08B010BD000079
:100C20000068004000B587B00121084600F040FA96
:100C30000121102000F06CFA072209212248FFF759
:100C400039FF07220A212048FFF734FF00208DF8E2
:100C50001A0001208DF81B0002208DF818000002F8
:100C6000059002208DF8190005A91748FFF7DAFE54
:100C700002208DF818004002059005A91248FFF7E0
:100C8000D1FE4FF4E13001900020ADF80800ADF83E
:100C90000A00ADF80C00ADF810000C20ADF80E0005
:100CA00001A90A4800F0BEFC012240F22551074884
:100CB00000F093FC0121054800F059FC4021034855
:100CC00000F04CFC07B000BD0000024000100140E5
:100CD0000448006900F0100008B9012070470020A6
:100CE000FCE70000001002400448006900F0080022
:100CF00008B9012070470020FCE700000010024006
:100D00000448006900F0010008B900207047012084
:100D1000FCE70000000002401CB50121092000F0A2
:100D2000C7F9C020009001208DF8040000208DF844
:100D3000060003208DF8050001208DF807006946A4
:100D40000F48FFF76FFEC0210D48FFF7D8FE4FF4A4
:100D5000A060009001208DF8040000208DF80600AE
:100D600003208DF8050001208DF80700694605482D
:100D7000FFF758FE4FF4A0610248FFF7BEFE1CBD0E
:100D800000000240000C024000BFFEE710B54FF427
:100D9000FA6000F055FF0A48006800F0E9F84FF4E7
:100DA000FA7000F04DFF074801880548006800F020
:100DB00007F901F023F94FF4FA7000F041FF10BD7C
:100DC000280000203000002008B5C4E000F0A6FD97
:100DD0000546002D45DD012D04D0042D1ED0072D24
:100DE0003DD137E05C480078B8B901205A49087015
:100DF00001025A48FFF783FE4FF480615748FFF71E
:100E00007CFE4FF4FA7001F0A9FF48F6A042544866
:100E1000018854480068FFF7D1FE21E04E48007871
:100E2000B8B902204C490870C1014C48FFF765FE73
:100E30004FF480614948FFF762FE4FF4FA7001F009
:100E40008DFF48F6A0424648018846480068FFF7F3
:100E5000B5FE05E04348006800F0F8F900E000BF87
:100E600000BF41480078002846DD3F48007801284F
:100E700004D002281CD0032839D133E0364800784A
:100E8000A8B901203449087001023448FFF737FE41
:100E90004FF480613148FFF730FE4FF4FA7001F0F3
:100EA0005DFF48F6A0412F480068FFF757FE00BFDE
:100EB00029480078A8B9022027490870C1012748AD
:100EC000FFF71BFE4FF480612448FFF718FE4FF434
:100ED000FA7001F043FF48F6A04122480068FFF78E
:100EE0003DFE05E01F48006800F0B0F900E000BFDB
:100EF00000BF00201C490870002003460122032186
:100F000000901A48006802F01FFA044604F001003D
:100F100068B10020104908704FF480710F48FFF746
:100F2000ECFD4FF480610D48FFF7E7FD10E004F0A1
:100F3000020002280CD10020074908704FF480718C
:100F40000648FFF7DAFD4FF480610448FFF7D5FD4E
:100F5000052001F003FF39E72E000020000C0240BD
:100F60002C0000202800002032000020200000205B
:100F700010B586B004460194002002908DF80D0053
:100F80008DF80C0008208DF80E0088208DF80F00D9
:100F900000218DF810108DF811108DF812108DF8B9
:100FA00013108DF814108DF815108DF8161001A976
:100FB0000248FFF7FAFB06B010BD000000680040D1
:100FC00013B586B004460194002002908DF80D0000
:100FD0008DF80C0008208DF80E00A3208DF80F006E
:100FE00000218DF810108DF811108DF812109DF859
:100FF0001C108DF813109DF81D108DF814109DF81D
:101000001E108DF815109DF81F108DF8161001A9EF
:101010000248FFF7CAFB08B010BD0000006800409E
:101020007047000070B5002100230F22C4781CB364
:10103000174C246804F4E064C4F5E064C4F30721A9
:10104000C1F10404E3B20A4144789C40E1B28478DF
:10105000144021430C07210E0E4C0578615504788D
:1010600004F01F050124AC4005786D11AD0005F1B9
:10107000E025C5F8004109E0047804F01F050124CB
:10108000AC40054D0678761145F8264070BD00004D
:101090000CED00E000E400E080E100E002490143E3
:1010A000024A1160704700000000FA050CED00E0F4
:1010B00029B1064A12680243044B1A6004E0034A4D
:1010C00012688243014B1A607047000030380240BA
:1010D00029B1064A12680243044B1A6004E0034A2D
:1010E00012688243014B1A6070470000403802408A
:1010F00029B1064A12680243044B1A6004E0034A0D
:1011000012688243014B1A60704700002038024089
:1011100029B1064A12680243044B1A6004E0034AEC
:1011200012688243014B1A60704700004438024045
:10113000F0B5002100220024022500260223324FB0
:101140003F6807F00C0121B1042905D0082937D1E7
:1011500005E02E4F076036E02D4F076033E02A4F41
:101160003F1F3F68C7F38056274F3F1F3F6807F078
:101170003F036EB1264FB7FBF3F7DFF88CC0ACF13D
:10118000040CDCF800C0CCF3881C07FB0CF40CE06A
:101190001E4FB7FBF3F7DFF870C0ACF1040CDCF8BE
:1011A00000C0CCF3881C07FB0CF4174F3F1F3F68AF
:1011B000C7F301477F1C7D00B4FBF5F7076002E031
:1011C000124F076000BF00BF0F4F3F6807F0F001EC
:1011D0000909104F7A5C0768D74047600A4F3F689B
:1011E00007F4E051890A0B4F7A5C4768D740876063
:1011F000054F3F6807F46041490B064F7A5C47682A
:10120000D740C760F0BD0000083802400024F40059
:1012100000127A00460000201CB501210220FFF7D1
:1012200047FF01208DF8040000208DF806008DF89E
:10123000070003208DF8050004200090694602484D
:10124000FFF7F0FB1CBD00000004024010B586B0A3
:1012500004460194002002908DF80D008DF80C00DA
:1012600008208DF80E0090208DF80F0000218DF8D9
:1012700010108DF811108DF812108DF813108DF8D4
:1012800014108DF815108DF8161001A90248FFF7FB
:101290008CFA06B010BD00000068004030B5002296
:1012A0008B071C0F0F2303FA04F20B4B8C1053F81F
:1012B00024309343084C8D1044F8253023468C107D
:1012C00053F824308C07240F00FA04F42343024C13
:1012D0008D1044F8253030BD083801400CB5002091
:1012E000019000903448006840F480303249086032
:1012F00000BF3148006800F4003000900198401CA5
:101300000190009818B90198B0F5A04FF1D12A4882
:10131000006800F4003010B10120009001E00020CE
:1013200000900098012846D123484030006840F0E2
:1013300080502149403108602048006840F4404016
:101340001E4908601C48083000681B4908310860C5
:101350000846006840F4004008600846006840F411
:10136000A05008601648091F0860081F006840F078
:101370008070091F086000BF0F48006800F000700F
:101380000028F9D040F205700E4908600A4808307C
:10139000006820F00300084908310860084600682A
:1013A00040F00200086000BF03480830006800F009
:1013B0000C000828F8D10CBD003802400070004035
:1013C00008544007003C0240042808D14FF0E021B7
:1013D000096941F004014FF0E022116107E04FF08C
:1013E000E021096921F004014FF0E022116170470A
:1013F00010B500BF1020EFF3118180F31188BFF307
:101400004F8FBFF36F8F00BF02F0E0FC18B14FF0B9
:10141000805003490860002080F3118800BF10BD90
:1014200004ED00E070B50020002202230024022118
:10143000274D2D6805F00C0020B1042806D008289F
:1014400034D107E0234D244E356033E0234D224E46
:1014500035602FE01E4D2D1F2D68C5F380541C4DA7
:101460002D1F2D6805F03F0154B11C4DB5FBF1F562
:10147000174E361F3668C6F3881605FB06F209E0DC
:10148000144DB5FBF1F5124E361F3668C6F38816BB
:1014900005FB06F20E4D2D1F2D68C5F301456D1C91
:1014A0006B00B2FBF3F50C4E356003E0094D0A4EBC
:1014B000356000BF00BF064D2D68C5F30315084E0B
:1014C000705D054D2D68C540034E356070BD000050
:1014D000083802400024F4005800002000127A006E
:1014E0005C00002010B51548006840F470001349F6
:1014F00008601348006840F00100114908600020AE
:101500000F49083108600E4800680E4908400C4930
:1015100008600D48091D0860081F006820F480203D
:10152000091F0860002006490C310860FFF7D6FE4D
:101530004FF0006001498039086010BD88ED00E07F
:1015400000380240FFFFF6FE1030002410B50248BC
:1015500000F0DBF810BD00007801002001F40072FB
:10156000B2F5007F00D100BFCA430280704721B1AD
:10157000828942F40052828104E082894DF6FF7331
:101580001A408281704770B502460024002300256E
:10159000002040F66A16B14200D100BFC1F34215E7
:1015A00001F01F03012606FA03F3012D02D19689EB
:1015B000334006E0022D02D1168A334001E0968ABC
:1015C00033400C12012606FA04F41688344013B195
:1015D0000CB1012000E0002070BDF0B503460024EE
:1015E00000260025002040F66A17B94200D100BF4E
:1015F0001846C1F3421401F01F06012707FA06F549
:10160000012C01D10C3004E0022C01D1103000E09B
:1016100014301AB107682F43076002E00768AF4330
:101620000760F0BD2DE9FF4705460E460024A146A0
:1016300000BFA046B08900B100BF2C8A24F44054FA
:10164000F08804432C82AC8941F20C608443B0885A
:1016500031890843718908430443AC81AC8A24F47E
:101660004074B0890443AC826846FFF761FD2048AE
:10167000854202D01F48854202D1DDF80C9001E07E
:10168000DDF80890A88900F4004040B109EBC900DA
:1016900000EB091031684900B0FBF1F707E009EBF6
:1016A000C90000EB091031688900B0FBF1F7642034
:1016B000B7FBF0F004012009642101FB1078A88930
:1016C00000F4004040B1322000EBC800B0FBF1F064
:1016D00000F00700044308E0322000EB081064210A
:1016E000B0FBF1F000F00F0004432C81BDE8FF8750
:1016F000001001400014014001468888C0F3080032
:101700007047C1F308028280704770B5044640F20A
:1017100025512068FFF737FFE0B12068FFF7ECFFA5
:10172000C5B2E18AA0684554E08A401C80B2E082DC
:10173000E189884201DB0020E082608BE1898842F8
:1017400002DA608B401C6083606A10B12846616ACF
:10175000884700BF40F227712068FFF714FF08B3E5
:10176000A08A60B9002240F227712068FFF735FF98
:10177000012240F226612068FFF72FFF37E0638ADD
:101780006268D15C2068FFF7BCFF608A401C80B2B1
:101790006082A189884201DB00206082A08A401E0D
:1017A000A08224E040F226612068FFF7ECFEF0B151
:1017B000A08A50B9002240F226612068FFF70DFF91
:1017C000206AA0B1206A804711E0638A6268D15C18
:1017D0002068FFF796FF608A401C80B26082A18972
:1017E000884201DB00206082A08A401EA08270BD7A
:1017F0000A480B4908600B4848600B4888604FF462
:1018000080608881C881002008824882C88208835D
:1018100048838882C86108624862704700100140AE
:1018200078010020A0010020A005002000BFFEE7F5
:1018300002E008C8121F08C1002AFAD17047704799
:10184000002001E001C1121F002AFBD170470000F7
:1018500070B50546304800EB051420688047002825
:101860003ED02079012802DA0120207152E020794F
:10187000022803DA2079401C20714BE0A07A38B9A5
:101880000120A07205EB4501491CC8B200F092F995
:10189000208900283EDDE088218988420DDAE08831
:1018A000401C80B2E0802189884233D105EB45019C
:1018B000C91CC8B200F07EF92CE0E07A002829DDCE
:1018C000207B401CC0B22073E17A884222DB0020DA
:1018D000207305EB4501491CC8B200F06BF919E013
:1018E0002079012802DD0120207110E0207918B153
:1018F0002079401E20710AE0A07A012807D100203B
:10190000A07205EB4501891CC8B200F053F9002014
:10191000E080207370BD0000480100200B48C078B3
:101920000A4A1279904201D1002070470748C078D6
:10193000064A115C1046C078401CC0B2D070032823
:1019400001DB0020D0700846EFE7000040000020D7
:1019500010B54FF44070FFF7A1FBFFF763FDA8201F
:1019600000F050F900F0ECF800F07CF800F0DEF840
:1019700000F004F8FFF70AFA10BD000000B589B0C6
:1019800001210220FFF794FB09220C213348FFF7C5
:1019900091F809220D213148FFF78CF84FF480505F
:1019A000079002208DF820008DF8210000208DF88E
:1019B000220001208DF8230007A92848FFF732F8FC
:1019C0004FF40050079007A92448FFF72BF8012196
:1019D0004806FFF77DFB01218806FFF779FB2048C9
:1019E000FEF738FD00208DF816008DF817008DF8F1
:1019F00018008DF819008DF81A008DF81B008DF86D
:101A000012008DF813000B208DF8140007208DF8BC
:101A100015000220ADF8100004A91148FEF7C3FD1F
:101A20000E208DF80A0000208DF80B0001208DF8A3
:101A30000C000020ADF80000ADF80200ADF8040085
:101A4000ADF80600ADF8080001208DF80D006846DD
:101A5000FEF71CFD00F0BEF809B000BD0004024016
:101A60000068004010B500F02DF800F001F810BD3E
:101A70001CB501211120FFF71BFB00208DF804008D
:101A80008DF8060001208DF8070002208DF8050072
:101A90001020009069460948FEF7C4FF0820009016
:101AA00069460648FEF7BEFF02208DF807000120B8
:101AB000009069460248FEF7B5FF1CBD00100240C9
:101AC000000002400021144AD170117151710020B0
:101AD00017E06421114A02EB0012118100210F4A24
:101AE00002EB001211710D4A02EB001291720B4AC7
:101AF00002EB0012D172094A02EB00121173411C71
:101B0000C8B20328E5DB0649044A116005491161A2
:101B10000549116270470000400000204801002084
:101B2000D10C0008E90C0008010D000810B5FFF702
:101B3000F3F8012000F01AF8022000F017F810BDA9
:101B400010B5FFF755FEFFF76DF8FFF765FBFEF7E1
:101B5000BFFE10BD10B5002404E02046FFF778FE5C
:101B6000601CC4B2032CF8DB10BD000010B50446A5
:101B7000012C04D140210548FEF7C1FF05E0022CED
:101B800003D180210148FEF7BAFF10BD00000240DA
:101B900010B50446012C04D140210548FEF7ADFFE5
:101BA00005E0022C03D180210148FEF7A6FF10BDFD
:101BB0000000024006490979054A50541146097946
:101BC000491CC9B21171032901DB00211171704751
:101BD0004000002008B540208DF8000001208DF85D
:101BE000010000208DF8020001208DF803006846F6
:101BF000FFF718FA012202210148FEF7CBFC08BDCD
:101C00000068004010B504466FF00400FFF7DCFBED
:101C1000E11704EB5171C1F3C701074A1170104677
:101C2000007800EB4001C1EBC0104FF6FF7101EAF4
:101C3000C0000249088010BD380000203A00002092
:101C400070B504464FF4077094FBF0F0C6B24FF441
:101C5000077094FBF0F100FB114085B205E04FF4F2
:101C6000077000F009F8701EC6B2002EF7D115B14A
:101C7000284600F001F870BD0146114A12884A4317
:101C80004FF0E0235A6100229A611A46126942F02D
:101C900001021A6100BF4FF0E022106900F001025A
:101CA0001AB100F48032002AF5D04FF0E022126918
:101CB00022F001024FF0E0231A6100229A6170477E
:101CC0003A000020012080F3108800BFFEF72EFBB1
:101CD000FEF70AFBFFF73CFE01F016FA00BFFEE735
:101CE0000FB410B59DF813009B284BD01CDC902836
:101CF0006FD00CDC812865D004DC19286AD08028DC
:101D000069D15DE088285CD08C28F9D15BE094280B
:101D10007DD004DC91287BD09228F1D124E1952854
:101D200077D09A28ECD10FE09C38162853D2DFE800
:101D300000F053525252545255565758595A5B520A
:101D40005252525252527FB69DF8140040B2A949E5
:101D500008709DF815109DF8160001EB002000B2E8
:101D6000A44948809DF817109DF8180001EB002049
:101D700000B2A04988809DF8190088719DF81A006A
:101D8000C87133E19DF8140040B29A4908709DF87B
:101D900015109DF8160001EB002000B2954948800F
:101DA0009DF817109DF8180001EB002000B2914932
:101DB00088809DF8190088719DF81A00C87115E196
:101DC00014E113E112E19DF814008A4981F8400002
:101DD0000CE19BE0BFE008E100BF00BF00BF00BF17
:101DE00000BF00BF00BF00BF9DF8140040B2814992
:101DF00008709DF815109DF8160001EB002000B248
:101E00007C4908819DF817109DF8180002E0DAE07F
:101E1000A0E0E9E001EB002000B2764948819DF89E
:101E200019109DF81A0001EB002072498881DDE04D
:101E30009DF81400102804D012280CD014282CD19E
:101E40001AE09DF817109DF8180001EB002000B271
:101E50006849888421E09DF817109DF8180041EA30
:101E600000219DF8190041EA00419DF81A0041EA5D
:101E700000606049886210E09DF817109DF8180016
:101E800041EA00219DF8190041EA00419DF81A003D
:101E900041EA00605749C86200BF00BFA6E09DF854
:101EA0001400102804D012280CD014282CD11AE0C9
:101EB0009DF817109DF8180001EB002000B24D4965
:101EC000888421E09DF817109DF8180041EA002150
:101ED0009DF8190041EA00419DF81A0041EA0060AE
:101EE0004449886210E09DF817109DF8180041EAF7
:101EF00000219DF8190041EA00419DF81A0041EACD
:101F000000603C49C86200BF00BF6FE09DF815103B
:101F10009DF8160041EA0020364988819DF8171087
:101F20009DF8180041EA00203249C8819DF8191037
:101F30009DF81A0041EA00202E490882084680894F
:101F40004FF4B471484347F6FF7190FBF1F02A4912
:101F500008804BE04AE09DF819109DF81A0001EB4B
:101F600000202449088241E09DF8140000239DF8D8
:101F700015101A0242EA11620C02204343EA0201E0
:101F80009DF816300022120442EA134440EA03424C
:101F900021439DF817300020000640EA132042EA52
:101FA000036201439DF8180001439DF819000302E4
:101FB000104641EA03029DF81A1042EA01420D4917
:101FC000C1E9060212E09DF817109DF8180041EAD9
:101FD00000219DF8190041EA00419DF81A0041EAEC
:101FE00000600449086201E000E000BF00BF10BCCF
:101FF0005DF814FB000100203600002000B585B01C
:1020000001210420FFF754F801218803FFF780F82D
:102010002020039000208DF8100001208DF8120080
:1020200003208DF8110002208DF8130003A9134836
:10203000FEF7F8FC05210220FFF730F92020009080
:1020400001208DF8060000208DF8040008208DF88E
:1020500005006846FEF79CFC17208DF8080001205B
:102060008DF80B0002208DF8090000208DF80A0081
:1020700002A8FEF7D7FF05B000BD0000000802402F
:1020800010B504460E48006844600E48006884425B
:1020900007D20B480168091D0B48006800F03EFD9F
:1020A0000CE007480168091D0848006800F036FD8B
:1020B00007480068844201D20548046010BD000052
:1020C0006C000020800000207400002070000020C0
:1020D0009C0000202DE9F04105460F461FB9A800DD
:1020E00000F020FC00E03846064656B15C2000F0C7
:1020F00019FC04460CB1266304E0304600F07CFD78
:1021000000E0002424B1A900A522206BFEF7C8F846
:102110002046BDE8F081000010B500F025FD134811
:10212000006800BB124800F0E9FC124800F0E6FC31
:102130000F48114908600F4810490860002210211B
:102140000A2001F083FA094908600846006850B97E
:1021500000BF102080F31188BFF34F8FBFF36F8F44
:1021600000BF00BFFEE700F029FD10BDAC0000205D
:102170007C0A0020900A0020A4000020A800002073
:1021800070B523E001F004F81348006808B9012095
:1021900000E00020054601F0C7FFBDB900F0E4FCF7
:1021A0000D48C068C468201D00F07EFC0B48006824
:1021B000401E0A4908600A480068401E0849086035
:1021C00000F0FCFC204600F062F800BF0448006804
:1021D0000028D7D170BD0000540A00207C000020E8
:1021E0007800002070B504460D46206C70B1216C5B
:1021F000E0680844E0606168E068884201D32068D4
:10220000E0602846226CE168FEF738F870BD2DE9E1
:10221000F04104460E4615460027206C40B9206860
:1022200078BB606801F078FE07460020606028E017
:102230007DB93146226CA068FEF720F8216CA068B9
:102240000844A060D4E9011088421AD32068A06035
:1022500017E03146226CE068FEF710F8216CE06868
:10226000401AE0602168E068884203D2216C60680F
:10227000401AE060022D04D1A06B10B1A06B401E8B
:10228000A063A06B401CA0633846BDE8F08110B588
:102290000446206B00F0B0FC204600F0ADFC10BD01
:1022A0000146084A126812680AB9012200E00022B9
:1022B0000A600A6822B9034A1268D268106800E00E
:1022C00000207047A400002030B54FF4F0431748B9
:1022D00000F007042CB1C01D20F00700134C041BB4
:1022E0001B1B0246124C22600024114D6C60D0185A
:1022F000083820F007000F4C206000240D4D2D6899
:102300006C600C4D2D682C601146441A4C60094CD1
:1023100024680C60084D4C682C60084D4C682C609B
:102320004FF00044064D2C6030BD0000A40A002090
:10233000B4000020BC000020C4000020C000002029
:10234000C800002000BFFFF71BFF064800680128F7
:10235000F9D94FF0805004490860BFF34F8FBFF3A5
:102360006F8FF0E7A009002004ED00E02DE9F047B1
:1023700004460F4615469946DDF82080002607E002
:10238000B95D04F134008155B85D00B902E0761CF6
:10239000102EF5D300BF002143200155062D00D398
:1023A0000525E562E56400202065201D00F0B3FBF3
:1023B00004F1180000F0AFFB2461C5F10600A06134
:1023C00064620020606584F85800BDE8F087000072
:1023D00010B5002407E004EB84010F4A02EB8100F2
:1023E00000F08CFB641C062CF5D30C4800F086FB37
:1023F0000B4800F083FB0B4800F080FB0A4800F01C
:102400007DFB0A4800F07AFB04480949086004484B
:102410000849086010BD0000A0090020180A00202B
:102420002C0A0020400A0020540A0020680A0020DC
:10243000700000207400002010B50146164800E02E
:10244000006803688B42FBD30246436813448B4207
:1024500004D143684C682344436001460A464B68F4
:1024600013440468A34211D10C4C03682468A342AE
:1024700008D04B680468646823444B6003681B6899
:102480000B6005E0054B1B680B6001E003680B6007
:10249000884200D0016010BDB4000020BC000020C4
:1024A0002DE9F04104460D4616461F464FF0000840
:1024B00065602461B5420CD8F01BA169884202D343
:1024C0004FF0010811E0211D0948006800F026FBCB
:1024D0000BE0BE4204D2BD4202D34FF0010804E03B
:1024E000211D0448006800F019FB4046BDE8F0815A
:1024F000A8000020A400002070B5054600F034FBC1
:10250000A86B08B9012400E0002400F057FB204626
:1025100070BD70B5054600F027FBA86BE96B8842DB
:1025200001D1012400E0002400F048FB204670BDEA
:10253000F8B505460F4616480068C068C468201DF7
:1025400000F0B2FAE06901281ED1A06941192B46BA
:102550003A462046FFF7A4FF012815D10020034684
:102560002A4601460090204601F08CFE064656B9E8
:1025700000BF102080F31188BFF34F8FBFF36F8F20
:1025800000BF00BFFEE700BF2046616A8847F8BD74
:10259000A4000020F0B587B080E00398002811DA8D
:1025A00004AE56B900BF102080F31188BFF34F8FDF
:1025B000BFF36F8F00BF00BFFEE7D6E90020B16810
:1025C000904700BF0398002868DB059C606908B944
:1025D000012000E0002010B9201D00F065FA02A8DB
:1025E00000F0BEF8054603980A2855D2DFE800F04F
:1025F0000905073234500608333500BF00BF00BF5D
:1026000000BF0498A269811803462A462046FFF7B6
:1026100047FF01281DD12046616A8847E0690128EB
:1026200017D1002000900498A16942180023194690
:10263000204601F027FE074657B900BF102080F35F
:102640001188BFF34F8FBFF36F8F00BF00BFFEE74E
:1026500000BF22E000BF20E000BF0498A061A06995
:1026600008B1012000E0002050B900BF102080F325
:102670001188BFF34F8FBFF36F8F00BF00BFFEE71E
:10268000A06941192B462A462046FFF709FF04E0BE
:10269000204600F0B1FA00E000BF00BF00231A4658
:1026A00003A90448006801F015F800287FF475AF0D
:1026B00007B0F0BDAC000020F8B505460C4600F0B0
:1026C00067FD684600F04CF80646009820BB44B908
:1026D000B54206D801F028FD31462846FFF728FF0D
:1026E0001CE03CB10E480068006808B9012000E019
:1026F00000200446A91B22460A48006800F00CFB93
:1027000001F012FD50B94FF0805007490860BFF347
:102710004F8FBFF36F8F01E001F006FDF8BD0000A1
:10272000A8000020AC00002004ED00E00A49096880
:10273000096809B9012100E0002121B14FF0FF3102
:10274000064A116006E004490968C968C868034A76
:102750004168116070470000700000209C0000205C
:1027600070B5044601F02CFB054607480068854219
:1027700004D200F00BF80120206001E0002020606E
:1027800001480560284670BDB00000202DE9F843DF
:1027900032E024480068C068056822480068C068C4
:1027A000C468201D00F080F92046616A8847E0690E
:1027B000012821D1A0694619AE4207D9666024617B
:1027C000211D1848006800F0A9F915E00020034613
:1027D0002A4601460090204601F054FD074657B9AD
:1027E00000BF102080F31188BFF34F8FBFF36F8FAE
:1027F00000BF00BFFEE700BF0A480068006808B9D4
:10280000012000E000200028C3D00648D0F8008056
:1028100005480068034908600348C0F80080BDE827
:10282000F8830000A4000020A80000200E480068E3
:10283000401C08B9012000E0002050B900BF102062
:1028400080F31188BFF34F8FBFF36F8F00BF00BFBE
:10285000FEE700BF102080F31188BFF34F8FBFF356
:102860006F8F00BF00BFFEE7CC00002010B503460D
:10287000002022B903EA010434B1012004E003EA94
:1028800001048C4200D1012010BD08B500BF68468C
:10289000FFF706FD044620460099FFF70DFFFFF7FE
:1028A00079FEF4E710B5044600F05EF911E0606AC5
:1028B00008B9012000E0002038B904F1240001F03B
:1028C0008FFB18B100F0B0FA00E005E0A06C401EEC
:1028D000A064A06C0028EADC00BF4FF0FF30A064C9
:1028E00000F06CF900F040F911E0206908B901200E
:1028F00000E0002050B904F1100001F071FB08B1B4
:1029000000F092FA606C401E606400E002E0606CCF
:102910000028EADC00BF4FF0FF30606400F04EF9A1
:1029200010BD00002DE9F04104464FF0000800F012
:102930002FFC4648006808B9FFF7C6FC4448006809
:10294000204000286BD1D4B1083404F00700B0B1A6
:1029500004F00700C0F10800044404F0070008B9BF
:10296000012000E0002050B900BF102080F3118842
:10297000BFF34F8FBFF36F8F00BF00BFFEE7002C88
:102980004DD034480068844249D8334E30460568FB
:1029900001E02E462D686868A04202D2286800280F
:1029A000F7D12A480068854239D0306800F108081C
:1029B000286830606868001B102819D92F1907F0A3
:1029C000070008B9012000E0002050B900BF102026
:1029D00080F31188BFF34F8FBFF36F8F00BF00BF2D
:1029E000FEE76868001B78606C603846FFF724FDDE
:1029F000184968680968081A164908600846006896
:102A000016490968884203D21248006813490860D1
:102A10000F4968680968084368600020286001F071
:102A200083FB08F0070008B9012000E0002050B93E
:102A300000BF102080F31188BFF34F8FBFF36F8F5B
:102A400000BF00BFFEE74046BDE8F081BC000020AB
:102A5000C8000020C0000020B4000020C4000020F6
:102A60000648006830B10549096801F15000096D58
:102A7000491C016001480068704700006C0000209C
:102A8000001F4FF080730360001F0160001F054BA3
:102A9000036014380260001F6FF0020303602038E7
:102AA000704700002D28000801460A69D1E901306D
:102AB0009860D1E9010358605068884201D1886864
:102AC0005060002008611068401E10601068704758
:102AD00005490968886904490968C96AC1F106019C
:102AE000014A1268916170476C00002070B504467D
:102AF0000D462946204600F0ADFB70BD00F10801EF
:102B000041604FF0FF31816000F10801C160016157
:102B100000210160704700210161704710B5024635
:102B20000B685C1C0CB9106907E002F1080000E0BA
:102B30004068446824689C42FAD944684C604C68F8
:102B4000A160886041600A611468641C146010BD53
:102B500042684A6093688B6093685960916008612D
:102B600003685B1C0360704700BF102080F311886E
:102B7000BFF34F8FBFF36F8F00BF0E480068401C3C
:102B80000C49086008460068012812D10A4800680C
:102B9000C0B208B9012000E0002050B900BF1020E9
:102BA00080F31188BFF34F8FBFF36F8F00BF00BF5B
:102BB000FEE77047CC00002004ED00E00D480068FF
:102BC00050B900BF102080F31188BFF34F8FBFF3BF
:102BD0006F8F00BF00BFFEE706480068401E054932
:102BE00008600846006820B9002080F3118800BF03
:102BF00000BF7047CC00002070B506463546002E59
:102C00003FD0083D2C461F4960680968084008B15C
:102C1000012000E0002050B900BF102080F311888F
:102C2000BFF34F8FBFF36F8F00BF00BFFEE7206879
:102C300008B9012000E0002050B900BF102080F347
:102C40001188BFF34F8FBFF36F8F00BF00BFFEE748
:102C50000C4960680968084098B1206888B909493A
:102C6000606809688843606000F092FA064960680D
:102C700009680844044908602046FFF7DDFB01F0BD
:102C800053FA70BDC8000020C000002003484FF078
:102C9000E021486107200861704700003F90020072
:102CA00070B5FDF7D5FA0446102C16D304F1E020D8
:102CB00090F8F05315480078854201DB012000E0D0
:102CC000002050B900BF102080F31188BFF34F8F50
:102CD000BFF36F8F00BF00BFFEE70D48006800F430
:102CE000E0600C490968884201D8012000E000201A
:102CF00050B900BF102080F31188BFF34F8FBFF38E
:102D00006F8F00BF00BFFEE770BD0000D000002045
:102D10000CED00E0D40000202DE9F04105460E4600
:102D200017462C46FFF720FF606C401C08B90020B6
:102D30006064A06C401C08B90020A064FFF73EFF4F
:102D4000A06B28B93A46314604F1240000F0C8F8D7
:102D50002046FFF7A7FDBDE8F081000070B50446EE
:102D600000266CB31B48006808B9012000E0002071
:102D700050B900BF102080F31188BFF34F8FBFF30D
:102D80006F8F00BF00BFFEE700F002FA1248006834
:102D9000051912480068001DFFF786FE50B90F485C
:102DA000006890F82C10012088400D490968814383
:102DB0000B4801602846FFF763F901F0B5F90646B4
:102DC0003EB94FF0805007490860BFF34F8FBFF303
:102DD0006F8F70BDA0000020800000206C000020DC
:102DE0008400002004ED00E01BE00E48007830B1C4
:102DF0000120FEF7CDFE0220FEF7B8FE05E001201F
:102E0000FEF7B4FE0220FEF7C3FE0648007808B9BC
:102E1000012000E00020034908704FF4FA70FFF72A
:102E20009DFFE2E72400002001200149086070476F
:102E30009000002086B012E000235A1E01A9084825
:102E4000006800F047FC0446012C05D1059800906D
:102E500001A80FC8FEF744FF0520FFF77FFFEBE74F
:102E60001400002070B505460C4655B900BF10206F
:102E700080F31188BFF34F8FBFF36F8F00BF00BF88
:102E8000FEE71348016818312846FFF747FE10484F
:102E90000068001DFFF708FE50B90D48006890F863
:102EA0002C10012088400B490968814309480160C2
:102EB000601C30B906480168091D0748FFF748FE45
:102EC00005E00648006806193046FFF7D9F870BDDE
:102ED0006C00002084000020680A00208000002090
:102EE0002DE9F04104460D46164654B900BF1020A6
:102EF00080F31188BFF34F8FBFF36F8F00BF00BF08
:102F0000FEE71448016818312046FFF721FE1148FA
:102F10000068001DFFF7C8FD50B90E48006890F822
:102F20002C10012088400C49096881430A4801603F
:102F3000012E06D107480168091D0848FFF708FE61
:102F400005E00748006847193846FFF799F8BDE8DB
:102F5000F08100006C00002084000020680A00203E
:102F6000800000202DE9F04105460E46144655B973
:102F700000BF102080F31188BFF34F8FBFF36F8F16
:102F800000BF00BFFEE71F48006808B1012000E055
:102F9000002050B900BF102080F31188BFF34F8F7D
:102FA000BFF36F8F00BF00BFFEE746F00040164939
:102FB000096888611448016818312846FFF7C8FD80
:102FC00011480068001DFFF76FFD50B90E480068FA
:102FD00090F82C10012088400C49096881430B4867
:102FE0000160601C30B908480168091D0848FFF7F6
:102FF000AFFD05E00748006807193846FFF740F8BD
:10300000BDE8F081A00000206C00002084000020BA
:10301000680A00208000002070B505462C46002D6F
:103020004BD02649E06A0968C96A884245D2A0693E
:1030300000F0004028B921480068C06AC0F10600CD
:10304000A061E16A01EB81011D4A02EB8101606927
:10305000884201D1012000E0002050B3201DFFF77D
:1030600023FD78B9E06A00EB8000154951F8200093
:1030700040B994F82C100120884012490968814316
:10308000104801600D480068C06AE06294F82C1096
:10309000012088400B49096808430A490860E16A31
:1030A00001EB8101064A02EB8100211DFFF750FD73
:1030B00003E002480068C06AE06270BD6C00002056
:1030C000A00900208400002050B900BF102181F326
:1030D0001188BFF34F8FBFF36F8F00BF00BFFEE7B4
:1030E00003490968016003490968416070470000AD
:1030F000940000208000002004E0FEF72BFD0A2051
:10310000FFF72CFEF9E700001FB5002000900190AA
:1031100002900346802218A10390194800F088FD10
:103120000446012C02D101F081F80446012C15D18E
:1031300000BF102080F31188BFF34F8FBFF36F8F54
:1031400000BF4FF0FF300F49086001200E490860B2
:1031500000200E49086000F0A1F90BE054B900BF4F
:10316000102080F31188BFF34F8FBFF36F8F00BF24
:1031700000BFFEE71FBD000049444C4500000000B1
:10318000452300089C0000208800002080000020CB
:1031900002480068401C014908607047A0000020F8
:1031A0001D48006818B101201C49086032E0002069
:1031B0001A4908601A480068B0FA80F0C0F11F018F
:1031C00001EB8100174A52F8200008B1012000E00D
:1031D000002050B900BF102080F31188BFF34F8F3B
:1031E000BFF36F8F00BF00BFFEE701EB81020D4B05
:1031F00003EB820042685268426000F108024368B3
:10320000934202D14268526842604268D268064BDB
:103210001A6000BF70470000A0000020900000204E
:1032200084000020A00900206C00002004E0FDF7CD
:10323000CBFD0A20FFF792FDF9E710B51C20FFF740
:1032400071FB044624B100202060201DFFF756FCCE
:10325000204610BD2DE9FE4F07468846002001900C
:103260003C46009057B900BF102080F31188BFF38F
:103270004F8FBFF36F8F00BF00BFFEE708F07F40A6
:1032800008B9012000E0002050B900BF102080F3F1
:103290001188BFF34F8FBFF36F8F00BF00BFFEE7F2
:1032A00004F1040909F108000290FFF771FFD9F851
:1032B0000C60206840EA0800206026E0D6F804B0E0
:1032C00035680020009005F07F4A25F07F450AF020
:1032D000806028B92068284040B10120009005E0B6
:1032E00020682840A84201D101200090009858B1E0
:1032F0000AF0807010B1019828430190206840F0D6
:103300000071304600F0B8FE5E4602988642D5D184
:10331000206801998843206000F006FF2068BDE81E
:10332000FE8F00002DE9F04104460D461646334657
:103330002A462146034800F0E7FF07463846BDE825
:10334000F0810000ED2A00082DE9FF4F83B081468F
:103350000D461746DDF840804C464FF0000A00202D
:103360000190B9F1000F0AD100BF102080F311883D
:10337000BFF34F8FBFF36F8F00BF00BFFEE705F0B5
:103380007F4008B9012000E0002050B900BF1020A4
:1033900080F31188BFF34F8FBFF36F8F00BF00BF63
:1033A000FEE70DB1012000E0002050B900BF102061
:1033B00080F31188BFF34F8FBFF36F8F00BF00BF43
:1033C000FEE700F0EDFC10B9B8F1000F01D10120CB
:1033D00000E0002050B900BF102080F31188BFF337
:1033E0004F8FBFF36F8F00BF00BFFEE7FFF7D0FE28
:1033F000206800902946069A0098FFF737FA029055
:10340000029838B1009E4FF00008B7B12068A84379
:10341000206012E0B8F1000F01D1009E0DE00FB165
:103420004AF0807A069808B14AF0806A45EA0A01B3
:103430004246201DFFF796FD002600F075FE8346EC
:10344000B8F1000F23D0BBF1000F07D14FF080502F
:1034500011490860BFF34F8FBFF36F8FFFF738FB41
:10346000064606F0007080B9FFF77EFB2668294605
:103470003046069AFFF7FAF918B117B12068A84349
:103480002060FFF79BFB0020019026F07F4630462E
:1034900007B0BDE8F08F000004ED00E01CB5474820
:1034A00000684749884201D0012000E0002050B95F
:1034B00000BF102080F31188BFF34F8FBFF36F8FD1
:1034C00000BF00BFFEE73D4800683D49491E8842F5
:1034D00001D0012000E0002050B900BF102080F38F
:1034E0001188BFF34F8FBFF36F8F00BF00BFFEE7A0
:1034F0003449084600780190FF200A4610700846BB
:10350000007800909DF8000000F0F0009DF8002089
:10351000904201D1012000E0002050B900BF1020EE
:1035200080F31188BFF34F8FBFF36F8F00BF00BFD1
:10353000FEE79DF8000000F01000234A10700720FD
:10354000224A106009E021480068401E1F4A1060AE
:103550009DF800004006000E00909DF8000000F06D
:1035600080008028EFD0194800680002174A1060D8
:103570001046008800F4E0601060124A0198107054
:103580000E482030006840F470000C49203108607B
:103590000846006840F070400860FFF777FB0020A5
:1035A0000B490860FCF71CFE0A48006840F04040E8
:1035B00008490860FCF704FE00201CBD00ED00E097
:1035C00071C20F4100E400E0D0000020D4000020D0
:1035D000CC00002034EF00E070B505460E460DB17A
:1035E000012000E0002050B900BF102080F31188B6
:1035F000BFF34F8FBFF36F8F00BF00BFFEE7AE4238
:1036000001D8012000E0002050B900BF102080F355
:103610001188BFF34F8FBFF36F8F00BF00BFFEE76E
:1036200002220021284600F011F8044604B1A663E6
:1036300054B900BF102080F31188BFF34F8FBFF340
:103640006F8F00BF00BFFEE7204670BD2DE9F04739
:1036500006460D4690464FF000090EB1012000E0ED
:10366000002050B900BF102080F31188BFF34F8FA6
:10367000BFF36F8F00BF00BFFEE70DB9002702E068
:1036800006FB05F0471C07F15400FFF74BF9044611
:1036900074B10DB9246002E004F154002060E663C7
:1036A00025640121204600F0EBF884F85080A14603
:1036B000B9F1000F0AD100BF102080F31188BFF3C9
:1036C0004F8FBFF36F8F00BF00BFFEE74846BDE8D6
:1036D000F08700002DE9FF4383B005460E461F46E4
:1036E0004FF000092C4654B900BF102080F3118818
:1036F000BFF34F8FBFF36F8F00BF00BFFEE70EB960
:10370000206C08B9012000E0002050B900BF102053
:1037100080F31188BFF34F8FBFF36F8F00BF00BFDF
:10372000FEE700F03DFB08B9059808B9012000E06C
:10373000002050B900BF102080F31188BFF34F8FD5
:10374000BFF36F8F00BF00BFFEE700BFFFF70CFAAB
:10375000A06BE8B3D4F80C8031462046FEF742FD5A
:10376000DFB9A06B401EA063206810B9FFF778F99D
:103770006060206908B9012000E0002010BB04F15E
:10378000100000F02DFC01281CD100073B49086007
:10379000BFF34F8FBFF36F8F14E0C4F80C80606AE3
:1037A00008B9012000E0002060B904F1240000F015
:1037B00017FC38B14FF0805030490860BFF34F8F8D
:1037C000BFF36F8FFFF7FAF9012007B0BDE8F08370
:1037D000FFE7059818B9FFF7F1F90020F5E7B9F10F
:1037E000000F04D101A8FFF76FFC4FF00109FFF7AC
:1037F000E5F9FFF7CDFCFFF7B7F9606C401C08B99D
:1038000000206064A06C401C08B90020A064FFF791
:10381000D5F905A901A800F0C5F940BB2046FEF77F
:103820006BFEF0B1206830B9FFF79EF96068FFF7D2
:10383000F3FBFFF7C3F904F124000599FFF712FB2E
:103840002046FFF72FF800F06FFC00287FF47EAFD2
:103850004FF0805009490860BFF34F8FBFF36F8F5F
:1038600074E72046FFF71EF800F05EFC6EE7204686
:10387000FFF718F800F058FC0020A6E704ED00E080
:1038800070B505460E462C4654B900BF102080F393
:103890001188BFF34F8FBFF36F8F00BF00BFFEE7EC
:1038A000FFF762F9D4E90F12206801FB02006060A3
:1038B0000020A0632068A060E06B401E226C21689D
:1038C00000FB0210E0604FF0FF306064A0649EB91E
:1038D000206908B9012000E00020A8B904F1100017
:1038E00000F07EFB01280FD1000709490860BFF3F3
:1038F0004F8FBFF36F8F07E004F11000FFF7FEF862
:1039000004F12400FFF7FAF8FFF758F9012070BD21
:1039100004ED00E02DE9FF4383B0064688461D46CE
:103920004FF00009344654B900BF102080F31188CD
:10393000BFF34F8FBFF36F8F00BF00BFFEE7B8F13B
:10394000000F01D1206C08B9012000E0002050B91F
:1039500000BF102080F31188BFF34F8FBFF36F8F2C
:1039600000BF00BFFEE7022D02D1E06B012801D1AC
:10397000012000E0002050B900BF102080F3118822
:10398000BFF34F8FBFF36F8F00BF00BFFEE700F0A4
:1039900007FA08B9059808B9012000E0002050B9DD
:1039A00000BF102080F31188BFF34F8FBFF36F8FDC
:1039B00000BF00BFFEE700BFFFF7D6F8A06BE16BCA
:1039C000884201D3022D28D12A4641462046FEF7DF
:1039D0001EFC0746606A08B9012000E0002068B9B3
:1039E00004F1240000F0FCFA012810D1000730494E
:1039F0000860BFF34F8FBFF36F8F08E03FB14FF008
:103A000080502B490860BFF34F8FBFF36F8FFFF7D4
:103A1000D5F8012007B0BDE8F083059818B9FFF785
:103A2000CDF80020F6E7B9F1000F04D101A8FFF7A7
:103A30004BFB4FF00109FFF7C1F8FFF7A9FBFFF7B8
:103A400093F8606C401C08B900206064A06C401CB6
:103A500008B90020A064FFF7B1F805A901A800F09B
:103A6000A1F8F0B92046FEF754FDA0B104F1100012
:103A70000599FFF7F7F92046FEF714FF00F054FB15
:103A8000002899D14FF0805009490860BFF34F8F4B
:103A9000BFF36F8F90E72046FEF704FF00F044FB72
:103AA0008AE72046FEF7FEFE00F03EFB0020B1E76D
:103AB00004ED00E02DE9F04707468A4690461E4691
:103AC0003C4654B900BF102080F31188BFF34F8FDC
:103AD000BFF36F8F00BF00BFFEE7BAF1000F01D147
:103AE000206C08B9012000E0002050B900BF102070
:103AF00080F31188BFF34F8FBFF36F8F00BF00BFFC
:103B0000FEE7022E02D1E06B012801D1012000E086
:103B1000002050B900BF102080F31188BFF34F8FF1
:103B2000BFF36F8F00BF00BFFEE7FFF7B9F800BF1C
:103B30001021EFF3118081F31188BFF34F8FBFF392
:103B40006F8F00BF0546A06BE16B884201D3022E48
:103B50001FD1324651462046FEF759FBA06C401C4F
:103B600088B9606A08B9012000E0002070B904F14A
:103B7000240000F035FA48B1B8F1000F06D001205A
:103B8000C8F8000002E0A06C401CA0644FF00109DE
:103B900001E04FF0000900BF85F3118800BF4846DF
:103BA000BDE8F08770B504460D4654B900BF10203B
:103BB00080F31188BFF34F8FBFF36F8F00BF00BF3B
:103BC000FEE755B900BF102080F31188BFF34F8F77
:103BD000BFF36F8F00BF00BFFEE7FEF7C5FF1248BF
:103BE00003682868401C08B9002619E00F492068BE
:103BF0000968884204D06068984201D801260FE025
:103C00006068181A2968884209D228686168591AB8
:103C1000401A28602046FFF757FA002600E00126E8
:103C2000FEF7CCFF304670BD8000002094000020DD
:103C30002DE9FF4F81B0804616469A46DDE90E5BBE
:103C4000B8F1000F0AD100BF102080F31188BFF334
:103C50004F8FBFF36F8F00BF00BFFEE7062D01D26D
:103C6000012000E0002050B900BF102080F311882F
:103C7000BFF34F8FBFF36F8F00BF00BFFEE730462B
:103C80001099FEF727FA0446002C64D0701E216BB1
:103C900001EB800929F0070909F0070008B90120A4
:103CA00000E0002050B900BF102080F31188BFF35E
:103CB0004F8FBFF36F8F00BF00BFFEE700962A460D
:103CC0002046119B0299FEF751FB52464146484659
:103CD000FEF7D6FE2060BBF1000F01D0CBF800400C
:103CE000FEF742FF27480068401C26490860264826
:103CF000006840B9244804600846006801280CD1D7
:103D0000FEF766FB09E02148006830B91E480068EC
:103D1000C06AA84201D81C4804601D480068401CC5
:103D20001B49086008460068606494F82C10012064
:103D3000884018490968084316490860E16A01EBA0
:103D40008101154A02EB8100211DFEF701FF0127C9
:103D5000FEF734FF01E04FF0FF37012F0ED10B4883
:103D6000006858B108480068C06AA84206D23807FF
:103D70000A490860BFF34F8FBFF36F8F384605B015
:103D8000BDE8F08F7C0000206C000020880000203F
:103D90009800002084000020A009002004ED00E02D
:103DA0000549096809B9012005E00449096809B90C
:103DB000022000E00020704788000020A0000020C2
:103DC0000149086870470000800000202DE9F0419B
:103DD0004FF0000845480068002879D14448006841
:103DE000401C434908600846066816BB4148006805
:103DF000006808B9012000E0002050B900BF102081
:103E000080F31188BFF34F8FBFF36F8F00BF00BFE8
:103E1000FEE7384807683848006836490860364881
:103E2000076036480068401C34490860FEF77EFC95
:103E300000BF3348006886423CD300BF2D4800686D
:103E4000006808B9012000E0002020B14FF0FF30E9
:103E50002B4908602DE027480068C068C468656881
:103E6000AE4202D22648056023E0201DFEF71CFE6C
:103E7000A06A18B104F11800FEF716FE94F82C1091
:103E8000012088401F49096808431E490860E16A0B
:103E900001EB81011C4A02EB8100211DFEF758FE57
:103EA0001A49E06A0968C96A8842C7D34FF0010815
:103EB000C4E700BF15480068C06A00EB80001249E3
:103EC00051F82000012808D94FF0010805E0FFE76C
:103ED0000F480068401C0E4908600E48006808B191
:103EE0004FF001084046BDE8F0810000A00000202E
:103EF000800000207000002074000020940000204A
:103F00009C00002084000020A00900206C000020FC
:103F10008C0000209000002070B505462C4600263D
:103F2000002D55D02B480068844201D1012000E0CB
:103F3000002050B900BF102080F31188BFF34F8FCD
:103F4000BFF36F8F00BF00BFFEE7206D50B900BF09
:103F5000102080F31188BFF34F8FBFF36F8F00BF26
:103F600000BFFEE7206D401E2065E16CE06A8842DC
:103F70002ED0206D60BB201DFEF796FD78B9E06A5B
:103F800000EB8000144951F8200040B994F82C103F
:103F90000120884011490968814310480160E06CA4
:103FA000E062E06AC0F10600A06194F82C100120E4
:103FB00088400A490968084308490860E16A01EB3A
:103FC0008101054A02EB8100211DFEF7C1FD01269A
:103FD000304670BD6C000020A00900208400002045
:103FE00070B50646F068C46854B900BF102080F36D
:103FF0001188BFF34F8FBFF36F8F00BF00BFFEE785
:1040000004F11800FEF750FD15480068A8B9201DFE
:10401000FEF74AFD94F82C100120884011490968E8
:10402000084310490860E16A01EB81010E4A02EB86
:104030008100211DFEF78CFD04E004F118010B48FE
:10404000FEF786FD0A49E06A0968C96A884204D910
:10405000012501200749086000E00025284670BDC1
:10406000A000002084000020A0090020400A0020B9
:104070006C000020900000202DE9F04105460F461D
:104080002448006808B1012000E0002050B900BFBA
:10409000102080F31188BFF34F8FBFF36F8F00BFE5
:1040A00000BFFEE747F000402860EC6854B900BF4D
:1040B000102080F31188BFF34F8FBFF36F8F00BFC5
:1040C00000BFFEE72846FEF7EFFC201DFEF7ECFCE4
:1040D00094F82C10012088400F49096808430E49C4
:1040E0000860E16A01EB81010C4A02EB8100211DAD
:1040F000FEF72EFD0A49E06A0968C96A884204D9B8
:10410000012601200749086000E000263046BDE88E
:10411000F0810000A000002084000020A009002001
:104120006C0000209000002070B500253648006823
:1041300050B900BF102080F31188BFF34F8FBFF339
:104140006F8F00BF00BFFEE7FEF70EFD2E48006830
:10415000401E2D49086008460068002850D12B48B1
:10416000006800284CD024E02948C068C46804F1E5
:104170001800FEF799FC201DFEF796FC94F82C1011
:104180000120884023490968084322490860E16A00
:1041900001EB8101204A02EB8100211DFEF7D8FCD2
:1041A0001E49E06A0968C96A884202D301201C4995
:1041B00008601748006808B9012000E000200028C6
:1041C000D2D01848006878B10AE0FFF7FFFD10B1BF
:1041D00001201349086013480068401E1149086017
:1041E000104800680028F0D10D480068012807D168
:1041F000012500070C490860BFF34F8FBFF36F8F95
:10420000FEF7DCFC284670BDA00000207C000020EA
:10421000400A002084000020A00900206C0000203B
:10422000900000208C00002004ED00E01FB5002469
:10423000FDF772FF0F48006868B100200523CDE943
:104240000030029003464FF480720BA103900C489B
:10425000FFF7EEFC044654B900BF102080F311882C
:10426000BFF34F8FBFF36F8F00BF00BFFEE7204645
:1042700004B010BDAC000020546D72205376630072
:104280008B2800082DE9FF4704460D4616461F46B9
:10429000DDF830804FF0000954B900BF102080F3E2
:1042A0001188BFF34F8FBFF36F8F00BF00BFFEE7D2
:1042B0001448006810B3009501960294062D15DA93
:1042C000FFF76EFD022808D10023424669460D48DB
:1042D0000068FFF71FFB814610E000231A4669467D
:1042E00008480068FFF716FB814607E000233A46BE
:1042F000694604480068FFF7DDFB8146484604B084
:10430000BDE8F087AC0000202DE9FF4104460D46D2
:1043100016461F466FF00100009001940295039627
:1043200000233A46694604480068FFF7C3FB80460D
:10433000404604B0BDE8F081AC0000205C430008BA
:1043400000000020D80000003018000834440008A5
:10435000D8000020D08500004018000800000000B0
:10436000000000000000000000000000000000004D
:10437000000000000000000000000000000000003D
:104380000000000041010000640000000410000073
:10439000000000000000000000000000000000001D
:1043A00000000000000001020304010203040607EC
:1043B00008090000007A030A000000000000000065
:1043C00001020304060708090000000000000000C5
:1043D00000000000000000000000000000000000DD
:1043E00000000000000000000000000000000000CD
:1043F00000000000000000000000000000000000BD
:1044000000000000000000000000000000000000AC
:10441000000000000000000000000000000000009C
:104420000000000000000000AAAAAAAA00000000E4
:044430000000000088
:040000050800018965
:00000001FF
