:020000040800F2
:10000000B886002059020008811500083110000848
:100010005512000869090008F91D000800000000D9
:10002000000000000000000000000000A101000826
:10003000A30E000800000000F50100085119000897
:1000400073020008730200087302000873020008BC
:1000500073020008730200087302000873020008AC
:10006000730200087302000873020008730200089C
:10007000730200087302000873020008730200088C
:10008000730200087302000873020008730200087C
:10009000730200087302000873020008A50E00082E
:1000A000730200087302000873020008730200085C
:1000B000730200087302000873020008730200084C
:1000C000730200087302000873020008730200083C
:1000D00073020008AD1A00087302000873020008DA
:1000E000730200087302000873020008730200081C
:1000F000730200087302000873020008730200080C
:1001000073020008730200087302000873020008FB
:1001100073020008730200087302000873020008EB
:1001200073020008730200087302000873020008DB
:1001300073020008730200087302000873020008CB
:100140006D090008730200087302000873020008BA
:1001500073020008730200087302000873020008AB
:10016000730200087302000873020008730200089B
:10017000730200087302000873020008730200088B
:100180007302000873020008DFF810D000F0ACFA28
:10019000004800479F2B0008AFF30080B88600207E
:1001A0002A4B19680868B0E8F04F80F30988BFF35C
:1001B0006F8F4FF0000080F311887047000000003F
:1001C00006480068006880F3088862B661B6BFF32D
:1001D0004F8FBFF36F8F00DF00BF00BF08ED00E05F
:1001E000DFF80C00016841F470010160704700BF46
:1001F00088ED00E0EFF30980BFF36F8F134B1A68AF
:100200001EF0100F08BF20ED108A20E9F04F10609B
:1002100008B44FF0100080F31188BFF34F8FBFF385
:100220006F8F03F05FFF4FF0000080F3118808BC70
:1002300019680868B0E8F04F1EF0100F08BFB0EC66
:10024000108A80F30988BFF36F8F70476800002021
:10025000EFF30580704700000648804706480047D6
:10026000FEE7FEE7FEE7FEE7FEE7FEE7FEE7FEE766
:10027000FEE7FEE7451A00088901000840EA01038D
:100280009B0703D009E008C9121F08C0042AFAD24C
:1002900003E011F8013B00F8013B521EF9D2704710
:1002A000D2B201E000F8012B491EFBD270470022B8
:1002B000F6E710B513460A4604461946FFF7F0FF65
:1002C000204610BD00F0004230F000400AD0C10DC1
:1002D00001F56071C0F3160042EA0151C2084007FF
:1002E0001143704700200146704730B50B46014668
:1002F00000202022012409E021FA02F59D4205D3C5
:1003000003FA02F5491B04FA02F52844151EA2F16E
:100310000102F1DC30BD2DE9F05F05460020924678
:100320009B4688460646814640241BE028464146B7
:100330004746224600F0F9F953465A46C01A914101
:1003400010D311461846224600F0E0F92D1A67EB4B
:1003500001084F4622460120002100F0D7F917EB93
:1003600000094E41201EA4F10104DFDC484631465D
:100370002A464346BDE8F09F2DE9FE4F804681EABC
:100380000300C00F0C46009021F0004123F000450F
:10039000B8EB0200A94105D24046214690461C46D2
:1003A0000B46024623F00040104347D0270DC7F309
:1003B0000A00C3F30A510290401A019040286BDAF8
:1003C000C3F3130040F4801B0098924620B1002331
:1003D000D2EB030A63EB0B0B01985946C0F14002C4
:1003E000504600F093F906460D4650465946019A8C
:1003F00000F0ABF910EB08006141002487EA1152CC
:1004000084EAE7731A4340D0009A62B3019A012A42
:100410004FEA075215DC001B61EB02014FF000426E
:1004200002EA0752CDE90042001C41F58011324634
:100430002B4600F0ABF903B0BDE8F08F40462146F3
:10044000F9E7001B61EB0201001C41F58013001865
:100450005B412018A2F5001747EB030140EAD57075
:10046000B6196D4111E06D084FEA360645EAC075D0
:100470004FEA0752001B61EB0201001C41F580119D
:1004800049084FEA30000019514132462B4603B06B
:10049000BDE8F04F00F06BB9009801224000002346
:1004A000D0EB020263EBE073009821464FEAE07460
:1004B000B8EB000061EB0401E9E783F000435BE780
:1004C00081F0004158E72DE9FE4F81EA030404F072
:1004D000004421F0004100944FF0000B23F0004352
:1004E00050EA01045ED052EA03045BD0C3F30A541D
:1004F000C1F30A552C44A4F2F3340194A0FB025436
:10050000C1F3130141F48011C3F3130343F48013C7
:1005100001FB024400FB034E840A970A44EA81541B
:1005200047EA8357A4FB076802958D0A05FB0785F8
:100530004FEA932C04FB0C542705029D4FEA065802
:1005400047EA1637B5EB08056EEB070C870E920EDF
:1005500047EA811742EA8312A7FB0201B6EB0B01BF
:1005600064EB00042B0D43EA0C335E1844EB1C5083
:10057000DA465146E7FB0201C5F313044FEA0B3399
:1005800043EA14534FEA0432019C43EA0603A4F100
:100590000C040294009CCDE900B400F0F7F803B01D
:1005A000BDE8F08F00200146F9E72DE9F04D81EA22
:1005B000030404F0004B21F0004514464FF0000AFC
:1005C00023F0004150EA050220D054EA01021DD078
:1005D000C5F30A570246C5F31303C1F31300C1F371
:1005E0000A5640F4801543F48013A7EB0608101B4D
:1005F000D64608F2FD3873EB050002D308F1010876
:1006000001E092185B41B8F1000F03DA00200146C7
:10061000BDE8F08D00204FF48011064684460EE0C0
:10062000171B73EB050705D3121B63EB050306438A
:100630004CEA010C49084FEA300092185B4150EA3D
:100640000107EDD152EA030012D082EA040083EAE6
:100650000501084305D0101BAB4106D2012200233F
:1006600006E000224FF0004302E06FF00102531059
:100670001AEB06004CEB085110EB0A0041EB0B01A2
:10068000BDE8F04D00F073B8C1F30A52C1F3130195
:1006900040F2FF3341F480119A4202DA0020014611
:1006A000704740F233439A42A2F2334202DC524294
:1006B00000F03BB800F02AB830B5041E71F1000418
:1006C00004DB4FF00044404264EB0101141E73F15F
:1006D000000405DB1C464FF00043524263EB040369
:1006E000994208BF904230BD064C074D06E0E068D5
:1006F00040F0010394E8070098471034AC42F6D369
:10070000FFF746FDE452000804530008202A04DBEA
:10071000203A00FA02F1002070479140C2F1200314
:1007200020FA03F3194390407047202A04DB203A53
:1007300021FA02F00021704721FA02F3D040C2F101
:1007400020029140084319467047202A06DBCB1748
:10075000203A41FA02F043EAE07306E041FA02F37C
:10076000D040C2F12002914008431946704710B5AD
:10077000141E73F1000408DA401C41F100019218C4
:100780005B411A4301D120F0010010BD2DE9F04D6D
:1007900092469B4611B1B1FA81F202E0B0FA80F2C2
:1007A00020329046FFF7B2FF04460F4640EA0A00A7
:1007B00041EA0B0153465A46084313D0114653EA07
:1007C000010019D0C8F140025046FFF7AEFF0546C0
:1007D0000E46504659464246FFF798FF084305D05B
:1007E000012004E020463946BDE8F08D0020054395
:1007F00046EAE0762C4337430A986305E40AA0EB07
:1008000008000022FD0A44EA47540A3002D50020BD
:100810000146E9E7010510196941DDE908450019BC
:100820006941BDE8F04DA2E738B50524154800231D
:1008300001220521009014A004F094FC14490860E2
:10084000002003460246032100901148006804F08E
:10085000E5FC002214210A2003F094FE0D490860F3
:10086000002214210A2003F08DFE0B49086003F0DA
:1008700093FC0A4908600221084603F049FE084932
:10088000086038BD7D41000854696D657200000044
:10089000100000201400002018000020200000207C
:1008A0001C0000201FB500201B4A0123CDE90120B8
:1008B0000093039003464FF4007218A11A4804F005
:1008C00053F90020194A0223CDE901200093039037
:1008D00003464FF4007216A1184804F045F90020B1
:1008E000174A0423CDE901200093039003464FF4F7
:1008F000007214A1164804F037F90020154A0323AA
:10090000CDE901200093039003464FF4007212A139
:10091000144804F029F91FBD0400002076546173C7
:100920006B4C4544000000002D3D00080C000020E9
:10093000765461736B537461727400003D4000081B
:1009400000000020765461736B5573657249460050
:100950007141000808000020765461736B4D736785
:1009600050726F00793D000800BFFEE708B5002017
:100970000090124A0021124800F05BF90F4800680D
:1009800040F24111884217D10C48007AA0B90B48B7
:10099000807A082810D100236A460849094800686F
:1009A00004F024F8009838B14FF0805006490860F0
:1009B000BFF34F8FBFF36F8F08BD0000EC00002026
:1009C000006800401400002004ED00E010B504466B
:1009D0000B48844209D10121480600F039FE00216C
:1009E0004FF0007000F034FE08E00121880600F0AE
:1009F0002FFE00214FF0806000F02AFE10BD0000A5
:100A00000064004010B50021837A012202FA03F14C
:100A10003D4A126842F001023B4B1A603A4A1C32CE
:100A200012688A43384B1C331A60027BCAB9364AB3
:100A30000C3212688A43344B0C331A604288C388E4
:100A400042EA0343304A4032847A42F83430028822
:100A5000838842EA03432C4A4032847A02EBC40280
:100A60005360027B012A19D1274A0C3212680A43CB
:100A7000254B0C331A604288038842EA0343224A1A
:100A80004032847A42F83430C288838842EA034391
:100A90001D4A4032847A02EBC4025360C27A3AB9EA
:100AA000194A121D12688A43174B1B1D1A6006E073
:100AB000154A121D12680A43134B1B1D1A60028946
:100AC00032B9114A143212688A430F4B14331A6038
:100AD0000289012A06D10C4A143212680A430A4BD1
:100AE00014331A60427B012A06D1074A1C3212686D
:100AF0000A43054B1C331A60034A126822F00102B4
:100B0000014B1A6010BD0000006600401AB1436935
:100B10000B43436102E043698B434361704730B547
:100B2000024600200023146824F0020414601468B4
:100B300044F00104146000E05B1C546804F00104FC
:100B40001CB94FF6FF74A342F6D1546804F00104B7
:100B50000CB900206CE08C79012C04D1146844F0AD
:100B60008004146003E0146824F080041460CC79DD
:100B7000012C04D1146844F04004146003E01468AC
:100B800024F0400414600C7A012C04D1146844F061
:100B90002004146003E0146824F0200414604C7AEC
:100BA000012C04D1146844F01004146003E01468AC
:100BB00024F0100414608C7A012C04D1146844F0E1
:100BC0000804146003E0146824F008041460CC7A6C
:100BD000012C04D1146844F00404146003E0146888
:100BE00024F0040414608C78A407CD7844EA0564EA
:100BF0000D7944EA05444D7944EA05540D886D1E8B
:100C00002C43D461146824F001041460002300E034
:100C10005B1C546804F001041CB14FF6FF74A3423E
:100C2000F6D1546804F001040CB1002000E001206A
:100C300030BD10B500F5D87303EB01131B6803F04A
:100C400004031372137A53B900F5D87303EB01133D
:100C50001B6840F2FF7404EA5353136009E000F587
:100C6000D87303EB01131B686FF0604404EAD303ED
:100C7000536000F5D87303EB01131B6803F0020304
:100C8000537200F5D87303EB01135B6803F00F0395
:100C9000937200F5D87303EB01135B681B0AD374DE
:100CA00000F5D87303EB01139B68D37200F5D8737A
:100CB00003EB01139B681C0A147300F5D87303EB54
:100CC00001139B681C0C547300F5D87303EB0113DC
:100CD0009B681B0E937300F5D87303EB0113DB685D
:100CE000D37300F5D87303EB0113DB681C0A14748B
:100CF00000F5D87303EB0113DB681C0C547400F58A
:100D0000D87303EB0113DB681B0E937421B9C3681E
:100D100043F02003C36003E0036943F02003036151
:100D200010BD10B502460020936803F08063B3F154
:100D3000806F00D110E0936803F00063B3F1006F9F
:100D400001D1012008E0936803F08053B3F1805F84
:100D500001D1022000E00420042874D002F5C07301
:100D600003EB00131B6803F0010402F5C07303EBEF
:100D700000131C600B7A7BB94B7A0C8843EA44530E
:100D800002F5C07404EB00142468234302F5C07418
:100D900004EB0014236010E00B7A4C6843EAC403B0
:100DA0004C7A234302F5C07404EB001424682343F7
:100DB00002F5C07404EB001423608B7A03F00F0378
:100DC0008B7202F5C07303EB00135B6823F00F0412
:100DD00002F5C07303EB00135C6002F5C07303EB14
:100DE00000135B688C7A234302F5C07404EB001493
:100DF00063608B7B1C064B7B44EA03440B7B44EA19
:100E00000323CC7A234302F5C07404EB0014A360DF
:100E10008B7C1C064B7C44EA03440B7C44EA032392
:100E2000CC7B234302F5C07404EB0014E36002F5AD
:100E3000C07303EB00131B6843F0010402F5C07399
:100E400003EB00131C6010BD014609B90B48704745
:100E5000012901D10020FAE7022901D10020F6E79B
:100E6000032901D10020F2E7042901D10020EEE797
:100E7000052901D10020EAE70020E8E788010020E9
:100E800008B525208DF8000001208DF80100002014
:100E90008DF8020001208DF80300684600F072FB17
:100EA00008BD704710B5202000F002F810BD00000A
:100EB0000149086070470000143C014000212349AB
:100EC0008279002A3AD00A46126803689A430B4690
:100ED0001A600A1D126803689A430B1D1A60027992
:100EE00011440A6803681A430A60184A08321268F3
:100EF00003689A43154B08331A601A1D1268036879
:100F00009A43124B0C331A604279102A0ED11A1FE1
:100F1000126803681A430D4B08331A601A1D1268D1
:100F200003681A43094B0C331A600DE007494279F4
:100F300011440A6803681A430A6005E00279114403
:100F40000A6803689A430A6070470000003C014049
:100F5000F0B50A4600210023002400BF3DE0012532
:100F600005FA01F3156805EA03049C4234D10568CB
:100F70004F000326BE40B543056015794E00B540CD
:100F80000668354305601579012D02D01579022DCB
:100F900016D185684F000326BE40B543856055795C
:100FA0004E00B540866835438560456801268E4011
:100FB000B5434560456896798E40B6B23543456085
:100FC000C5684F000326BE40B543C560D5794E00C5
:100FD000B540C6683543C560491C1029BFD3F0BD74
:100FE000F0B5002300244D07ED0E02FA05F3CE10F4
:100FF00000F1200555F826504E07F70E0F26BE408B
:10100000B543CF1000F1200646F82750CE1000F16E
:10101000200555F8265045EA0304CE1000F12005BE
:1010200045F82640F0BD41837047018370470000BA
:1010300009A100200BE00A5C124B9A8000BF114A04
:10104000128802F04002002AF9D0421CD0B22A28AD
:10105000F1D300BFFEE700000D0A456E74657220F3
:10106000486172644661756C745F48616E646C655A
:10107000722C2053797374656D2048616C742E0D49
:101080000A0000000010014017B585B00446009426
:10109000002001908DF809008DF8080008208DF8D7
:1010A0000A00A8208DF80B0000218DF80C109DF887
:1010B00018108DF80D109DF819108DF80E109DF870
:1010C0001C108DF80F109DF81D108DF810109DF854
:1010D0001E108DF811109DF81F108DF81210694622
:1010E0000248FFF71EFE08B010BD00000068004077
:1010F00000B587B00121084600F08AFA01211020CE
:1011000000F0B6FA072209212248FFF769FF0722FB
:101110000A212048FFF764FF00208DF81A00012003
:101120008DF81B0002208DF81800000205900220A7
:101130008DF8190005A91748FFF70AFF02208DF85E
:1011400018004002059005A91248FFF701FF4FF46F
:10115000E13001900020ADF80800ADF80A00ADF8CC
:101160000C00ADF810000C20ADF80E0001A90A48E3
:1011700000F008FD012240F22551074800F0DDFC97
:101180000121054800F0A3FC4021034800F096FC33
:1011900007B000BD00000240001001400448006993
:1011A00000F0100008B9012070470020FCE70000A3
:1011B000001002400448006900F0080008B901204E
:1011C00070470020FCE7000000100240044800695E
:1011D00000F0010008B9002070470120FCE7000082
:1011E000000002401CB50121092000F011FAC020C6
:1011F000009001208DF8040000208DF806000320E7
:101200008DF8050001208DF8070069460F48FFF7AB
:101210009FFEC0210D48FFF708FF4FF4A06000902B
:1012200001208DF8040000208DF8060003208DF8C1
:10123000050001208DF8070069460548FFF788FE84
:101240004FF4A0610248FFF7EEFE1CBD0000024013
:10125000000C024000BFFEE710B500244FF4FA6016
:1012600001F052FC0F48006800F032F9642001F0F0
:101270004BFC00210B48006800F052F99FED0A0A70
:101280000A4880ED120A9FED080A80ED130A00203B
:101290000649A1F8500001F05BFE4FF4FA7001F02E
:1012A00033FC10BD280000200000000000010020D9
:1012B0002DED028B82B0F8E001F06CFA0446002CB0
:1012C0002BDD012C04D0042C11D0072C23D11DE0E0
:1012D0007648007850B901207449087001027448BA
:1012E000FFF7A3FE4FF4FA7002F0DAFC14E06F4847
:1012F000007850B902206D490870C1016C48FFF7B1
:1013000092FE4FF4FA7002F0CBFC05E069480068E9
:1013100000F04CFA00E000BF00BF674800780028EA
:1013200068DD65480078012804D002282DD0032804
:101330005BD155E05D48007830BB01205B49087007
:1013400001025B48FFF771FE00215A48006800F077
:10135000E7F800205949A1F850004FF4FA7002F064
:101360009FFC64225648018852480068FFF78CFEB3
:1013700003F0C2FC064600200346324601210090DD
:101380005048006803F04AFF30E04848007830BB1E
:10139000022046490870C1014548FFF744FE00217C
:1013A0004448006800F0BCF800204449A1F850000F
:1013B0004FF4FA7002F074FC6422414801883D4801
:1013C0000068FFF761FE03F097FC06460020034625
:1013D0003246012100903B48006803F01FFF05E002
:1013E0003448006800F0E2F900E000BF00BF0020D0
:1013F000314908702D480078F0B3002003460122DF
:10140000032100903048006802F03AFF054605F0DD
:10141000010088B34FF480612548FFF706FE0120E4
:1014200002F03EFC4FF480612148FFF7FCFD2348A9
:10143000B0F85000401C2149A1F85000084690ED3A
:10144000110A10EE101A0846FEF73CFF41EC180B8B
:101450001A48808900901948B0F8501053EC182BA6
:101460001A4800F0CBFC1548B0F85000B0F5B47F36
:1014700009DA6422124800E014E001880D4800688F
:10148000FFF702FE0EE000200C49A1F850000346D1
:101490000246032100900B48006803F0BFFE0020C5
:1014A00002490870052002F0FBFB05E72E00002032
:1014B000000C0240280000202F0000200001002026
:1014C0002C0000201000002020000020A052000866
:1014D00010B586B004460194002002908DF80D00EE
:1014E0008DF80C0008208DF80E0088208DF80F0074
:1014F00000218DF810108DF811108DF812108DF854
:1015000013108DF814108DF815108DF8161001A910
:101510000248FFF706FC06B010BD0000006800405E
:1015200013B586B004460194002002908DF80D009A
:101530008DF80C0008208DF80E00A3208DF80F0008
:1015400000218DF810108DF811108DF812109DF8F3
:101550001C108DF813109DF81D108DF814109DF8B7
:101560001E108DF815109DF81F108DF8161001A98A
:101570000248FFF7D6FB08B010BD0000006800402D
:101580007047000070B5002100230F22C4781CB3FF
:10159000174C246804F4E064C4F5E064C4F3072144
:1015A000C1F10404E3B20A4144789C40E1B284787A
:1015B000144021430C07210E0E4C05786155047828
:1015C00004F01F050124AC4005786D11AD0005F154
:1015D000E025C5F8004109E0047804F01F05012466
:1015E000AC40054D0678761145F8264070BD0000E8
:1015F0000CED00E000E400E080E100E0024901437E
:10160000024A1160704700000000FA050CED00E08E
:1016100029B1064A12680243044B1A6004E0034AE7
:1016200012688243014B1A60704700003038024054
:1016300029B1064A12680243044B1A6004E0034AC7
:1016400012688243014B1A60704700004038024024
:1016500029B1064A12680243044B1A6004E0034AA7
:1016600012688243014B1A60704700002038024024
:1016700029B1064A12680243044B1A6004E0034A87
:1016800012688243014B1A607047000044380240E0
:10169000F0B5002100220024022500260223324F4B
:1016A0003F6807F00C0121B1042905D0082937D182
:1016B00005E02E4F076036E02D4F076033E02A4FDC
:1016C0003F1F3F68C7F38056274F3F1F3F6807F013
:1016D0003F036EB1264FB7FBF3F7DFF88CC0ACF1D8
:1016E000040CDCF800C0CCF3881C07FB0CF40CE005
:1016F0001E4FB7FBF3F7DFF870C0ACF1040CDCF859
:1017000000C0CCF3881C07FB0CF4174F3F1F3F6849
:10171000C7F301477F1C7D00B4FBF5F7076002E0CB
:10172000124F076000BF00BF0F4F3F6807F0F00186
:101730000909104F7A5C0768D74047600A4F3F6835
:1017400007F4E051890A0B4F7A5C4768D7408760FD
:10175000054F3F6807F46041490B064F7A5C4768C4
:10176000D740C760F0BD0000083802400024F400F4
:1017700000127A00420000201CB501210220FFF770
:1017800047FF01208DF8040000208DF806008DF839
:10179000070003208DF805000420009069460248E8
:1017A000FFF7D6FB1CBD00000004024010B586B058
:1017B00004460194002002908DF80D008DF80C0075
:1017C00008208DF80E0090208DF80F0000218DF874
:1017D00010108DF811108DF812108DF813108DF86F
:1017E00014108DF815108DF8161001A90248FFF796
:1017F00098FA06B010BD00000068004030B5002225
:101800008B071C0F0F2303FA04F20B4B8C1053F8B9
:1018100024309343084C8D1044F8253023468C1017
:1018200053F824308C07240F00FA04F42343024CAD
:101830008D1044F8253030BD083801400CB500202B
:10184000019000903448006840F4803032490860CC
:1018500000BF3148006800F4003000900198401C3F
:101860000190009818B90198B0F5A04FF1D12A481D
:10187000006800F4003010B10120009001E0002069
:1018800000900098012846D123484030006840F07D
:1018900080502149403108602048006840F44040B1
:1018A0001E4908601C48083000681B490831086060
:1018B0000846006840F4004008600846006840F4AC
:1018C000A05008601648091F0860081F006840F013
:1018D0008070091F086000BF0F48006800F00070AA
:1018E0000028F9D040F205700E4908600A48083017
:1018F000006820F0030008490831086008460068C5
:1019000040F00200086000BF03480830006800F0A3
:101910000C000828F8D10CBD0038024000700040CF
:1019200008544007003C0240042808D14FF0E02151
:10193000096941F004014FF0E022116107E04FF026
:10194000E021096921F004014FF0E02211617047A4
:1019500010B500BF1020EFF3118180F31188BFF3A1
:101960004F8FBFF36F8F00BF03F0CCF918B14FF06A
:10197000805003490860002080F3118800BF10BD2B
:1019800004ED00E070B500200022022300240221B3
:10199000274D2D6805F00C0020B1042806D008283A
:1019A00034D107E0234D244E356033E0234D224EE1
:1019B00035602FE01E4D2D1F2D68C5F380541C4D42
:1019C0002D1F2D6805F03F0154B11C4DB5FBF1F5FD
:1019D000174E361F3668C6F3881605FB06F209E077
:1019E000144DB5FBF1F5124E361F3668C6F3881656
:1019F00005FB06F20E4D2D1F2D68C5F301456D1C2C
:101A00006B00B2FBF3F50C4E356003E0094D0A4E56
:101A1000356000BF00BF064D2D68C5F30315084EA5
:101A2000705D054D2D68C540034E356070BD0000EA
:101A3000083802400024F4005400002000127A000C
:101A40005800002010B51548006840F47000134994
:101A500008601348006840F0010011490860002048
:101A60000F49083108600E4800680E4908400C49CB
:101A700008600D48091D0860081F006820F48020D8
:101A8000091F0860002006490C310860FFF7D6FEE8
:101A90004FF0006001498039086010BD88ED00E01A
:101AA00000380240FFFFF6FE1030002410B5024857
:101AB00000F0DBF810BD00008801002001F4007286
:101AC000B2F5007F00D100BFCA430280704721B148
:101AD000828942F40052828104E082894DF6FF73CC
:101AE0001A408281704770B5024600240023002509
:101AF000002040F66A16B14200D100BFC1F3421582
:101B000001F01F03012606FA03F3012D02D1968985
:101B1000334006E0022D02D1168A334001E0968A56
:101B200033400C12012606FA04F41688344013B12F
:101B30000CB1012000E0002070BDF0B50346002488
:101B400000260025002040F66A17B94200D100BFE8
:101B50001846C1F3421401F01F06012707FA06F5E3
:101B6000012C01D10C3004E0022C01D1103000E036
:101B700014301AB107682F43076002E00768AF43CB
:101B80000760F0BD2DE9FF4705460E460024A1463B
:101B900000BFA046B08900B100BF2C8A24F4405495
:101BA000F08804432C82AC8941F20C608443B088F5
:101BB00031890843718908430443AC81AC8A24F419
:101BC0004074B0890443AC826846FFF761FD204849
:101BD000854202D01F48854202D1DDF80C9001E019
:101BE000DDF80890A88900F4004040B109EBC90075
:101BF00000EB091031684900B0FBF1F707E009EB91
:101C0000C90000EB091031688900B0FBF1F76420CE
:101C1000B7FBF0F004012009642101FB1078A889CA
:101C200000F4004040B1322000EBC800B0FBF1F0FE
:101C300000F00700044308E0322000EB08106421A4
:101C4000B0FBF1F000F00F0004432C81BDE8FF87EA
:101C5000001001400014014001468888C0F30800CC
:101C60007047C1F308028280704770B5044640F2A5
:101C700025512068FFF737FFE0B12068FFF7ECFF40
:101C8000C5B2E18AA0684554E08A401C80B2E08277
:101C9000E189884201DB0020E082608BE189884293
:101CA00002DA608B401C6083606A10B12846616A6A
:101CB000884700BF40F227712068FFF714FF08B380
:101CC000A08A60B9002240F227712068FFF735FF33
:101CD000012240F226612068FFF72FFF37E0638A78
:101CE0006268D15C2068FFF7BCFF608A401C80B24C
:101CF0006082A189884201DB00206082A08A401EA8
:101D0000A08224E040F226612068FFF7ECFEF0B1EB
:101D1000A08A50B9002240F226612068FFF70DFF2B
:101D2000206AA0B1206A804711E0638A6268D15CB2
:101D30002068FFF796FF608A401C80B26082A1890C
:101D4000884201DB00206082A08A401EA08270BD14
:101D5000F8B504460E461746002525E00CE001F0D4
:101D6000A5FEA08A009001F0CBFEA089BDF800106E
:101D7000884200DD01E000BFF1E700BF705D228A0C
:101D80006168885401F092FE208A401C80B2208253
:101D9000A189884201DB00202082A08A401CA08209
:101DA00001F0AEFE681C85B2BD42D7DB012240F2D5
:101DB00027712068FFF7C1FEF8BD00000A480B49F3
:101DC00008600B4848600B4888604FF48060888149
:101DD000C881002008824882C8820883488388829C
:101DE000C861086248627047001001408801002005
:101DF000B0010020B005002000BFFEE70FB4054B86
:101E000010B503A9044A029800F0DAF810BC5DF896
:101E100014FB00008D2B0008D400002002E008C84D
:101E2000121F08C1002AFAD170477047002001E054
:101E300001C1121F002AFBD1704700002DE9FF5F8E
:101E400082B00021DDE90430020DDDF840B003432B
:101E500018D044F61050A2F2FF32424315141198E4
:101E600001281FD0A5EB0B00401C5FEA000A4FF0D1
:101E700000064E4FDFF83891B046504615D5CAF1EE
:101E8000000413E0119801244AA3012801D16FEA4C
:101E90000B010298119AC0E90031C0E9024206B074
:101EA000BDE8F09FCBF10000DFE704460021404A87
:101EB000491842EB0450CDE9001012E0E00707D0CA
:101EC00032463B4640464946FEF7FDFA8046894683
:101ED00032463B4610461946FEF7F5FA06460F46CF
:101EE0006410002CEAD1DDE90401DDE90023BAF138
:101EF000000F06DAFEF7E7FA42464B46FEF7E3FA32
:101F000005E0FEF752FB42464B46FEF74EFB044609
:101F10000E460022284BFEF7CFFB03D84FF0FF30D0
:101F2000014607E00022254B20463146FEF724FA01
:101F3000FEF7AAFB102409E0002C0ADB0A2200238A
:101F4000FEF7E9F9039B30321A55641E50EA01028C
:101F5000F2D1641C039AC4F111031444119A012AAA
:101F600003D0012208430DD10AE0084304D0002029
:101F70004FF0110B119072E7A3EB0B056D1E0DE0F6
:101F80005B4504DD4FF0000205F1010504E003DAD2
:101F90004FF00002A5F10105002AECD0029811993A
:101FA000C0E90231C0E9004579E7000000001440B3
:101FB0000000F03F300000000000F0430000E03F70
:101FC0002DE9FF4F95B09A46884606460025EEE17A
:101FD000252877D100242746F94A0121039400E0FF
:101FE000044316F8013F203B01FA03F01042F7D1F9
:101FF00030782A2811D06FF02F033078A0F130020A
:10200000092A16D8039A44F0020402EB820203EB79
:1020100042021044761C0390EFE758F8042B039219
:10202000002A03DA504244F40054039044F00204BE
:10203000761C30782E2816D116F8010F44F00404CF
:102040002A280DD06FF02F023078A0F13003092B31
:1020500009D807EB870302EB4303C718761CF3E7A5
:1020600058F8047B761C30786C280FD006DC4C289E
:1020700017D068280DD06A2814D104E0742810D035
:102080007A280FD10DE044F400140AE044F48014DF
:1020900001E044F440147278824202D104F58014C5
:1020A000761C761C307866280BD013DC582877D045
:1020B00009DC002875D04528F6D04628F4D04728FA
:1020C0001AD193E118E0632835D0642879D06528C7
:1020D00012D18BE1702873D008DC6728F1D0692811
:1020E0006FD06E280DD06F2806D1ACE073282CD0AD
:1020F000752874D0782853D05246179990476D1C94
:1021000054E1C4F30250022809D003280DD0D8F8B6
:10211000001004280DD00D6008F1040846E1D8F83D
:102120000010EA17C1E90052F6E7D8F800100D8058
:10213000F2E70D70F0E718F8041B8DF8001000208E
:102140008DF80100EB46012003E058F804BB4FF086
:10215000FF3061074FF0000102D40DE009F10101E9
:102160008946B9420FDA8145F8DB1BF809100029CE
:10217000F4D108E009F1010189468142FADB1BF83C
:1021800009100029F6D103985346A0EB0907214610
:102190003846179A00F080FA284400EB090507E05A
:1021A00044E008E10DE01BF8010B524617999047F7
:1021B000B9F10109F7D2534621463846179AF2E0A1
:1021C00039E00A21C4F302524FF0000B0091022AB9
:1021D00006D058F8040BC117032A09D00AE023E0FF
:1021E00008F1070020F00702F2E80201904605E03E
:1021F00000B2C117042A01D140B2C117002906DA82
:102200000A460021404261EB02012D2202E0220534
:1022100004D52B228DF80420012203E0E20701D02F
:102220002022F7E7914657E00A2100E010214FF005
:10223000000B00910BE010214FF0000B44F0040460
:102240000827009103E008204FF0000B0090C4F332
:102250000252022A05D058F8040B0021032A08D0A4
:1022600008E008F1070020F00702F2E802019046BA
:1022700003E080B2042A00D1C0B24FF00009220767
:102280002AD53278702A07D0DDF800C08CF0100C07
:102290005CEA0B0C05D00EE040228DF804200122F0
:1022A00008E050EA010306D030238DF804308DF8A1
:1022B000052002229146009B83F0080353EA0B039A
:1022C0000AD150EA010201D1620705D530228DF80A
:1022D00004204FF001097F1E3278582A04D039A219
:1022E0000C920CAA02920BE03BA2F9E75B46009A23
:1022F000FEF711F80C9B9B5C029A521E029213701F
:1023000050EA0102F2D1029804A9081A00F1200B48
:10231000600702D524F4803400E001275F4502DD28
:10232000A7EB0B0000E0002000EB0B0100900398EE
:102330004944401A0390E00306D453462146179AB5
:10234000039800F0A9F90544002706E001A85246C9
:10235000C05D179990476D1C7F1C4F45F6DBE0036D
:102360000CD553462146179A039800F095F9054479
:1023700004E030205246179990476D1C0099481E82
:1023800000900029F5DC08E0029802995246007896
:10239000491C0291179990476D1CBBF10001ABF1EC
:1023A000010BF1DC5BE100F065F90544761C307847
:1023B00000287FF40DAE19B02846BDE8F08F00006C
:1023C000092801003031323334353637383961620B
:1023D00063646566000000003031323334353637CF
:1023E000383941424344454600000000600700D4AC
:1023F000062708F1070020F00700F0E802238046D6
:1024000003F0004C5FEA0C0001D097A009E0200522
:1024100001D596A005E0E00701D095A001E0AFF25C
:102420004C001390307823F0004365280CD006DC74
:10243000452809D046281DD047287FD13BE0662893
:1024400018D067287AD136E00021112F01DB112046
:1024500000E0781CCDE9000104A90CA8FFF7EEFC10
:10246000DDE90D010C9A4FF0000B07F10109109204
:1024700000914EE04FF000400097CDE9011004A913
:102480000CA8FFF7DBFCDDE90D020C9B0F994FF068
:10249000000B91461093009211B9791C00EB0109D1
:1024A000B7EB090003D4C0F1FF3B07F10109A9EB29
:1024B0000700019042E0012F00DA01270021112FCF
:1024C00001DD112000E03846CDE9000104A90CA887
:1024D000FFF7B4FCDDE90D010C9A00914FF0000B01
:1024E000B946109221070FD4009A4A4503DA914663
:1024F00001E0A9F10109B9F1010F05DD109AA9F177
:102500000101515C3029F4D0B84202DA10F1040F15
:1025100003DA0121CDE9011010E0002803DC834437
:10252000A9EB000102E0411C494500DD8946A0EB12
:102530000B00401C01904FF000400290200705D492
:102540000198484502DB4FF0FF30019000208DF8E4
:102550004B0002980DF14B07B0F1004F25D002203F
:102560000C902B200D90029800280CDA404202902B
:102570002D200D9007E00A210298FDF7B6FE3031BC
:10258000029007F8011D0C99481E0C900029F2DCFE
:1025900002980028EFD1791E0D980870307800F06D
:1025A000200040F0450007F8020D11A8C01BC01D17
:1025B00002901398007800B1012000EB0901019806
:1025C00001EBE071029801440398401A401E039009
:1025D000E00306D453462146179A039800F05CF8AE
:1025E00005441398007818B15246179990476D1C0E
:1025F000E00323D553462146179A039800F04CF880
:1026000005441BE0BBF1000F07DB0098584504DDD3
:102610001098179910F80B0001E0179930205246D6
:10262000904701980BF1010B401E05F10105019047
:1026300004D12E205246179990476D1CB9F1000124
:10264000A9F10109DEDC05E017F8010B52461799E4
:1026500090476D1C0299481E02900029F4DC5346F5
:102660002146179A03989EE62D0000002B000000DB
:10267000200000002DE9F041044600251E461746C3
:10268000880404D405E039462020B0476D1C641E40
:10269000F9D52846BDE8F0812DE9F0410446002532
:1026A0001E469046C80301D5302700E02027880445
:1026B00004D505E041463846B0476D1C641EF9D587
:1026C0002846BDE8F081000070B50546304800EBB3
:1026D00005142068804700283ED02079012802DABE
:1026E0000120207152E02079022803DA2079401C71
:1026F00020714BE0A07A38B90120A07205EB4501AA
:10270000491CC8B200F09AF9208900283EDDE08813
:10271000218988420DDAE088401C80B2E08021895E
:10272000884233D105EB4501C91CC8B200F086F9D7
:102730002CE0E07A002829DD207B401CC0B2207309
:10274000E17A884222DB0020207305EB4501491C19
:10275000C8B200F073F919E02079012802DD0120E8
:10276000207110E0207918B12079401E20710AE014
:10277000A07A012807D10020A07205EB4501891C31
:10278000C8B200F05BF90020E080207370BD00004B
:10279000580100200B48C0780A4A1279904201D1B2
:1027A000002070470748C078064A115C1046C07880
:1027B000401CC0B2D070032801DB0020D070084656
:1027C000EFE700003C00002010B54FF44070FEF72A
:1027D00015FFFFF7D7F8A82000F078F900F0F4F81B
:1027E00005A0FFF70BFB00F081F800F0E3F800F024
:1027F00009F8FEF731FD10BD696E6974204F4B2159
:102800000D0A000000B589B001210220FEF700FF8B
:1028100009220C213348FEF7E3FB09220D21314840
:10282000FEF7DEFB4FF48050079002208DF8200069
:102830008DF8210000208DF8220001208DF8230062
:1028400007A92848FEF784FB4FF40050079007A91A
:102850002448FEF77DFB01214806FEF7E9FE012131
:102860008806FEF7E5FE2048FEF7B0F800208DF858
:1028700016008DF817008DF818008DF819008DF8E6
:102880001A008DF81B008DF812008DF813000B2034
:102890008DF8140007208DF815000220ADF8100007
:1028A00004A91148FEF73BF90E208DF80A0000201C
:1028B0008DF80B0001208DF80C000020ADF8000011
:1028C000ADF80200ADF80400ADF80600ADF8080060
:1028D00001208DF80D006846FEF794F800F0BEF870
:1028E00009B000BD000402400068004010B500F0CF
:1028F0002DF800F001F810BD1CB501211120FEF7E4
:1029000087FE00208DF804008DF8060001208DF868
:10291000070002208DF80500102000906946094844
:10292000FEF716FB0820009069460648FEF710FBEC
:1029300002208DF807000120009069460248FEF74A
:1029400007FB1CBD00100240000002400021144A99
:10295000D17011715171002017E06421114A02EB0E
:102960000012118100210F4A02EB001211710D4A71
:1029700002EB001291720B4A02EB0012D172094A6B
:1029800002EB00121173411CC8B20328E5DB0649B3
:10299000044A116005491161054911627047000040
:1029A0003C000020580100209D110008B5110008CE
:1029B000CD11000810B5FEF715FC012000F01AF843
:1029C000022000F017F810BD10B5FFF7F7F9FEF779
:1029D0008FFBFEF7D1FEFEF753FA10BD10B50024B1
:1029E00004E02046FFF770FE601CC4B2032CF8DB45
:1029F00010BD000010B50446012C04D1402105484B
:102A0000FEF713FB05E0022C03D180210148FEF7FD
:102A10000CFB10BD0000024010B50446012C04D18F
:102A200040210548FEF7FFFA05E0022C03D1802182
:102A30000148FEF7F8FA10BD000002400649097986
:102A4000054A505411460979491CC9B2117103292C
:102A500001DB0021117170473C00002008B54020C7
:102A60008DF8000001208DF8010000208DF8020093
:102A700001208DF803006846FEF784FD0122022143
:102A80000148FEF743F808BD006800402DE9F04119
:102A900005460E4617462846FEF7D6F904460CB9F9
:102AA000BDE8F081E06908B1E06980473A46314607
:102AB0002046FFF74DF900BFF2E713B504460122A7
:102AC00001A92046FFF7E2FF1CBD000010B5044637
:102AD0006FF00400FEF728FFE11704EB5171C1F31A
:102AE000C701074A11701046007800EB4001C1EBA6
:102AF000C0104FF6FF7101EAC0000249088010BD06
:102B0000340000203600002070B504464FF40770F2
:102B100094FBF0F0C6B24FF4077094FBF0F100FBA9
:102B2000114085B205E04FF4077000F009F8701EFF
:102B3000C6B2002EF7D115B1284600F001F870BDDD
:102B40000146114A12884A434FF0E0235A6100229D
:102B50009A611A46126942F001021A6100BF4FF0F1
:102B6000E022106900F001021AB100F48032002A5C
:102B7000F5D04FF0E022126922F001024FF0E0237D
:102B80001A6100229A6170473600002070B5044631
:102B90000D46E1B20020FFF790FF204670BD0120F6
:102BA00080F3108800BFFDF77DFEFDF73DFEFFF7C7
:102BB0000BFE01F04BFA00BFFEE700000FB4F8B5C2
:102BC00000259DF823009B2849D01CDC90287CD050
:102BD0000CDC812861D004DC192877D0802876D1DC
:102BE00059E0882858D08C28F9D157E094286FD024
:102BF00004DC91286DD09228F1D150E1952869D05C
:102C00009A28ECD10FE09C38162860D2DFE800F05B
:102C10004C5F5F5F4D5F4E4F50515253545F5F5F4B
:102C20005F5F5F5F78AC06A8007B40B2BF49087069
:102C300006A8417B807B01EB002000B2BB494880A5
:102C400006A8C17B007C01EB002000B2B749888058
:102C500006A8407C887106A8807CC87162E106A83D
:102C6000007B40B2B149087006A8417B807B01EB34
:102C7000002000B2AD49488006A8C17B007C01EB72
:102C8000002000B2A949888006A8407C887106A867
:102C9000807CC87146E145E144E143E106A8007B40
:102CA000A24981F840003DE100BF00BF00BF00BF66
:102CB00000BF00BF00BF00BF06A8007B40B29B4919
:102CC000087006A8417B807B05E081E0DFE028E119
:102CD00016E1DBE024E101EB002000B2934908811A
:102CE00006A8C17B007C01EB002000B28F4948811F
:102CF00006A8417C807C01EB00208C49888111E191
:102D000006A8007B102804D012280BD0142829D143
:102D100018E006A8C17B007C01EB002000B28349CB
:102D200088841FE006A8C17B007C41EA002106A838
:102D3000407C41EA004106A8807C41EA00607B4972
:102D400088620FE006A8C17B007C41EA002106A84A
:102D5000407C41EA004106A8807C41EA006073495A
:102D6000C86200BF00BFDDE006A8007B102804D0C9
:102D700012280BD0142829D118E006A8C17B007CAA
:102D800001EB002000B2694988841FE006A8C17BDE
:102D9000007C41EA002106A8407C41EA004106A8E7
:102DA000807C41EA0060614988620FE006A8C17B2F
:102DB000007C41EA002106A8407C41EA004106A8C7
:102DC000807C41EA00605949C86200BF00BFA9E0A9
:102DD00006A8417B807B41EA00205449888106A8EF
:102DE000C17B007C41EA00205049088206A8417C52
:102DF000807C41EA00204D4948820846808900EEE7
:102E0000100AB8EE400ADFED4A0A20EE200ADFED94
:102E1000490A80EE201A084680ED111A46480078CB
:102E200048B3084690ED110AD0ED120A30EE600A60
:102E300080ED130A90ED130ADFED400AB4EEE00ACC
:102E4000F1EE10FA0CDA90ED130ADFED3D0A30EEE8
:102E5000C00ADFED3C0AB4EEE00AF1EE10FA0BDD39
:102E600001213948006801F0A4F904462F4890ED8B
:102E7000110A80ED120A08E00020034602460321F1
:102E800000903248006802F0C9F94BE04AE006A819
:102E9000417C807C01EB00202449488242E006A866
:102EA000007B002306A94A7B190241EA126116023F
:102EB0001A4640EA060342EA010006A98A7B00217D
:102EC000090441EA124643EA0241304306AAD37B91
:102ED0000022120642EA132641EA036240EA060192
:102EE00006A8007C014306A8407C03021046194353
:102EF00006AA927C41EA02410C4AC2E9060111E0AD
:102F000006A8C17B007C41EA002106A8407C41EA7A
:102F1000004106A8807C41EA00600449086201E0A3
:102F200000E000BF00BFF8BC5DF814FB000100200A
:102F30000000B443000000472E0000206666663F94
:102F40000000000000004843200000201000002086
:102F500000B585B001210420FEF75AFB012188034A
:102F6000FEF786FB2020039000208DF81000012042
:102F70008DF8120003208DF8110002208DF8130047
:102F800003A91348FDF7E4FF05210220FEF736FCF4
:102F90002020009001208DF8060000208DF804000C
:102FA00008208DF805006846FDF788FF17208DF88A
:102FB000080001208DF80B0002208DF80900002088
:102FC0008DF80A0002A8FEF7DDFA05B000BD00008A
:102FD0000008024010B504460E48006844600E48E0
:102FE0000068844207D20B480168091D0B4800683D
:102FF00000F036FD0CE007480168091D084800682C
:1030000000F02EFD07480068844201D205480460A4
:1030100010BD0000680000207C000020700000202F
:103020006C000020980000202DE9F04105460F4675
:103030001FB9A80000F020FC00E03846064656B153
:103040005C2000F019FC04460CB1266304E0304615
:1030500000F074FD00E0002424B1A900A522206B3B
:10306000FDF71EF92046BDE8F081000010B500F024
:103070001DFD1348006800BB124800F0E1FC124837
:1030800000F0DEFC0F48114908600F481049086045
:10309000002210210A2001F075FA0949086008464B
:1030A000006850B900BF102080F31188BFF34F8F24
:1030B000BFF36F8F00BF00BFFEE700F021FD10BD22
:1030C000A80000208C0A0020A00A0020A0000020F8
:1030D000A400002070B523E000F0FCFF1348006856
:1030E00008B9012000E00020054601F0B9FFBDB994
:1030F00000F0DCFC0D48C068C468201D00F07EFCB8
:103100000B480068401E0A4908600A480068401ED3
:103110000849086000F0F4FC204600F062F800BFA7
:10312000044800680028D7D170BD0000640A002060
:10313000780000207400002070B504460D46206C15
:1031400070B1216CE0680844E0606168E068884222
:1031500001D32068E0602846226CE168FDF78EF814
:1031600070BD2DE9F04104460E4615460027206C3F
:1031700040B9206878BB606801F06AFE074600200D
:10318000606028E07DB93146226CA068FDF776F8D2
:10319000216CA0680844A060D4E9011088421AD3C9
:1031A0002068A06017E03146226CE068FDF766F801
:1031B000216CE068401AE0602168E068884203D230
:1031C000216C6068401AE060022D04D1A06B10B140
:1031D000A06B401EA063A06B401CA0633846BDE8F6
:1031E000F08110B50446206B00F0A8FC204600F0EA
:1031F000A5FC10BD0146084A126812680AB90122EE
:1032000000E000220A600A6822B9034A1268D26804
:10321000106800E000207047A000002030B54FF497
:10322000F043174800F007042CB1C01D20F0070040
:10323000134C041B1B1B0246124C22600024114D30
:103240006C60D018083820F007000F4C2060002474
:103250000D4D2D686C600C4D2D682C601146441A84
:103260004C60094C24680C60084D4C682C60084D7B
:103270004C682C604FF00044064D2C6030BD0000BF
:10328000B40A0020B0000020B8000020C0000020D8
:10329000BC000020C400002000BFFFF71BFF064851
:1032A00000680128F9D94FF0805004490860BFF345
:1032B0004F8FBFF36F8FF0E7B009002004ED00E0FF
:1032C0002DE9F04704460F4615469946DDF8208063
:1032D000002607E0B95D04F134008155B85D00B9FE
:1032E00002E0761C102EF5D300BF002143200155CB
:1032F000062D00D30525E562E56400202065201D2C
:1033000000F0ABFB04F1180000F0A7FB2461C5F14D
:103310000600A06164620020606584F85800BDE882
:10332000F087000010B5002407E004EB84010F4A89
:1033300002EB810000F084FB641C062CF5D30C48E2
:1033400000F07EFB0B4800F07BFB0B4800F078FBA5
:103350000A4800F075FB0A4800F072FB044809496E
:10336000086004480849086010BD0000B00900204A
:10337000280A00203C0A0020500A0020640A00208D
:10338000780A00206C0000207000002010B5014673
:10339000164800E0006803688B42FBD3024643688E
:1033A00013448B4204D143684C6823444360014674
:1033B0000A464B6813440468A34211D10C4C0368BD
:1033C0002468A34208D04B680468646823444B60B7
:1033D00003681B680B6005E0054B1B680B6001E090
:1033E00003680B60884200D0016010BDB00000206F
:1033F000B80000202DE9F04104460D4616461F4650
:103400004FF0000865602461B5420CD8F01BA1693B
:10341000884202D34FF0010811E0211D09480068DD
:1034200000F01EFB0BE0BE4204D2BD4202D34FF0BF
:10343000010804E0211D0448006800F011FB40462B
:10344000BDE8F081A4000020A000002070B5054672
:1034500000F02CFBA86B08B9012400E0002400F068
:103460004FFB204670BD70B5054600F01FFBA86BF2
:10347000E96B884201D1012400E0002400F040FB08
:10348000204670BDF8B505460F4616480068C0686E
:10349000C468201D00F0B2FAE06901281ED1A069BD
:1034A00041192B463A462046FFF7A4FF012815D1C3
:1034B000002003462A4601460090204601F0AEFE59
:1034C000064656B900BF102080F31188BFF34F8F16
:1034D000BFF36F8F00BF00BFFEE700BF2046616AE9
:1034E0008847F8BDA0000020F0B587B080E00398C1
:1034F000002811DA04AE56B900BF102080F31188FD
:10350000BFF34F8FBFF36F8F00BF00BFFEE7D6E959
:103510000020B168904700BF0398002868DB059C35
:10352000606908B9012000E0002010B9201D00F0FA
:1035300065FA02A800F0BEF8054603980A2855D29D
:10354000DFE800F00905073234500608333500BFC4
:1035500000BF00BF00BF0498A269811803462A4635
:103560002046FFF747FF01281DD12046616A8847A2
:10357000E069012817D1002000900498A169421841
:1035800000231946204601F049FE074657B900BFFF
:10359000102080F31188BFF34F8FBFF36F8F00BFF0
:1035A00000BFFEE700BF22E000BF20E000BF04989C
:1035B000A061A06908B1012000E0002050B900BF5F
:1035C000102080F31188BFF34F8FBFF36F8F00BFC0
:1035D00000BFFEE7A06941192B462A462046FFF7A7
:1035E00009FF04E0204600F0A9FA00E000BF00BF98
:1035F00000231A4603A90448006801F007F80028D0
:103600007FF475AF07B0F0BDA8000020F8B50546FF
:103610000C4600F05FFD684600F04CF80646009846
:1036200020BB44B9B54206D801F01AFD3146284600
:10363000FFF728FF1CE03CB10E480068006808B99D
:10364000012000E000200446A91B22460A48006829
:1036500000F004FB01F004FD50B94FF08050074921
:103660000860BFF34F8FBFF36F8F01E001F0F8FCEC
:10367000F8BD0000A4000020A800002004ED00E038
:103680000A490968096809B9012100E0002121B14E
:103690004FF0FF31064A116006E004490968C96825
:1036A000C868034A41681160704700006C00002040
:1036B0009800002070B5044601F01EFB054607483F
:1036C0000068854204D200F00BF80120206001E080
:1036D0000020206001480560284670BDAC00002035
:1036E0002DE9F84332E024480068C06805682248A4
:1036F0000068C068C468201D00F080F92046616A37
:103700008847E069012821D1A0694619AE4207D94E
:1037100066602461211D1848006800F0A1F915E0D9
:10372000002003462A4601460090204601F076FD1F
:10373000074657B900BF102080F31188BFF34F8FA1
:10374000BFF36F8F00BF00BFFEE700BF0A480068ED
:10375000006808B9012000E000200028C3D0064816
:10376000D0F8008005480068034908600348C0F8A5
:103770000080BDE8F8830000A0000020A400002025
:103780000E480068401C08B9012000E0002050B934
:1037900000BF102080F31188BFF34F8FBFF36F8FEE
:1037A00000BF00BFFEE700BF102080F31188BFF309
:1037B0004F8FBFF36F8F00BF00BFFEE7C800002030
:1037C00010B50346002022B903EA010434B10120F8
:1037D00004E003EA01048C4200D1012010BD08B5C9
:1037E00000BF6846FFF706FD044620460099FFF734
:1037F0000DFFFFF779FEF4E710B5044600F056F927
:1038000011E0606A08B9012000E0002038B904F135
:10381000240001F081FB18B100F0A8FA00E005E0F7
:10382000A06C401EA064A06C0028EADC00BF4FF032
:10383000FF30A06400F064F900F038F911E020696D
:1038400008B9012000E0002050B904F1100001F097
:1038500063FB08B100F08AFA606C401E606400E00F
:1038600002E0606C0028EADC00BF4FF0FF306064CB
:1038700000F046F910BD00002DE9F04104464FF07C
:10388000000800F027FC4648006808B9FFF7C6FCAE
:1038900044480068204000286BD1D4B1083404F0BB
:1038A0000700B0B104F00700C0F10800044404F0C0
:1038B000070008B9012000E0002050B900BF102027
:1038C00080F31188BFF34F8FBFF36F8F00BF00BF2E
:1038D000FEE7002C4DD034480068844249D8334E6E
:1038E0003046056801E02E462D686868A04202D285
:1038F00028680028F7D12A480068854239D0306806
:1039000000F10808286830606868001B102819D981
:103910002F1907F0070008B9012000E0002050B976
:1039200000BF102080F31188BFF34F8FBFF36F8F5C
:1039300000BF00BFFEE76868001B78606C60384617
:10394000FFF724FD184968680968081A16490860D5
:103950000846006816490968884203D21248006880
:10396000134908600F4968680968084368600020C7
:10397000286001F075FB08F0070008B9012000E09D
:10398000002050B900BF102080F31188BFF34F8F83
:10399000BFF36F8F00BF00BFFEE74046BDE8F08178
:1039A000B8000020C4000020BC000020B0000020AF
:1039B000C00000200648006830B10549096801F1DF
:1039C0005000096D491C0160014800687047000003
:1039D00068000020001F4FF080730360001F01602B
:1039E000001F054B036014380260001F6FF00203D4
:1039F00003602038704700008137000801460A69DB
:103A0000D1E901309860D1E90103586050688842DB
:103A100001D188685060002008611068401E106065
:103A20001068704705490968886904490968C96AC6
:103A3000C1F10601014A12689161704768000020D7
:103A400000F1080141604FF0FF31816000F1080191
:103A5000C160016100210160704700210161704770
:103A600010B502460B685C1C0CB9106907E002F146
:103A7000080000E04068446824689C42FAD9446821
:103A80004C604C68A160886041600A611468641CE5
:103A9000146010BD42684A6093688B6093685960F7
:103AA0009160086103685B1C0360704700BF1020D1
:103AB00080F31188BFF34F8FBFF36F8F00BF0E48A5
:103AC0000068401C0C49086008460068012812D1B3
:103AD0000A480068C0B208B9012000E0002050B9CF
:103AE00000BF102080F31188BFF34F8FBFF36F8F9B
:103AF00000BF00BFFEE77047C800002004ED00E0F3
:103B00000D48006850B900BF102080F31188BFF342
:103B10004F8FBFF36F8F00BF00BFFEE706480068FE
:103B2000401E054908600846006820B9002080F35F
:103B3000118800BF00BF7047C800002070B506465E
:103B40003546002E3FD0083D2C461F496068096865
:103B5000084008B1012000E0002050B900BF10204B
:103B600080F31188BFF34F8FBFF36F8F00BF00BF8B
:103B7000FEE7206808B9012000E0002050B900BF2E
:103B8000102080F31188BFF34F8FBFF36F8F00BFFA
:103B900000BFFEE70C4960680968084098B12068DA
:103BA00088B90949606809688843606000F092FA42
:103BB0000649606809680844044908602046FFF720
:103BC000E5FB01F04DFA70BDC4000020BC000020F0
:103BD00003484FF0E021486107200861704700006A
:103BE0003F90020070B5FCF733FB0446102C16D34F
:103BF00004F1E02090F8F05315480078854201DB8D
:103C0000012000E0002050B900BF102080F311888F
:103C1000BFF34F8FBFF36F8F00BF00BFFEE70D48AC
:103C2000006800F4E0600C490968884201D801206E
:103C300000E0002050B900BF102080F31188BFF3CE
:103C40004F8FBFF36F8F00BF00BFFEE770BD000056
:103C5000CC0000200CED00E0D00000202DE9F04168
:103C600005460E4617462C46FFF720FF606C401CA9
:103C700008B900206064A06C401C08B90020A06452
:103C8000FFF73EFFA06B28B93A46314604F1240005
:103C900000F0C8F82046FFF7AFFDBDE8F081000056
:103CA00070B5044600266CB31B48006808B90120B3
:103CB00000E0002050B900BF102080F31188BFF34E
:103CC0004F8FBFF36F8F00BF00BFFEE700F002FA17
:103CD00012480068051912480068001DFFF78EFEA3
:103CE00050B90F48006890F82C10012088400D4909
:103CF000096881430B4801602846FFF76BF901F022
:103D0000AFF906463EB94FF0805007490860BFF34F
:103D10004F8FBFF36F8F70BD9C0000207C00002090
:103D2000680000208000002004ED00E01BE00E4849
:103D3000007830B10120FEF76FFE0220FEF75AFE38
:103D400005E00120FEF756FE0220FEF765FE06485C
:103D5000007808B9012000E00020034908704FF402
:103D6000FA70FFF79DFFE2E72400002001200149DF
:103D7000086070478C00002086B012E000235A1EB5
:103D800001A90848006800F041FC0446012C05D157
:103D90000598009001A80FC8FEF710FF0520FFF757
:103DA0007FFFEBE71400002070B505460C4655B9BF
:103DB00000BF102080F31188BFF34F8FBFF36F8FC8
:103DC00000BF00BFFEE71348016818312846FFF71F
:103DD00047FE10480068001DFFF710FE50B90D485F
:103DE000006890F82C10012088400B490968814335
:103DF00009480160601C30B906480168091D074880
:103E0000FFF748FE05E00648006806193046FFF750
:103E1000E1F870BD6800002080000020780A0020D2
:103E20007C0000202DE9F04104460D46164654B9A9
:103E300000BF102080F31188BFF34F8FBFF36F8F47
:103E400000BF00BFFEE71448016818312046FFF7A5
:103E500021FE11480068001DFFF7D0FD50B90E4843
:103E6000006890F82C10012088400C4909688143B3
:103E70000A480160012E06D107480168091D08485B
:103E8000FFF708FE05E00748006847193846FFF7C6
:103E9000A1F8BDE8F081000068000020800000204B
:103EA000780A00207C0000202DE9F04105460E46EE
:103EB000144655B900BF102080F31188BFF34F8F0F
:103EC000BFF36F8F00BF00BFFEE71F48006808B157
:103ED000012000E0002050B900BF102080F31188BD
:103EE000BFF34F8FBFF36F8F00BF00BFFEE746F0F9
:103EF000004016490968886114480168183128464D
:103F0000FFF7C8FD11480068001DFFF777FD50B9A5
:103F10000E48006890F82C10012088400C49096870
:103F200081430B480160601C30B908480168091DD5
:103F30000848FFF7AFFD05E0074800680719384655
:103F4000FFF748F8BDE8F0819C00002068000020E1
:103F500080000020780A00207C00002070B5054613
:103F60002C46002D4BD02649E06A0968C96A884270
:103F700045D2A06900F0004028B921480068C06A15
:103F8000C0F10600A061E16A01EB81011D4A02EB6C
:103F900081016069884201D1012000E0002050B316
:103FA000201DFFF72BFD78B9E06A00EB8000154972
:103FB00051F8200040B994F82C1001208840124993
:103FC00009688143104801600D480068C06AE062DA
:103FD00094F82C10012088400B49096808430A49CD
:103FE0000860E16A01EB8101064A02EB8100211DB4
:103FF000FFF750FD03E002480068C06AE06270BD50
:1040000068000020B00900208000002050B900BFE7
:10401000102181F31188BFF34F8FBFF36F8F00BF63
:1040200000BFFEE703490968016003490968416070
:1040300070470000900000207C00002004E0FEF7A4
:10404000CDFC0A20FFF72CFEF9E700001FB5002089
:104050000090019002900346802218A10390194815
:1040600000F082FD0446012C02D101F0ABF80446B9
:10407000012C15D100BF102080F31188BFF34F8FA2
:10408000BFF36F8F00BF4FF0FF300F490860012072
:104090000E49086000200E49086000F09BF90BE013
:1040A00054B900BF102080F31188BFF34F8FBFF3C6
:1040B0006F8F00BF00BFFEE71FBD000049444C45A5
:1040C00000000000993200089800002084000020C1
:1040D0007C00002002480068401C014908607047CD
:1040E0009C0000201D48006818B101201C49086090
:1040F00032E000201A4908601A480068B0FA80F0DF
:10410000C0F11F0101EB8100174A52F8200008B1ED
:10411000012000E0002050B900BF102080F311887A
:10412000BFF34F8FBFF36F8F00BF00BFFEE701EB00
:1041300081020D4B03EB820042685268426000F13D
:1041400008024368934202D1426852684260426862
:10415000D268064B1A6000BF704700009C00002028
:104160008C00002080000020B009002068000020A2
:1041700010B50446FDF79CF810BD000010B50446CC
:104180000348007818B103480068FDF70FFB10BD25
:104190002E0000202800002010B51C20FFF76CFB2B
:1041A000044624B100202060201DFFF749FC204672
:1041B00010BD2DE9FE4F07468846002001903C4681
:1041C000009057B900BF102080F31188BFF34F8FC4
:1041D000BFF36F8F00BF00BFFEE708F07F4008B954
:1041E000012000E0002050B900BF102080F31188AA
:1041F000BFF34F8FBFF36F8F00BF00BFFEE704F127
:10420000040909F108000290FFF764FFD9F80C6077
:10421000206840EA0800206026E0D6F804B035683F
:104220000020009005F07F4A25F07F450AF080606D
:1042300028B92068284040B10120009005E020689E
:104240002840A84201D101200090009858B10AF0FE
:10425000807010B1019828430190206840F00071EF
:10426000304600F0A5FE5E4602988642D5D1206811
:1042700001998843206000F0F3FE2068BDE8FE8FBE
:104280002DE9FF4F83B081460D461746DDF840808B
:104290004C464FF0000A00200190B9F1000F0AD1FE
:1042A00000BF102080F31188BFF34F8FBFF36F8FD3
:1042B00000BF00BFFEE705F07F4008B9012000E025
:1042C000002050B900BF102080F31188BFF34F8F3A
:1042D000BFF36F8F00BF00BFFEE70DB1012000E00C
:1042E000002050B900BF102080F31188BFF34F8F1A
:1042F000BFF36F8F00BF00BFFEE700F0EDFC10B909
:10430000B8F1000F01D1012000E0002050B900BF3A
:10431000102080F31188BFF34F8FBFF36F8F00BF62
:1043200000BFFEE7FFF7D6FE206800902946069AF8
:104330000098FFF745FA0290029838B1009E4FF0BE
:104340000008B7B12068A843206012E0B8F1000F60
:1043500001D1009E0DE00FB14AF0807A069808B1B5
:104360004AF0806A45EA0A014246201DFFF79CFD9B
:10437000002600F075FE8346B8F1000F23D0BBF194
:10438000000F07D14FF0805011490860BFF34F8FE5
:10439000BFF36F8FFFF746FB064606F0007080B94B
:1043A000FFF784FB266829463046069AFFF708FA8D
:1043B00018B117B12068A8432060FFF7A1FB0020C7
:1043C000019026F07F46304607B0BDE8F08F000030
:1043D00004ED00E01CB5474800684749884201D019
:1043E000012000E0002050B900BF102080F31188A8
:1043F000BFF34F8FBFF36F8F00BF00BFFEE73D4895
:1044000000683D49491E884201D0012000E000209B
:1044100050B900BF102080F31188BFF34F8FBFF356
:104420006F8F00BF00BFFEE7344908460078019057
:10443000FF200A4610700846007800909DF80000A2
:1044400000F0F0009DF80020904201D1012000E032
:10445000002050B900BF102080F31188BFF34F8FA8
:10446000BFF36F8F00BF00BFFEE79DF8000000F0B4
:104470001000234A10700720224A106009E02148EA
:104480000068401E1F4A10609DF800004006000EA4
:1044900000909DF8000000F080008028EFD01948BF
:1044A00000680002174A10601046008800F4E060BF
:1044B0001060124A019810700E482030006840F4D5
:1044C00070000C49203108600846006840F07040D8
:1044D0000860FFF77DFB00200B490860FBF780FEBA
:1044E0000A48006840F0404008490860FBF768FE51
:1044F00000201CBD00ED00E071C20F4100E400E0AF
:10450000CC000020D0000020C800002034EF00E0E4
:1045100070B505460E460DB1012000E0002050B9EF
:1045200000BF102080F31188BFF34F8FBFF36F8F50
:1045300000BF00BFFEE7AE4201D8012000E000202E
:1045400050B900BF102080F31188BFF34F8FBFF325
:104550006F8F00BF00BFFEE702220021284600F057
:1045600011F8044604B1A66354B900BF102080F3CB
:104570001188BFF34F8FBFF36F8F00BF00BFFEE7FF
:10458000204670BD2DE9F04706460D4690464FF097
:1045900000090EB1012000E0002050B900BF10203A
:1045A00080F31188BFF34F8FBFF36F8F00BF00BF41
:1045B000FEE70DB9002702E006FB05F0471C07F1F6
:1045C0005400FFF759F9044674B10DB9246002E0B4
:1045D00004F154002060E66325640121204600F0C8
:1045E000EBF884F85080A146B9F1000F0AD100BF62
:1045F000102080F31188BFF34F8FBFF36F8F00BF80
:1046000000BFFEE74846BDE8F08700002DE9FF4304
:1046100083B005460E461F464FF000092C4654B99C
:1046200000BF102080F31188BFF34F8FBFF36F8F4F
:1046300000BF00BFFEE70EB9206C08B9012000E002
:10464000002050B900BF102080F31188BFF34F8FB6
:10465000BFF36F8F00BF00BFFEE700F03DFB08B95E
:10466000059808B9012000E0002050B900BF1020D3
:1046700080F31188BFF34F8FBFF36F8F00BF00BF70
:10468000FEE700BFFFF712FAA06BE8B3D4F80C8086
:1046900031462046FEF750FDDFB9A06B401EA063F7
:1046A000206810B9FFF786F96060206908B9012019
:1046B00000E0002010BB04F1100000F02DFC0128E8
:1046C0001CD100073B490860BFF34F8FBFF36F8FCA
:1046D00014E0C4F80C80606A08B9012000E00020F2
:1046E00060B904F1240000F017FC38B14FF080509D
:1046F00030490860BFF34F8FBFF36F8FFFF700FAA9
:10470000012007B0BDE8F083FFE7059818B9FFF76F
:10471000F7F90020F5E7B9F1000F04D101A8FFF780
:1047200075FC4FF00109FFF7EBF9FFF7D3FCFFF73A
:10473000BDF9606C401C08B900206064A06C401C8E
:1047400008B90020A064FFF7DBF905A901A800F073
:10475000C5F940BB2046FEF779FEF0B1206830B9BC
:10476000FFF7A4F96068FFF7F9FBFFF7C9F904F157
:1047700024000599FFF718FB2046FFF73DF800F0ED
:104780006FFC00287FF47EAF4FF08050094908602D
:10479000BFF34F8FBFF36F8F74E72046FFF72CF8FE
:1047A00000F05EFC6EE72046FFF726F800F058FCAC
:1047B0000020A6E704ED00E070B505460E462C4645
:1047C00054B900BF102080F31188BFF34F8FBFF39F
:1047D0006F8F00BF00BFFEE7FFF768F9D4E90F1243
:1047E000206801FB020060600020A0632068A060D8
:1047F000E06B401E226C216800FB0210E0604FF06D
:10480000FF306064A0649EB9206908B9012000E00F
:104810000020A8B904F1100000F07EFB01280FD1A0
:10482000000709490860BFF34F8FBFF36F8F07E0A0
:1048300004F11000FFF704F904F12400FFF700F978
:10484000FFF75EF9012070BD04ED00E02DE9FF43A4
:1048500083B0064688461D464FF00009344654B9D9
:1048600000BF102080F31188BFF34F8FBFF36F8F0D
:1048700000BF00BFFEE7B8F1000F01D1206C08B9FE
:10488000012000E0002050B900BF102080F3118803
:10489000BFF34F8FBFF36F8F00BF00BFFEE7022D46
:1048A00002D1E06B012801D1012000E0002050B9C5
:1048B00000BF102080F31188BFF34F8FBFF36F8FBD
:1048C00000BF00BFFEE700F007FA08B9059808B975
:1048D000012000E0002050B900BF102080F31188B3
:1048E000BFF34F8FBFF36F8F00BF00BFFEE700BF66
:1048F000FFF7DCF8A06BE16B884201D3022D28D1D1
:104900002A4641462046FEF72CFC0746606A08B955
:10491000012000E0002068B904F1240000F0FCFA56
:10492000012810D1000730490860BFF34F8FBFF353
:104930006F8F08E03FB14FF080502B490860BFF304
:104940004F8FBFF36F8FFFF7DBF8012007B0BDE893
:10495000F083059818B9FFF7D3F80020F6E7B9F10E
:10496000000F04D101A8FFF751FB4FF00109FFF739
:10497000C7F8FFF7AFFBFFF799F8606C401C08B968
:1049800000206064A06C401C08B90020A064FFF700
:10499000B7F805A901A800F0A1F8F0B92046FEF784
:1049A00062FDA0B104F110000599FFF7FDF9204662
:1049B000FEF722FF00F054FB002899D14FF0805001
:1049C00009490860BFF34F8FBFF36F8F90E7204610
:1049D000FEF712FF00F044FB8AE72046FEF70CFFCB
:1049E00000F03EFB0020B1E704ED00E02DE9F047C8
:1049F00007468A4690461E463C4654B900BF1020E2
:104A000080F31188BFF34F8FBFF36F8F00BF00BFDC
:104A1000FEE7BAF1000F01D1206C08B9012000E0D7
:104A2000002050B900BF102080F31188BFF34F8FD2
:104A3000BFF36F8F00BF00BFFEE7022E02D1E06B15
:104A4000012801D1012000E0002050B900BF102052
:104A500080F31188BFF34F8FBFF36F8F00BF00BF8C
:104A6000FEE7FFF7BFF800BF1021EFF3118081F3DD
:104A70001188BFF34F8FBFF36F8F00BF0546A06B48
:104A8000E16B884201D3022E1FD1324651462046A7
:104A9000FEF767FBA06C401C88B9606A08B901206A
:104AA00000E0002070B904F1240000F035FA48B1AC
:104AB000B8F1000F06D00120C8F8000002E0A06C99
:104AC000401CA0644FF0010901E04FF0000900BF55
:104AD00085F3118800BF4846BDE8F08770B50446ED
:104AE0000D4654B900BF102080F31188BFF34F8FDB
:104AF000BFF36F8F00BF00BFFEE755B900BF1020A6
:104B000080F31188BFF34F8FBFF36F8F00BF00BFDB
:104B1000FEE7FEF7CBFF124803682868401C08B97F
:104B2000002619E00F4920680968884204D06068AF
:104B3000984201D801260FE06068181A2968884257
:104B400009D228686168591A401A28602046FFF780
:104B50005DFA002600E00126FEF7D2FF304670BD68
:104B60007C000020900000202DE9FF4F81B080469E
:104B700016469A46DDE90E5BB8F1000F0AD100BF78
:104B8000102080F31188BFF34F8FBFF36F8F00BFEA
:104B900000BFFEE7062D01D2012000E0002050B941
:104BA00000BF102080F31188BFF34F8FBFF36F8FCA
:104BB00000BF00BFFEE730461099FEF735FA044605
:104BC000002C64D0701E216B01EB800929F00709CD
:104BD00009F0070008B9012000E0002050B900BF2B
:104BE000102080F31188BFF34F8FBFF36F8F00BF8A
:104BF00000BFFEE700962A462046119B0299FEF769
:104C00005FFB524641464846FEF7E4FE2060BBF19A
:104C1000000F01D0CBF80040FEF748FF274800689E
:104C2000401C264908602648006840B924480460B2
:104C30000846006801280CD1FEF774FB09E0214802
:104C4000006830B91E480068C06AA84201D81C48F4
:104C500004601D480068401C1B4908600846006845
:104C6000606494F82C1001208840184909680843B2
:104C700016490860E16A01EB8101154A02EB8100E7
:104C8000211DFEF707FF0127FEF73AFF01E04FF075
:104C9000FF37012F0ED10B48006858B10848006853
:104CA000C06AA84206D238070A490860BFF34F8F8E
:104CB000BFF36F8F384605B0BDE8F08F7800002055
:104CC0006800002084000020940000208000002064
:104CD000B009002004ED00E00549096809B9012088
:104CE00005E00449096809B9022000E00020704786
:104CF000840000209C0000200149086870470000E3
:104D00007C0000202DE9F0414FF000084548006884
:104D1000002879D144480068401C4349086008468F
:104D2000066816BB41480068006808B9012000E029
:104D3000002050B900BF102080F31188BFF34F8FBF
:104D4000BFF36F8F00BF00BFFEE7384807683848E1
:104D50000068364908603648076036480068401CDD
:104D600034490860FEF78CFC00BF33480068864277
:104D70003CD300BF2D480068006808B9012000E05E
:104D8000002020B14FF0FF302B4908602DE027486C
:104D90000068C068C4686568AE4202D226480560F3
:104DA00023E0201DFEF72AFEA06A18B104F11800C6
:104DB000FEF724FE94F82C10012088401F49096852
:104DC00008431E490860E16A01EB81011C4A02EBBD
:104DD0008100211DFEF75EFE1A49E06A0968C96A72
:104DE0008842C7D34FF00108C4E700BF15480068E8
:104DF000C06A00EB8000124951F82000012808D950
:104E00004FF0010805E0FFE70F480068401C0E491D
:104E100008600E48006808B14FF001084046BDE840
:104E2000F08100009C0000207C0000206C0000202D
:104E300070000020900000209800002080000020DA
:104E4000B009002068000020880000208C000020AD
:104E500070B505462C460026002D55D02B4800681D
:104E6000844201D1012000E0002050B900BF102091
:104E700080F31188BFF34F8FBFF36F8F00BF00BF68
:104E8000FEE7206D50B900BF102080F31188BFF3FA
:104E90004F8FBFF36F8F00BF00BFFEE7206D401E36
:104EA0002065E16CE06A88422ED0206D60BB201D39
:104EB000FEF7A4FD78B9E06A00EB8000144951F8D0
:104EC000200040B994F82C1001208840114909684D
:104ED000814310480160E06CE062E06AC0F10600C6
:104EE000A06194F82C10012088400A490968084301
:104EF00008490860E16A01EB8101054A02EB810083
:104F0000211DFEF7C7FD0126304670BD6800002058
:104F1000B00900208000002070B50646F068C46823
:104F200054B900BF102080F31188BFF34F8FBFF337
:104F30006F8F00BF00BFFEE704F11800FEF75EFDB3
:104F400015480068A8B9201DFEF758FD94F82C10EC
:104F50000120884011490968084310490860E16A46
:104F600001EB81010E4A02EB8100211DFEF792FD4B
:104F700004E004F118010B48FEF78CFD0A49E06AD1
:104F80000968C96A884204D90125012007490860D7
:104F900000E00025284670BD9C0000208000002015
:104FA000B0090020500A0020680000208C0000207A
:104FB0002DE9F04105460F462448006808B101205C
:104FC00000E0002050B900BF102080F31188BFF32B
:104FD0004F8FBFF36F8F00BF00BFFEE747F0004069
:104FE0002860EC6854B900BF102080F31188BFF32B
:104FF0004F8FBFF36F8F00BF00BFFEE72846FEF75D
:10500000FDFC201DFEF7FAFC94F82C1001208840CE
:105010000F49096808430E490860E16A01EB810104
:105020000C4A02EB8100211DFEF734FD0A49E06ABB
:105030000968C96A884204D9012601200749086025
:1050400000E000263046BDE8F08100009C00002012
:1050500080000020B0090020680000208C000020A3
:1050600070B500253648006850B900BF102080F3A5
:105070001188BFF34F8FBFF36F8F00BF00BFFEE7F4
:10508000FEF714FD2E480068401E2D4908600846B2
:105090000068002850D12B48006800284CD024E03C
:1050A0002948C068C46804F11800FEF7A7FC201D59
:1050B000FEF7A4FC94F82C100120884023490968CD
:1050C000084322490860E16A01EB8101204A02EBB2
:1050D0008100211DFEF7DEFC1E49E06A0968C96AED
:1050E000884202D301201C4908601748006808B9AB
:1050F000012000E000200028D2D01848006878B1D4
:105100000AE0FFF7FFFD10B10120134908601348C2
:105110000068401E11490860104800680028F0D15E
:105120000D480068012807D1012500070C490860D7
:10513000BFF34F8FBFF36F8FFEF7E2FC284670BDC1
:105140009C00002078000020500A002080000020F1
:10515000B0090020680000208C000020880000209A
:1051600004ED00E02DE9F04706460D461746984647
:10517000DDF820900DB9002410E02C20FEF77CFB18
:1051800004465CB1FDF772FF2660A561E761C4F8D3
:105190002080C4F82490201DFEF75FFC0DB1012093
:1051A00000E0002050B900BF102080F31188BFF349
:1051B0004F8FBFF36F8F00BF00BFFEE72046BDE8F3
:1051C000F08700001FB50024FDF750FF0F4800686E
:1051D00068B100200523CDE90030029003464FF46A
:1051E00080720BA103900C48FFF7BEFC044654B933
:1051F00000BF102080F31188BFF34F8FBFF36F8F74
:1052000000BF00BFFEE7204604B010BDA80000208C
:10521000546D722053766300DF3700082DE9FF4795
:1052200004460D4616461F46DDF830804FF0000953
:1052300054B900BF102080F31188BFF34F8FBFF324
:105240006F8F00BF00BFFEE71448006810B30095E1
:1052500001960294062D15DAFFF73EFD022808D1CB
:105260000023424669460D480068FFF7EFFA814681
:1052700010E000231A46694608480068FFF7E6FA7E
:10528000814607E000233A46694604480068FFF774
:10529000ADFB8146484604B0BDE8F087A800002079
:1052A0006D6F746F725F726F746174655F636F7539
:1052B0006E743A202564202020616E676C655F6EF5
:1052C0006F773A2020252E32662020206D6F746F74
:1052D000725F656E636F6465723A202564200D0A03
:1052E000000000000453000800000020D800000067
:1052F0001C1E0008DC530008D8000020E0850000D8
:105300002C1E00080000000000000000000000004B
:10531000000000000000000000000000000000008D
:10532000000000000000000000000000410100003B
:105330005802000000000000000000000000000013
:105340000000000000000000000001020304010250
:105350000304060708090000007A030A00000000A1
:105360000000000001020304060708090000000015
:10537000000000000000000000000000000000002D
:10538000000000000000000000000000000000001D
:10539000000000000000000000000000000000000D
:1053A00000000000000000000000000000000000FD
:1053B00000000000000000000000000000000000ED
:1053C000000000000000000000000000AAAAAAAA35
:0C53D000000000000000000000000000D1
:040000050800018965
:00000001FF
