:020000040800F2
:10000000D086002059020008D5140008010B000812
:10001000250D0008CD0400080D1D0008000000009B
:10002000000000000000000000000000A101000826
:10003000070A000800000000F50100086518000824
:1000400073020008730200087302000873020008BC
:1000500073020008730200087302000873020008AC
:10006000730200087302000873020008730200089C
:10007000730200087302000873020008730200088C
:10008000730200087302000873020008730200087C
:10009000730200087302000873020008090A0008CE
:1000A000730200087302000873020008730200085C
:1000B000730200087302000873020008730200084C
:1000C000730200087302000873020008730200083C
:1000D00073020008C11900087302000873020008C7
:1000E000730200087302000873020008730200081C
:1000F000730200087302000873020008730200080C
:1001000073020008730200087302000873020008FB
:1001100073020008730200087302000873020008EB
:1001200073020008730200087302000873020008DB
:1001300073020008730200087302000873020008CB
:10014000D10400087302000873020008730200085B
:1001500073020008730200087302000873020008AB
:10016000730200087302000873020008730200089B
:10017000730200087302000873020008730200088B
:100180007302000873020008DFF810D000F0CCF80A
:10019000004800479D240008AFF30080D08600206F
:1001A0002A4B19680868B0E8F04F80F30988BFF35C
:1001B0006F8F4FF0000080F311887047000000003F
:1001C00006480068006880F3088862B661B6BFF32D
:1001D0004F8FBFF36F8F00DF00BF00BF08ED00E05F
:1001E000DFF80C00016841F470010160704700BF46
:1001F00088ED00E0EFF30980BFF36F8F134B1A68AF
:100200001EF0100F08BF20ED108A20E9F04F10609B
:1002100008B44FF0100080F31188BFF34F8FBFF385
:100220006F8F03F069FB4FF0000080F3118808BC6A
:1002300019680868B0E8F04F1EF0100F08BFB0EC66
:10024000108A80F30988BFF36F8F70477400002015
:10025000EFF30580704700000648804706480047D6
:10026000FEE7FEE7FEE7FEE7FEE7FEE7FEE7FEE766
:10027000FEE7FEE7591900088901000840EA01037A
:100280009B0703D009E008C9121F08C0042AFAD24C
:1002900003E011F8013B00F8013B521EF9D2704710
:1002A000D2B201E000F8012B491EFBD270470022B8
:1002B000F6E710B513460A4604461946FFF7F0FF65
:1002C000204610BD2DE9F05F0546002092469B4672
:1002D00088460646814640241BE02846414647465C
:1002E000224600F042F853465A46C01A914110D3B4
:1002F00011461846224600F029F82D1A67EB01082E
:100300004F4622460120002100F020F817EB00099B
:100310004E41201EA4F10104DFDC484631462A4646
:100320004346BDE8F09F0000064C074D06E0E0683C
:1003300040F0010394E8070098471034AC42F6D32C
:10034000FFF726FFF448000814490008202A04DBC0
:10035000203A00FA02F1002070479140C2F12003D8
:1003600020FA03F3194390407047202A04DB203A17
:1003700021FA02F00021704721FA02F3D040C2F1C5
:1003800020029140084319467047000038B5012407
:100390001548002301221146009014A004F00CFA25
:1003A00014490860002003460246032100901148CA
:1003B000006804F05DFA002214210A2003F0DCFB3F
:1003C0000D490860002214210A2003F0D5FB0B49D7
:1003D000086003F0EBFA0A4908600221084603F0BE
:1003E00091FB0849086038BD9139000854696D6572
:1003F00072000000100000201400002018000020EF
:10040000200000201C0000201FB500201B4A0123F3
:10041000CDE901200093039003464FF4007218A128
:100420001A4803F09BFE0020194A0223CDE901205F
:100430000093039003464FF4007216A1184803F08E
:100440008DFE0020174A0323CDE90120009303907D
:1004500003464FF4007214A1164803F07FFE0020FB
:10046000154A0423CDE901200093039003464FF47D
:10047000007212A1144803F071FE1FBD0400002099
:10048000765461736B4C454400000000F53500085C
:100490000C000020765461736B5374617274000019
:1004A0005138000800000020765461736B55736565
:1004B00072494600853900080800002076546173AF
:1004C0006B4D736750726F004136000800BFFEE746
:1004D00008B500200090124A0021124800F05BF994
:1004E0000F48006840F24111884217D10C48007A49
:1004F000A0B90B48807A082810D100236A46084921
:100500000948006803F06CFD009838B14FF0805046
:1005100006490860BFF34F8FBFF36F8F08BD00001F
:10052000F8000020006800401400002004ED00E006
:1005300010B504460B48844209D10121480601F058
:1005400031F800214FF0007001F02CF808E0012193
:10055000880601F027F800214FF0806001F022F8B2
:1005600010BD00000064004010B50021837A012214
:1005700002FA03F13D4A126842F001023B4B1A6055
:100580003A4A1C3212688A43384B1C331A60027B89
:10059000CAB9364A0C3212688A43344B0C331A609B
:1005A0004288C38842EA0343304A4032847A42F8A0
:1005B00034300288838842EA03432C4A4032847AEA
:1005C00002EBC4025360027B012A19D1274A0C3284
:1005D00012680A43254B0C331A604288038842EAAA
:1005E0000343224A4032847A42F83430C2888388F6
:1005F00042EA03431D4A4032847A02EBC40253604C
:10060000C27A3AB9194A121D12688A43174B1B1D48
:100610001A6006E0154A121D12680A43134B1B1D8F
:100620001A60028932B9114A143212688A430F4B98
:1006300014331A600289012A06D10C4A1432126856
:100640000A430A4B14331A60427B012A06D1074A37
:100650001C3212680A43054B1C331A60034A1268A5
:1006600022F00102014B1A6010BD0000006600403C
:100670001AB143690B43436102E043698B43436111
:10068000704730B5024600200023146824F00204AD
:100690001460146844F00104146000E05B1C5468AA
:1006A00004F001041CB94FF6FF74A342F6D154685C
:1006B00004F001040CB900206CE08C79012C04D109
:1006C000146844F08004146003E0146824F080048B
:1006D0001460CC79012C04D1146844F040041460F7
:1006E00003E0146824F0400414600C7A012C04D157
:1006F000146844F02004146003E0146824F020041B
:1007000014604C7A012C04D1146844F01004146075
:1007100003E0146824F0100414608C7A012C04D1D6
:10072000146844F00804146003E0146824F008041A
:100730001460CC7A012C04D1146844F004041460D1
:1007400003E0146824F0040414608C78A407CD78C6
:1007500044EA05640D7944EA05444D7944EA0554B8
:100760000D886D1E2C43D461146824F001041460BC
:10077000002300E05B1C546804F001041CB14FF638
:10078000FF74A342F6D1546804F001040CB10020B8
:1007900000E0012030BD10B500F5D87303EB011364
:1007A0001B6803F004031372137A53B900F5D8736E
:1007B00003EB01131B6840F2FF7404EA5353136008
:1007C00009E000F5D87303EB01131B686FF0604478
:1007D00004EAD303536000F5D87303EB01131B68DD
:1007E00003F00203537200F5D87303EB01135B6847
:1007F00003F00F03937200F5D87303EB01135B68EA
:100800001B0AD37400F5D87303EB01139B68D372F2
:1008100000F5D87303EB01139B681C0A147300F5F1
:10082000D87303EB01139B681C0C547300F5D87349
:1008300003EB01139B681B0E937300F5D87303EB56
:100840000113DB68D37300F5D87303EB0113DB6886
:100850001C0A147400F5D87303EB0113DB681C0C3D
:10086000547400F5D87303EB0113DB681B0E93740B
:1008700021B9C36843F02003C36003E0036943F078
:100880002003036110BD10B502460020936803F0F9
:100890008063B3F1806F00D110E0936803F00063D0
:1008A000B3F1006F01D1012008E0936803F0805399
:1008B000B3F1805F01D1022000E00420042874D04D
:1008C00002F5C07303EB00131B6803F0010402F58B
:1008D000C07303EB00131C600B7A7BB94B7A0C8856
:1008E00043EA445302F5C07404EB00142468234324
:1008F00002F5C07404EB0014236010E00B7A4C681E
:1009000043EAC4034C7A234302F5C07404EB001499
:100910002468234302F5C07404EB001423608B7A2F
:1009200003F00F038B7202F5C07303EB00135B68D7
:1009300023F00F0402F5C07303EB00135C6002F5B3
:10094000C07303EB00135B688C7A234302F5C07419
:1009500004EB001463608B7B1C064B7B44EA03446E
:100960000B7B44EA0323CC7A234302F5C07404EBE7
:100970000014A3608B7C1C064B7C44EA03440B7C74
:1009800044EA0323CC7B234302F5C07404EB001438
:10099000E36002F5C07303EB00131B6843F001042E
:1009A00002F5C07303EB00131C6010BD014609B9CA
:1009B0000B487047012901D10020FAE7022901D133
:1009C0000020F6E7032901D10020F2E7042901D134
:1009D0000020EEE7052901D10020EAE70020E8E742
:1009E000A001002008B525208DF8000001208DF819
:1009F000010000208DF8020001208DF803006846F8
:100A000000F06AFD08BD704710B5202000F002F824
:100A100010BD00000149086070470000143C01400F
:100A2000F0B50A4600210023002400BF3DE0012567
:100A300005FA01F3156805EA03049C4234D1056800
:100A40004F000326BE40B543056015794E00B54002
:100A50000668354305601579012D02D01579022D00
:100A600016D185684F000326BE40B5438560557991
:100A70004E00B540866835438560456801268E4046
:100A8000B5434560456896798E40B6B235434560BA
:100A9000C5684F000326BE40B543C560D5794E00FA
:100AA000B540C6683543C560491C1029BFD3F0BDA9
:100AB000F0B5002300244D07ED0E02FA05F3CE1029
:100AC00000F1200555F826504E07F70E0F26BE40C0
:100AD000B543CF1000F1200646F82750CE1000F1A4
:100AE000200555F8265045EA0304CE1000F12005F4
:100AF00045F82640F0BD41837047018370470000F0
:100B000009A100200BE00A5C124B9A8000BF114A39
:100B1000128802F04002002AF9D0421CD0B22A28E2
:100B2000F1D300BFFEE700000D0A456E7465722028
:100B3000486172644661756C745F48616E646C658F
:100B4000722C2053797374656D2048616C742E0D7E
:100B50000A0000000010014017B585B0044600945B
:100B6000002001908DF809008DF8080008208DF80C
:100B70000A00A8208DF80B0000218DF80C109DF8BC
:100B800018108DF80D109DF819108DF80E109DF8A5
:100B90001C108DF80F109DF81D108DF810109DF889
:100BA0001E108DF811109DF81F108DF81210694657
:100BB0000248FFF768FE08B010BD00000068004062
:100BC00000B587B00121084600F0CCFC01211020BF
:100BD00000F0F8FC072209212248FFF769FF0722ED
:100BE0000A212048FFF764FF00208DF81A00012039
:100BF0008DF81B0002208DF81800000205900220DD
:100C00008DF8190005A91748FFF70AFF02208DF893
:100C100018004002059005A91248FFF701FF4FF4A4
:100C2000E13001900020ADF80800ADF80A00ADF801
:100C30000C00ADF810000C20ADF80E0001A90A4818
:100C400000F02AFF012240F22551074800F0FFFE84
:100C50000121054800F0C5FE4021034800F0B8FE20
:100C600007B000BD000002400010014004480069C8
:100C700000F0100008B9012070470020FCE70000D8
:100C8000001002400448006900F0080008B9012083
:100C900070470020FCE70000001002400448006993
:100CA00000F0010008B9002070470120FCE70000B7
:100CB000000002401CB50121092000F053FCC020B7
:100CC000009001208DF8040000208DF8060003201C
:100CD0008DF8050001208DF8070069460F48FFF7E1
:100CE0009FFEC0210D48FFF708FF4FF4A060009061
:100CF00001208DF8040000208DF8060003208DF8F7
:100D0000050001208DF8070069460548FFF788FEB9
:100D10004FF4A0610248FFF7EEFE1CBD0000024048
:100D2000000C024000BFFEE710B54FF4FA6001F07E
:100D30005DFB0F48006800F041FB642001F056FBAA
:100D400000210B48006800F061FB9FED0A0A0A4889
:100D500080ED140A9FED070A80ED150A0020064970
:100D6000A1F858004FF4FA7001F040FB10BD0000EC
:100D70002C000020000000001001002008B503F046
:100D800027FBF949086003E301F06EF90546002DE1
:100D90007EDD012D04D0042D7BD0072D7AD151E1C9
:100DA000F2480078002876D10120F049087001024D
:100DB000EF48FFF7A2FE0022EE480188EE480068E7
:100DC00000F054FB0020ED49A1F858004FF4FA70F0
:100DD00002F0CAFB03F012FB0746002003463A4626
:100DE00001210090E648006803F042FD4FF0FF311A
:100DF000012002F013FA00246AE03CB90022DD4829
:100E00000188DD48006800F031FB12E0052C07DCAA
:100E10006422D8480188D8480068FFF79DFE08E0A2
:100E2000642004FB00F2D3480188D348006800F036
:100E30001DFB4FF4B47094FBF0F100FB114087B23E
:100E4000384601F0ACFA06460020CE49087029E089
:100E50004FF49671012002F0E1F9CB490860084691
:100E6000006800B91EE0C5498889314601F000FBE1
:100E7000C64908600846006812280FDC084600686A
:100E800010F1120F0ADBBF480078401CBD4903E097
:100E9000DFE030E0DBE02DE0087002E00020B9493F
:100EA000087000BFB74800780228D1DB01F066F86F
:100EB000B2498889314601F0DBFA07460090AF4815
:100EC000828933462146B2A000F022FF601C84B222
:100ED000B4F5B47F91DD0020034602460321009063
:100EE000A748006803F0C4FC0020A0490870A3498B
:100EF000A1F85800ACE09D480078002874D101208A
:100F00009A49087001029A48FFF7F5FD00229948B6
:100F100001889948006800F0A9FA00209749A1F8D3
:100F200058004FF4FA7002F01FFB03F067FA07460F
:100F3000002003463A46012100909148006803F0E2
:100F400097FC4FF0FF31012002F068F9002466E0C1
:100F50003CB90022874801888748006800F086FA7B
:100F600012E0052C07DC6422824801888248006870
:100F7000FFF7F2FD08E0642004FB00F27D480188E1
:100F80007D48006800F072FA4FF4B47094FBF0F101
:100F900000FB114087B2384601F001FA06460020F6
:100FA0007849087025E04FF49671012002F036F977
:100FB000754908600846006800B91AE06F498889D9
:100FC000314601F055FA7149086008460068122858
:100FD0000BDC0846006810F1120F06DB6948007848
:100FE000401C6849087003E02BE000206549087048
:100FF00000BF644800780228D5DB00F0BFFF5F49DE
:101000008889314601F034FA074600905B488289AE
:10101000334621465EA000F07BFE601C84B2B4F52E
:10102000B47F95DD0020034602460321009054481A
:10103000006803F01DFC00204C4908704F49A1F8DE
:10104000580005E04C48006800F05AFB00E000BF83
:1010500000BF5C48007800287EDD5A4800780128EF
:1010600004D0022879D0032878D184E13F48007861
:10107000002874D101203D49087001023C48FFF767
:101080003CFD00223B4801883B48006800F0EEF937
:1010900000203A49A1F858004FF4FA7002F064FABF
:1010A00003F0ACF90746002003463A4601210090C0
:1010B0003348006803F0DCFB4FF0FF31012002F001
:1010C000ADF800249BE03CB900222A4801882A4858
:1010D000006800F0CBF912E0052C07DC64222548FB
:1010E000018825480068FFF737FD08E0642004FB0D
:1010F00000F2204801882048006800F0B7F94FF45A
:10110000B47094FBF0F100FB114087B2384601F057
:1011100046F9064600201B49087059E04FF49671C5
:10112000012002F07BF8184908600846006800B901
:101130004EE012498889314601F09AF91349086056
:101140000846006812283FDC0846006810F1120FBC
:101150003ADB0C48007803E017E164E010E161E05D
:10116000401C0849087032E02800002032000020AE
:10117000000C0240300000202C0000201001002054
:1011800010000020350000203C0000203800002026
:101190007461726765745F6465673D256420656E80
:1011A000633D2575207461726765745F656E633D8C
:1011B0002575206572725F7469636B733D256C647D
:1011C0000D0A00003300002000207249087000BFA3
:1011D000704800780228A1DB00F0D0FE6E498889B3
:1011E000314601F045F9074600906B488289334645
:1011F0002146AFF2640000F08BFD601C84B2B4F5B0
:10120000B47F7FF760AF00200346024603210090C1
:101210006248006803F02CFB0020614908705E49B9
:10122000A1F85800ADE05E480078002874D1012094
:101230005B49087001025B48FFF75DFC00225A48D9
:1012400001885A48006800F011F900205249A1F8BD
:1012500058004FF4FA7002F087F903F0CFF8074610
:10126000002003463A46012100904C48006803F0F4
:10127000FFFA4FF0FF31012001F0D0FF002467E0BA
:101280003CB90022484801884848006800F0EEF860
:1012900012E0052C07DC64224348018843480068BB
:1012A000FFF75AFC08E0642004FB00F23E48018886
:1012B0003E48006800F0DAF84FF4B47094FBF0F1A7
:1012C00000FB114087B2384601F069F8064600205D
:1012D0003049087025E04FF49671012001F09EFF1F
:1012E000334908600846006800B91AE02A4988892D
:1012F000314601F0BDF82F49086008460068122801
:101300000BDC0846006810F1120F06DB214800785C
:10131000401C2049087003E02CE000201D490870A3
:1013200000BF1C4800780228D5DB00F027FE1A49D0
:101330008889314601F09CF807460090164882895A
:1013400033462146AFF2B81000F0E2FC601C84B2D4
:10135000B4F5B47F94DD00200346024603210090DB
:101360000E48006803F084FA00200D4908700A490D
:10137000A1F8580005E00D48006800F0C1F900E050
:1013800000BF00BF00200C490870052002F0ECF8F7
:10139000FAE40000350000201001002010000020B9
:1013A00032000020000C0240300000202C00002001
:1013B0003C000020380000203300002010B586B02B
:1013C00004460194002002908DF80D008DF80C0069
:1013D00008208DF80E0088208DF80F0000218DF870
:1013E00010108DF811108DF812108DF813108DF863
:1013F00014108DF815108DF8161001A90248FFF78A
:1014000042FA06B010BD00000068004013B586B077
:1014100004460194002002908DF80D008DF80C0018
:1014200008208DF80E00A3208DF80F0000218DF804
:1014300010108DF811108DF812109DF81C108DF8F9
:1014400013109DF81D108DF814109DF81E108DF8C6
:1014500015109DF81F108DF8161001A90248FFF70E
:1014600012FA08B010BD00000068004017B585B042
:1014700004460094002001908DF809008DF80800C2
:1014800008208DF80A00A4208DF80B0000218DF8AB
:101490000C109DF818108DF80D109DF819108DF88E
:1014A0000E109DF81C108DF80F109DF81D108DF872
:1014B00010109DF81E108DF811109DF81F108DF85A
:1014C000121069460248FFF7DEF908B010BD0000AF
:1014D000006800407047000070B5002100230F2213
:1014E000C4781CB3174C246804F4E064C4F5E064C9
:1014F000C4F30721C1F10404E3B20A4144789C40DB
:10150000E1B28478144021430C07210E0E4C05787B
:101510006155047804F01F050124AC4005786D1175
:10152000AD0005F1E025C5F8004109E0047804F0BC
:101530001F050124AC40054D0678761145F826407C
:1015400070BD00000CED00E000E400E080E100E090
:1015500002490143024A1160704700000000FA0589
:101560000CED00E029B1064A12680243044B1A60F0
:1015700004E0034A12688243014B1A60704700007E
:101580003038024029B1064A12680243044B1A60FF
:1015900004E0034A12688243014B1A60704700005E
:1015A0004038024029B1064A12680243044B1A60CF
:1015B00004E0034A12688243014B1A60704700003E
:1015C0002038024029B1064A12680243044B1A60CF
:1015D00004E0034A12688243014B1A60704700001E
:1015E00044380240F0B500210022002402250026E4
:1015F0000223324F3F6807F00C0121B1042905D0C6
:10160000082937D105E02E4F076036E02D4F0760DF
:1016100033E02A4F3F1F3F68C7F38056274F3F1FD5
:101620003F6807F03F036EB1264FB7FBF3F7DFF8D3
:101630008CC0ACF1040CDCF800C0CCF3881C07FBB8
:101640000CF40CE01E4FB7FBF3F7DFF870C0ACF101
:10165000040CDCF800C0CCF3881C07FB0CF4174F1B
:101660003F1F3F68C7F301477F1C7D00B4FBF5F7C0
:10167000076002E0124F076000BF00BF0F4F3F68D6
:1016800007F0F0010909104F7A5C0768D7404760FE
:101690000A4F3F6807F4E051890A0B4F7A5C4768AC
:1016A000D7408760054F3F6807F46041490B064FFC
:1016B0007A5C4768D740C760F0BD00000838024038
:1016C0000024F40000127A004E0000201CB5012115
:1016D0000220FFF747FF01208DF8040000208DF85D
:1016E00006008DF8070003208DF805000420009007
:1016F00069460248FFF794F91CBD0000000402404F
:1017000010B586B004460194002002908DF80D00BB
:101710008DF80C0008208DF80E0090208DF80F0039
:1017200000218DF810108DF811108DF812108DF821
:1017300013108DF814108DF815108DF8161001A9DE
:101740000248FFF7A0F806B010BD00000068004096
:101750000CB50020019000903448006840F48030BF
:101760003249086000BF3148006800F40030009042
:101770000198401C0190009818B90198B0F5A04F4D
:10178000F1D12A48006800F4003010B10120009027
:1017900001E0002000900098012846D12348403005
:1017A000006840F0805021494031086020480068BE
:1017B00040F440401E4908601C48083000681B493E
:1017C000083108600846006840F400400860084698
:1017D000006840F4A05008601648091F0860081F00
:1017E000006840F08070091F086000BF0F48006863
:1017F00000F000700028F9D040F205700E49086032
:101800000A480830006820F00300084908310860E1
:101810000846006840F00200086000BF0348083036
:10182000006800F00C000828F8D10CBD0038024018
:101830000070004008544007003C0240042808D1D2
:101840004FF0E021096941F004014FF0E0221161FD
:1018500007E04FF0E021096921F004014FF0E02298
:101860001161704710B500BF1020EFF3118180F3B4
:101870001188BFF34F8FBFF36F8F00BF02F0C4FD1D
:1018800018B14FF0805003490860002080F31188A0
:1018900000BF10BD04ED00E070B50020002202235F
:1018A00000240221274D2D6805F00C0020B10428EA
:1018B00006D0082834D107E0234D244E356033E0AC
:1018C000234D224E35602FE01E4D2D1F2D68C5F390
:1018D00080541C4D2D1F2D6805F03F0154B11C4D47
:1018E000B5FBF1F5174E361F3668C6F3881605FBB3
:1018F00006F209E0144DB5FBF1F5124E361F3668BD
:10190000C6F3881605FB06F20E4D2D1F2D68C5F394
:1019100001456D1C6B00B2FBF3F50C4E356003E026
:10192000094D0A4E356000BF00BF064D2D68C5F356
:101930000315084E705D054D2D68C540034E35609A
:1019400070BD0000083802400024F4006000002050
:1019500000127A006400002010B51548006840F4B9
:101960007000134908601348006840F001001149F5
:10197000086000200F49083108600E4800680E49D1
:1019800008400C4908600D48091D0860081F0068E0
:1019900020F48020091F0860002006490C310860EF
:1019A000FFF7D6FE4FF0006001498039086010BD96
:1019B00088ED00E000380240FFFFF6FE1030002402
:1019C00010B5024800F0DBF810BD0000A0010020B7
:1019D00001F40072B2F5007F00D100BFCA4302805B
:1019E000704721B1828942F40052828104E08289E9
:1019F0004DF6FF731A408281704770B5024600248D
:101A000000230025002040F66A16B14200D100BF35
:101A1000C1F3421501F01F03012606FA03F3012D5D
:101A200002D19689334006E0022D02D1168A334056
:101A300001E0968A33400C12012606FA04F4168857
:101A4000344013B10CB1012000E0002070BDF0B5AE
:101A50000346002400260025002040F66A17B942FC
:101A600000D100BF1846C1F3421401F01F06012740
:101A700007FA06F5012C01D10C3004E0022C01D14B
:101A8000103000E014301AB107682F43076002E0FD
:101A90000768AF430760F0BD2DE9FF4705460E46D6
:101AA0000024A14600BFA046B08900B100BF2C8A27
:101AB00024F44054F08804432C82AC8941F20C6039
:101AC0008443B08831890843718908430443AC8159
:101AD000AC8A24F44074B0890443AC826846FFF7B2
:101AE00081FD2048854202D01F48854202D1DDF8A1
:101AF0000C9001E0DDF80890A88900F4004040B1A6
:101B000009EBC90000EB091031684900B0FBF1F79F
:101B100007E009EBC90000EB091031688900B0FB50
:101B2000F1F76420B7FBF0F004012009642101FB08
:101B30001078A88900F4004040B1322000EBC800C2
:101B4000B0FBF1F000F00700044308E0322000EBA6
:101B500008106421B0FBF1F000F00F0004432C8169
:101B6000BDE8FF870010014000140140014688884D
:101B7000C0F308007047C1F308028280704770B557
:101B8000044640F225512068FFF737FFE0B1206896
:101B9000FFF7ECFFC5B2E18AA0684554E08A401C1B
:101BA00080B2E082E189884201DB0020E082608B24
:101BB000E189884202DA608B401C6083606A10B160
:101BC0002846616A884700BF40F227712068FFF706
:101BD00014FF08B3A08A60B9002240F22771206880
:101BE000FFF735FF012240F226612068FFF72FFF43
:101BF00037E0638A6268D15C2068FFF7BCFF608AC7
:101C0000401C80B26082A189884201DB0020608292
:101C1000A08A401EA08224E040F226612068FFF7DF
:101C2000ECFEF0B1A08A50B9002240F22661206893
:101C3000FFF70DFF206AA0B1206A804711E0638A98
:101C40006268D15C2068FFF796FF608A401C80B212
:101C50006082A189884201DB00206082A08A401E48
:101C6000A08270BDF8B504460E461746002525E053
:101C70000CE001F07FFBA08A009001F0A5FBA08999
:101C8000BDF80010884200DD01E000BFF1E700BFB1
:101C9000705D228A6168885401F06CFB208A401CC8
:101CA00080B22082A189884201DB00202082A08AA4
:101CB000401CA08201F088FB681C85B2BD42D7DBC6
:101CC000012240F227712068FFF7C1FEF8BD000035
:101CD0000A480B4908600B4848600B4888604FF47D
:101CE00080608881C881002008824882C882088379
:101CF00048838882C86108624862704700100140CA
:101D0000A0010020C8010020C805002000BFFEE798
:101D10000FB4054B10B503A9044A029800F018F857
:101D200010BC5DF814FB00008B240008E0000020CC
:101D300002E008C8121F08C1002AFAD17047704794
:101D4000002001E001C1121F002AFBD170470000F2
:101D50002DE9FF4F8BB09A460F460446002606E059
:101D600025280BD052460D999047641C761C20788C
:101D70000028F5D10FB03046BDE8F08F0025A94608
:101D800001227D4900E0054314F8013F203B02FA9F
:101D900003F00842F7D120782E2817D114F8010F4C
:101DA00045F004052A280ED06FF02F022078A0F10C
:101DB000300109290AD809EB890102EB410100EB46
:101DC0000109641CF2E757F8049B641C20786C2816
:101DD0000DD004DC4C2812D06A2811D104E07428FC
:101DE0000DD07A280CD10AE045F4001507E061789F
:101DF00045F48015814202D1641C05F58015641CF0
:101E0000207869283ED006DC0028B3D063280BD0A8
:101E1000642804D136E0732810D075285CD052466F
:101E20000D999047761CA5E017F8040B8DF800007B
:101E300000208DF80100E846012003E057F8048BEC
:101E40004FF0FF3069074FF0000501D40AE06D1C28
:101E50004D450DDA8542FADB18F805100029F6D158
:101E600006E06D1C8542FCDB18F805100029F8D14E
:101E70002E4404E018F8010B52460D9990476D1E50
:101E8000F8D277E000200A90C5F302504FF00A0B19
:101E900002280CD001CFC117021E71F100020CDA2A
:101EA0000023D0EB030063EB01012D2208E0FF1DAE
:101EB00027F00707F7E80201EEE72A0504D52B22F1
:101EC0008DF82420012203E0EA070FD02022F7E753
:101ED0000DF12008089218E000200A90C5F3025086
:101EE0004FF00A0B022803D001CF00210022EFE7B8
:101EF000FF1D27F00707F7E80201F7E75A460A9B9C
:101F0000FEF7E0F9303208F8012D50EA0102F5D170
:101F1000ADEB080000F1200B680701D44FF0010978
:101F2000D94502DDA9EB0B0000E000208146002529
:101F300006E009A85246405D0D9990476D1C761C3D
:101F400008988542F5DB04E0302052460D99904711
:101F5000761CB9F10001A9F10109F5DC05E018F8DA
:101F6000010B52460D999047761CBBF10001ABF175
:101F7000010BF4DC641CFAE60928010010B54FF4EB
:101F8000806005490880012001F0EEFA4FF480607E
:101F90000149891C088010BD180C024070B5054627
:101FA000304800EB05142068804700283ED0207997
:101FB000012802DA0120207152E02079022803DA98
:101FC0002079401C20714BE0A07A38B90120A07222
:101FD00005EB4501491CC8B200F09AF92089002898
:101FE0003EDDE088218988420DDAE088401C80B21D
:101FF000E0802189884233D105EB4501C91CC8B274
:1020000000F086F92CE0E07A002829DD207B401CD6
:10201000C0B22073E17A884222DB0020207305EBF6
:102020004501491CC8B200F073F919E02079012874
:1020300002DD0120207110E0207918B12079401EC6
:1020400020710AE0A07A012807D10020A07205EBD8
:102050004501891CC8B200F05BF90020E0802073C4
:1020600070BD0000700100200B48C0780A4A127948
:10207000904201D1002070470748C078064A115CA1
:102080001046C078401CC0B2D070032801DB00208D
:10209000D0700846EFE700004800002010B54FF46C
:1020A0004070FFF755FAFFF7F7FBA82000F080F922
:1020B00000F0F4F805A0FFF72BFE00F081F800F027
:1020C000E3F800F009F8FEF72FFE10BD696E6974A1
:1020D000204F4B210D0A000000B589B001210220DC
:1020E000FFF740FA09220C213348FEF7E1FC0922F0
:1020F0000D213148FEF7DCFC4FF4805007900220A0
:102100008DF820008DF8210000208DF8220001209C
:102110008DF8230007A92848FEF782FC4FF40050F1
:10212000079007A92448FEF77BFC01214806FFF72A
:1021300029FA01218806FFF725FA2048FEF7F8F969
:1021400000208DF816008DF817008DF818008DF816
:1021500019008DF81A008DF81B008DF812008DF80B
:1021600013000B208DF8140007208DF815000220B5
:10217000ADF8100004A91148FEF783FA0E208DF87F
:102180000A0000208DF80B0001208DF80C000020C3
:10219000ADF80000ADF80200ADF80400ADF806009F
:1021A000ADF8080001208DF80D006846FEF7DCF957
:1021B00000F0BEF809B000BD000402400068004015
:1021C00010B500F02DF800F001F810BD1CB501218C
:1021D0001120FFF7C7F900208DF804008DF80600E4
:1021E00001208DF8070002208DF8050010200090D6
:1021F00069460948FEF714FC082000906946064825
:10220000FEF70EFC02208DF80700012000906946C1
:102210000248FEF705FC1CBD001002400000024011
:102220000021144AD17011715171002017E064210E
:10223000114A02EB0012118100210F4A02EB001239
:1022400011710D4A02EB001291720B4A02EB00125F
:10225000D172094A02EB00121173411CC8B2032863
:10226000E5DB0649044A116005491161054911621F
:102270007047000048000020700100206D0C00082D
:10228000850C00089D0C000810B5FEF713FD012019
:1022900000F01AF8022000F017F810BD10B5FFF793
:1022A00017FDFEF78DFCFFF711FAFEF79BFB10BD43
:1022B00010B5002404E02046FFF770FE601CC4B295
:1022C000032CF8DB10BD000010B50446012C04D12E
:1022D00040210548FEF711FC05E0022C03D18021C6
:1022E0000148FEF70AFC10BD0000024010B504468C
:1022F000012C04D140210548FEF7FDFB05E0022C2E
:1023000003D180210148FEF7F6FB10BD000002401A
:1023100006490979054A505411460979491CC9B240
:102320001171032901DB0021117170474800002061
:1023300008B540208DF8000001208DF80100002034
:102340008DF8020001208DF803006846FFF7C4F8FD
:10235000012202210148FEF78BF908BD0068004008
:102360002DE9F04105460E4617462846FEF71EFBAE
:1023700004460CB9BDE8F081E06908B1E069804726
:102380003A4631462046FFF76DFC00BFF2E713B531
:102390000446012201A92046FFF7E2FF1CBD0146C9
:1023A000B42000EBC1324000B2FBF0F080B27047C5
:1023B00010B504466FF00400FFF740FAE11704EB94
:1023C0005171C1F3C701074A11701046007800EB44
:1023D0004001C1EBC0104FF6FF7101EAC000024995
:1023E000088010BD400000204200002070B5044667
:1023F0004FF4077094FBF0F0C6B24FF4077094FBF3
:10240000F0F100FB114085B205E04FF4077000F0D9
:1024100009F8701EC6B2002EF7D115B1284600F09B
:1024200001F870BD0146114A12884A434FF0E0237B
:102430005A6100229A611A46126942F001021A6139
:1024400000BF4FF0E022106900F001021AB100F461
:102450008032002AF5D04FF0E022126922F001020A
:102460004FF0E0231A6100229A6170474200002079
:102470000246501AB0F5804F01DDA0F5004010F57E
:10248000804F01DA00F50040704770B504460D46F4
:10249000E1B20020FFF77BFF204670BD012080F3F2
:1024A000108800BFFDF7B0FFFDF770FFFFF7F6FDE6
:1024B00001F0D6F900BFFEE70FB410B59DF8130088
:1024C0009B284BD01CDC90286FD00CDC812865D079
:1024D00004DC19286AD0802869D15DE088285CD0A6
:1024E0008C28F9D15BE094287DD004DC91287BD046
:1024F0009228F1D137E1952877D09A28ECD10FE0D6
:102500009C38162853D2DFE800F0535252525452EE
:1025100055565758595A5B525252525252527FB6E0
:102520009DF8140040B2B64908709DF815109DF84A
:10253000160001EB002000B2B14948809DF8171049
:102540009DF8180001EB002000B2AD4988809DF88D
:10255000190088719DF81A00C8714CE19DF81400AB
:1025600040B2A74908709DF815109DF8160001EBC0
:10257000002000B2A24948809DF817109DF818006D
:1025800001EB002000B29E4988809DF819008871F7
:102590009DF81A00C8712EE12DE12CE12BE19DF888
:1025A0001400974981F8480025E19BE0D2E021E141
:1025B00000BF00BF00BF00BF00BF00BF00BF00BF23
:1025C0009DF8140040B28E4908709DF815109DF8D2
:1025D000160001EB002000B2894908819DF8171010
:1025E0009DF8180002E0F3E0B3E002E101EB002007
:1025F00000B2834948819DF819109DF81A0001EB3B
:1026000000207F498881F6E09DF81400102804D04E
:1026100012280CD014282CD11AE09DF817109DF820
:10262000180001EB002000B27549888521E09DF873
:1026300017109DF8180041EA00219DF8190041EAA1
:1026400000419DF81A0041EA00606D49086310E0FE
:102650009DF817109DF8180041EA00219DF8190017
:1026600041EA00419DF81A0041EA0060644948636C
:1026700000BF00BFBFE09DF81400102804D012284E
:102680000CD014282CD11AE09DF817109DF81800D2
:1026900001EB002000B25A49888521E09DF817100F
:1026A0009DF8180041EA00219DF8190041EA004117
:1026B0009DF81A0041EA00605149086310E09DF856
:1026C00017109DF8180041EA00219DF8190041EA11
:1026D00000419DF81A0041EA00604949486300BF83
:1026E00000BF88E09DF815109DF8160041EA002013
:1026F000434988819DF817109DF8180041EA002091
:102700003F4908839DF819109DF81A0041EA0020FE
:102710003B4948830846808900EE100AB8EE400A1B
:10272000DFED380A20EE200ADFED370A80EE201AAE
:10273000084680ED131A3548007848B134480068DF
:1027400030B10023022219463148006801F0BEFD75
:1027500051E050E09DF819109DF81A0001EB00209F
:102760002749488347E09DF8140000239DF8152071
:10277000190241EA126114021A460B4640EA0401AA
:1027800042EA03009DF816300022120442EA134286
:102790001C04034641EA04001A439DF81730002147
:1027A000090641EA13211C06134640EA04021943B4
:1027B0009DF8180001439DF8190041EA00209DF89A
:1027C0001A100B04114618430D4AC2E9081012E012
:1027D0009DF817109DF8180041EA00219DF8190096
:1027E00041EA00419DF81A0041EA0060044988620C
:1027F00001E000E000BF00BF10BC5DF814FB00006A
:10280000100100200000B443000000473200002007
:102810002800002010B504460E48006844600E48A9
:102820000068844207D20B480168091D0B48006804
:1028300000F07AFD0CE007480168091D08480068AF
:1028400000F072FD07480068844201D20548046028
:1028500010BD000074000020880000207C000020D3
:1028600078000020A40000202DE9F04105460F4625
:102870001FB9A80000F010FC00E03846064656B12B
:102880005C2000F009FC04460CB1266304E03046ED
:1028900000F0B8FD00E0002424B1A900A522206BBF
:1028A000FDF7FEFC2046BDE8F081000010B500F009
:1028B00061FD1348006800BB124800F025FD124876
:1028C00000F022FD0F48114908600F4810490860C8
:1028D000002210210A2001F04FF90949086008463A
:1028E000006850B900BF102080F31188BFF34F8FEC
:1028F000BFF36F8F00BF00BFFEE700F065FD10BDA6
:10290000B4000020A40A0020B80A0020AC00002077
:10291000B000002070B523E000F0E6FF1348006827
:1029200008B9012000E00020054601F0C3FEBDB952
:1029300000F020FD0D48C068C468201D00F0D0FCE8
:102940000B480068401E0A4908600A480068401E9B
:102950000849086000F038FD204600F062F800BF2A
:10296000044800680028D7D170BD00007C0A002010
:10297000840000208000002070B504460D46206CC5
:1029800070B1216CE0680844E0606168E0688842EA
:1029900001D32068E0602846226CE168FDF76EFCF8
:1029A00070BD2DE9F04104460E4615460027206C07
:1029B00040B9206878BB606801F0CCFD0746002074
:1029C000606028E07DB93146226CA068FDF756FCB6
:1029D000216CA0680844A060D4E9011088421AD391
:1029E0002068A06017E03146226CE068FDF746FCE5
:1029F000216CE068401AE0602168E068884203D2F8
:102A0000216C6068401AE060022D04D1A06B10B107
:102A1000A06B401EA063A06B401CA0633846BDE8BD
:102A2000F08110B50446206B00F0ECFC204600F06D
:102A3000E9FC10BD0146084A126812680AB9012271
:102A400000E000220A600A6822B9034A1268D268CC
:102A5000106800E000207047AC00002030B54FF453
:102A6000F043174800F007042CB1C01D20F0070008
:102A7000134C041B1B1B0246124C22600024114DF8
:102A80006C60D018083820F007000F4C206000243C
:102A90000D4D2D686C600C4D2D682C601146441A4C
:102AA0004C60094C24680C60084D4C682C60084D43
:102AB0004C682C604FF00044064D2C6030BD000087
:102AC000CC0A0020BC000020C4000020CC00002064
:102AD000C8000020D000002000BFFFF71BFF064801
:102AE00000680128F9D94FF0805004490860BFF30D
:102AF0004F8FBFF36F8FF0E7C809002004ED00E0AF
:102B00002DE9F04704460F4615469946DDF820802A
:102B1000002607E0B95D04F134008155B85D00B9C5
:102B200002E0761C102EF5D300BF00214320015592
:102B3000062D00D30525E562E56400202065201DF3
:102B400000F0EFFB04F1180000F0EBFB2461C5F18D
:102B50000600A06164620020606584F85800BDE84A
:102B6000F087000010B5002407E004EB84010F4A51
:102B700002EB810000F0C8FB641C062CF5D30C4866
:102B800000F0C2FB0B4800F0BFFB0B4800F0BCFBA1
:102B90000A4800F0B9FB0A4800F0B6FB04480949AE
:102BA000086004480849086010BD0000C8090020FA
:102BB000400A0020540A0020680A00207C0A0020F5
:102BC000900A0020780000207C00002010B501460B
:102BD000164800E0006803688B42FBD30246436856
:102BE00013448B4204D143684C682344436001463C
:102BF0000A464B6813440468A34211D10C4C036885
:102C00002468A34208D04B680468646823444B607E
:102C100003681B680B6005E0054B1B680B6001E057
:102C200003680B60884200D0016010BDBC0000202A
:102C3000C40000202DE9F04104460D4616461F460B
:102C40004FF0000865602461B5420CD8F01BA16903
:102C5000884202D34FF0010811E0211D09480068A5
:102C600000F062FB0BE0BE4204D2BD4202D34FF043
:102C7000010804E0211D0448006800F055FB4046AF
:102C8000BDE8F081B0000020AC00002070B5054622
:102C900000F070FBA86B08B9012400E0002400F0EC
:102CA00093FB204670BD70B5054600F063FBA86B32
:102CB000E96B884201D1012400E0002400F084FB8C
:102CC000204670BDF8B505460F4616480068C06836
:102CD000C468201D00F004FBE06901281ED1A06932
:102CE00041192B463A462046FFF7A4FF012815D18B
:102CF000002003462A4601460090204601F0B8FD18
:102D0000064656B900BF102080F31188BFF34F8FDD
:102D1000BFF36F8F00BF00BFFEE700BF2046616AB0
:102D20008847F8BDAC000020F0B587B080E003987C
:102D3000002811DA04AE56B900BF102080F31188C4
:102D4000BFF34F8FBFF36F8F00BF00BFFEE7D6E921
:102D50000020B168904700BF0398002868DB059CFD
:102D6000606908B9012000E0002010B9201D00F0C2
:102D7000B7FA02A800F0BEF8054603980A2855D213
:102D8000DFE800F00905073234500608333500BF8C
:102D900000BF00BF00BF0498A269811803462A46FD
:102DA0002046FFF747FF01281DD12046616A88476A
:102DB000E069012817D1002000900498A169421809
:102DC00000231946204601F053FD074657B900BFBE
:102DD000102080F31188BFF34F8FBFF36F8F00BFB8
:102DE00000BFFEE700BF22E000BF20E000BF049864
:102DF000A061A06908B1012000E0002050B900BF27
:102E0000102080F31188BFF34F8FBFF36F8F00BF87
:102E100000BFFEE7A06941192B462A462046FFF76E
:102E200009FF04E0204600F0EDFA00E000BF00BF1B
:102E300000231A4603A90448006800F0E1FE0028B8
:102E40007FF475AF07B0F0BDB4000020F8B50546BB
:102E50000C4600F049FD684600F04CF80646009824
:102E600020BB44B9B54206D801F024FC31462846BF
:102E7000FFF728FF1CE03CB10E480068006808B965
:102E8000012000E000200446A91B22460A480068F1
:102E900000F048FB01F00EFC50B94FF0805007499C
:102EA0000860BFF34F8FBFF36F8F01E001F002FCAA
:102EB000F8BD0000B0000020B400002004ED00E0E8
:102EC0000A490968096809B9012100E0002121B116
:102ED0004FF0FF31064A116006E004490968C968ED
:102EE000C868034A416811607047000078000020FC
:102EF000A400002070B5044601F080FA054607489A
:102F00000068854204D200F00BF80120206001E047
:102F10000020206001480560284670BDB8000020F0
:102F20002DE9F84332E024480068C068056822486B
:102F30000068C068C468201D00F0D2F92046616AAC
:102F40008847E069012821D1A0694619AE4207D916
:102F500066602461211D1848006800F0E5F915E05D
:102F6000002003462A4601460090204601F080FCDE
:102F7000074657B900BF102080F31188BFF34F8F69
:102F8000BFF36F8F00BF00BFFEE700BF0A480068B5
:102F9000006808B9012000E000200028C3D00648DE
:102FA000D0F8008005480068034908600348C0F86D
:102FB0000080BDE8F8830000AC000020B0000020D5
:102FC0000E480068401C08B9012000E0002050B9FC
:102FD00000BF102080F31188BFF34F8FBFF36F8FB6
:102FE00000BF00BFFEE700BF102080F31188BFF3D1
:102FF0004F8FBFF36F8F00BF00BFFEE7D4000020EC
:1030000008B500BF6846FFF715FD04462046009945
:10301000FFF71CFFFFF788FEF4E710B5044600F049
:10302000A9F911E0606A08B9012000E0002038B970
:1030300004F1240001F0F2FA18B100F0FBFA00E00C
:1030400005E0A06C401EA064A06C0028EADC00BF74
:103050004FF0FF30A06400F0B7F900F08BF911E0F9
:10306000206908B9012000E0002050B904F11000E7
:1030700001F0D4FA08B100F0DDFA606C401E606423
:1030800000E002E0606C0028EADC00BF4FF0FF3097
:10309000606400F099F910BD2DE9F04104464FF04D
:1030A000000800F021FC4648006808B9FFF7D6FC8C
:1030B00044480068204000286BD1D4B1083404F0A3
:1030C0000700B0B104F00700C0F10800044404F0A8
:1030D000070008B9012000E0002050B900BF10200F
:1030E00080F31188BFF34F8FBFF36F8F00BF00BF16
:1030F000FEE7002C4DD034480068844249D8334E56
:103100003046056801E02E462D686868A04202D26C
:1031100028680028F7D12A480068854239D03068ED
:1031200000F10808286830606868001B102819D969
:103130002F1907F0070008B9012000E0002050B95E
:1031400000BF102080F31188BFF34F8FBFF36F8F44
:1031500000BF00BFFEE76868001B78606C603846FF
:10316000FFF734FD184968680968081A16490860AD
:103170000846006816490968884203D21248006868
:10318000134908600F4968680968084368600020AF
:10319000286001F08FFA08F0070008B9012000E06C
:1031A000002050B900BF102080F31188BFF34F8F6B
:1031B000BFF36F8F00BF00BFFEE74046BDE8F08160
:1031C000C4000020D0000020C8000020BC00002067
:1031D000CC0000200648006830B10549096801F1BB
:1031E0005000096D491C01600148006870470000EB
:1031F00074000020001F4FF080730360001F016007
:10320000001F054B036014380260001F6FF00203BB
:103210000360203870470000C12F00082DE9F041FD
:1032200006460C4600F0A6F828480068406D68BBCA
:1032300001202649096881F858003CB323480068FA
:10324000001D00F04DF850B92048006890F82C108F
:10325000012088401E49096881431D480160601CA7
:1032600030B91A480168091D1A4800F077F805E0DE
:103270001948006807193846FFF7CCFA4FF080501C
:1032800016490860BFF34F8FBFF36F8F00F09CF8B3
:1032900000F070F80D480068456D65B126B100205A
:1032A0000A490968486506E00849096801F15400BF
:1032B000496D491E016000200449096881F85800E1
:1032C00000F082F82846BDE8F0810000740000207C
:1032D0008C000020900A00208800002004ED00E00F
:1032E00001460A69D1E901309860D1E901035860CB
:1032F0005068884201D188685060002008611068D9
:10330000401E10601068704700F1080141604FF0E6
:10331000FF31816000F10801C1600161002101609D
:10332000704700210161704710B502460B685C1CB4
:103330000CB9106907E002F1080000E04068446839
:1033400024689C42FAD944684C604C68A16088604B
:1033500041600A611468641C146010BD42684A60D0
:1033600093688B60936859609160086103685B1C87
:103370000360704700BF102080F31188BFF34F8FA8
:10338000BFF36F8F00BF0E480068401C0C490860F7
:1033900008460068012812D10A480068C0B208B97E
:1033A000012000E0002050B900BF102080F31188F8
:1033B000BFF34F8FBFF36F8F00BF00BFFEE77047B3
:1033C000D400002004ED00E00D48006850B900BFB3
:1033D000102080F31188BFF34F8FBFF36F8F00BFB2
:1033E00000BFFEE706480068401E05490860084621
:1033F000006820B9002080F3118800BF00BF70472B
:10340000D400002070B506463546002E3FD0083D5A
:103410002C461F4960680968084008B1012000E097
:10342000002050B900BF102080F31188BFF34F8FE8
:10343000BFF36F8F00BF00BFFEE7206808B901200F
:1034400000E0002050B900BF102080F31188BFF3C6
:103450004F8FBFF36F8F00BF00BFFEE70C4960685E
:103460000968084098B1206888B909496068096806
:103470008843606000F038FA0649606809680844CB
:10348000044908602046FFF7A1FB01F013F970BD65
:10349000D0000020C800002003484FF0E021486120
:1034A00007200861704700003F90020070B5FCF7EC
:1034B000CFFE0446102C16D304F1E02090F8F05310
:1034C00015480078854201DB012000E0002050B95A
:1034D00000BF102080F31188BFF34F8FBFF36F8FB1
:1034E00000BF00BFFEE70D48006800F4E0600C4933
:1034F0000968884201D8012000E0002050B900BFCF
:10350000102080F31188BFF34F8FBFF36F8F00BF80
:1035100000BFFEE770BD0000D80000200CED00E009
:10352000DC0000202DE9F04105460E4617462C46EA
:10353000FFF720FF606C401C08B900206064A06C9D
:10354000401C08B90020A064FFF73EFFA06B28B91B
:103550003A46314604F1240000F0C8F82046FFF74F
:103560005CFDBDE8F081000070B5044600266CB338
:103570001B48006808B9012000E0002050B900BFD6
:10358000102080F31188BFF34F8FBFF36F8F00BF00
:1035900000BFFEE700F0A8F91248006805191248BC
:1035A0000068001DFFF79CFE50B90F48006890F8B6
:1035B0002C10012088400D49096881430B480160A7
:1035C0002846FFF727F901F075F806463EB94FF097
:1035D000805007490860BFF34F8FBFF36F8F70BDF6
:1035E000A800002088000020740000208C0000202B
:1035F00004ED00E01BE00E48007830B10120FEF73A
:1036000075FE0220FEF760FE05E00120FEF75CFE7D
:103610000220FEF76BFE0648007808B9012000E0A2
:103620000020034908704FF4FA70FFF79DFFE2E7AE
:103630002400002001200149086070479800002004
:1036400086B012E000235A1E01A90848006800F065
:10365000D7FA0446012C05D10598009001A80FC89F
:10366000FEF72AFF0120FFF77FFFEBE714000020A1
:1036700070B505460C4655B900BF102080F311887F
:10368000BFF34F8FBFF36F8F00BF00BFFEE713483C
:10369000016818312846FFF747FE10480068001DF2
:1036A000FFF71EFE50B90D48006890F82C1001205D
:1036B00088400B490968814309480160601C30B9A2
:1036C00006480168091D0748FFF748FE05E006485F
:1036D000006806193046FFF79DF870BD74000020A1
:1036E0008C000020900A0020880000202DE9F04185
:1036F00004460D46164654B900BF102080F31188C9
:10370000BFF34F8FBFF36F8F00BF00BFFEE71448BA
:10371000016818312046FFF721FE11480068001D9E
:10372000FFF7DEFD50B90E48006890F82C1001201C
:1037300088400C49096881430A480160012E06D17E
:1037400007480168091D0848FFF708FE05E007481B
:10375000006847193846FFF75DF8BDE8F0810000C2
:10376000740000208C000020900A002088000020B7
:1037700070B505462C46002D4BD02649E06A0968F5
:10378000C96A884245D2A06900F0004028B92148A2
:103790000068C06AC0F10600A061E16A01EB810126
:1037A0001D4A02EB81016069884201D1012000E0DD
:1037B000002050B3201DFFF793FD78B9E06A00EBBD
:1037C0008000154951F8200040B994F82C100120D0
:1037D0008840124909688143104801600D4800681B
:1037E000C06AE06294F82C10012088400B490968F7
:1037F00008430A490860E16A01EB8101064A02EBCD
:103800008100211DFFF7AAFD03E002480068C06A9D
:10381000E06270BD74000020C80900208C00002008
:1038200050B900BF102181F31188BFF34F8FBFF350
:103830006F8F00BF00BFFEE70349096801600349BD
:1038400009684160704700009C000020880000204B
:1038500004E0FEF72DFD0A20FFF786FEF9E70000E1
:103860001FB500200090019002900346802218A10D
:103870000390194800F072FC0446012C02D100F0BC
:10388000CBFF0446012C15D100BF102080F3118816
:10389000BFF34F8FBFF36F8F00BF4FF0FF300F4963
:1038A000086001200E49086000200E49086000F001
:1038B0008BF80BE054B900BF102080F31188BFF3E0
:1038C0004F8FBFF36F8F00BF00BFFEE71FBD00002B
:1038D00049444C4500000000D92A0008A4000020FB
:1038E000900000208800002002480068401C014928
:1038F00008607047A80000201D48006818B101202A
:103900001C49086032E000201A4908601A48006823
:10391000B0FA80F0C0F11F0101EB8100174A52F8A4
:10392000200008B1012000E0002050B900BF1020A5
:1039300080F31188BFF34F8FBFF36F8F00BF00BFBD
:10394000FEE701EB81020D4B03EB820042685268F7
:10395000426000F108024368934202D14268526813
:1039600042604268D268064B1A6000BF7047000090
:10397000A8000020980000208C000020C80900202A
:103980007400002010B50446FDF7F8F910BD0000E2
:1039900010B504460348007818B103480068FDF7E5
:1039A000AFFE10BD320000202C00002010B51C20FE
:1039B000FFF772FB044624B100202060201DFFF7B2
:1039C000A3FC204610BD00001CB5474800684749CD
:1039D000884201D0012000E0002050B900BF102033
:1039E00080F31188BFF34F8FBFF36F8F00BF00BF0D
:1039F000FEE73D4800683D49491E884201D001204C
:103A000000E0002050B900BF102080F31188BFF300
:103A10004F8FBFF36F8F00BF00BFFEE734490846EA
:103A200000780190FF200A46107008460078009048
:103A30009DF8000000F0F0009DF80020904201D1B8
:103A4000012000E0002050B900BF102080F3118851
:103A5000BFF34F8FBFF36F8F00BF00BFFEE79DF82E
:103A6000000000F01000234A10700720224A106066
:103A700009E021480068401E1F4A10609DF80000C0
:103A80004006000E00909DF8000000F080008028A5
:103A9000EFD0194800680002174A106010460088ED
:103AA00000F4E0601060124A019810700E48203057
:103AB000006840F470000C49203108600846006836
:103AC00040F070400860FFF7E7FC00200B490860F9
:103AD000FCF786FB0A48006840F04040084908604F
:103AE000FCF76EFB00201CBD00ED00E071C20F4131
:103AF00000E400E0D8000020DC000020D40000201A
:103B000034EF00E070B505460E460DB1012000E02F
:103B1000002050B900BF102080F31188BFF34F8FF1
:103B2000BFF36F8F00BF00BFFEE7AE4201D8012098
:103B300000E0002050B900BF102080F31188BFF3CF
:103B40004F8FBFF36F8F00BF00BFFEE7022200213F
:103B5000284600F011F8044604B1A66354B900BF2A
:103B6000102080F31188BFF34F8FBFF36F8F00BF1A
:103B700000BFFEE7204670BD2DE9F04706460D4622
:103B800090464FF000090EB1012000E0002050B92E
:103B900000BF102080F31188BFF34F8FBFF36F8FEA
:103BA00000BF00BFFEE70DB9002702E006FB05F0ED
:103BB000471C07F15400FFF76FFA044674B10DB9C2
:103BC000246002E004F154002060E66325640121D2
:103BD000204600F0EBF884F85080A146B9F1000FC0
:103BE0000AD100BF102080F31188BFF34F8FBFF3BD
:103BF0006F8F00BF00BFFEE74846BDE8F0870000BA
:103C00002DE9FF4383B005460E461F464FF00009DD
:103C10002C4654B900BF102080F31188BFF34F8F9A
:103C2000BFF36F8F00BF00BFFEE70EB9206C08B96D
:103C3000012000E0002050B900BF102080F311885F
:103C4000BFF34F8FBFF36F8F00BF00BFFEE700F0E1
:103C5000C5FB08B9059808B9012000E0002050B95B
:103C600000BF102080F31188BFF34F8FBFF36F8F19
:103C700000BF00BFFEE700BFFFF77CFBA06BE8B30F
:103C8000D4F80C8031462046FEF776FEDFB9A06BF3
:103C9000401EA063206810B9FFF79CFA606020699D
:103CA00008B9012000E0002010BB04F1100000F072
:103CB000B5FC01281CD100073B490860BFF34F8FBA
:103CC000BFF36F8F14E0C4F80C80606A08B901205C
:103CD00000E0002060B904F1240000F09FFC38B13E
:103CE0004FF0805030490860BFF34F8FBFF36F8FA4
:103CF000FFF76AFB012007B0BDE8F083FFE70598F6
:103D000018B9FFF761FB0020F5E7B9F1000F04D106
:103D100001A8FFF785FD4FF00109FFF755FBFFF7FD
:103D2000E3FDFFF727FB606C401C08B900206064CE
:103D3000A06C401C08B90020A064FFF745FB05A952
:103D400001A800F0C5F940BB2046FEF79FFFF0B187
:103D5000206830B9FFF70EFB6068FFF709FDFFF739
:103D600033FB04F124000599FFF782FC2046FFF79E
:103D700054F900F09FFC00287FF47EAF4FF0805094
:103D800009490860BFF34F8FBFF36F8F74E7204678
:103D9000FFF743F900F08EFC6EE72046FFF73DF990
:103DA00000F088FC0020A6E704ED00E070B50546B1
:103DB0000E462C4654B900BF102080F31188BFF383
:103DC0004F8FBFF36F8F00BF00BFFEE7FFF7D2FA40
:103DD000D4E90F12206801FB020060600020A0639C
:103DE0002068A060E06B401E226C216800FB02107E
:103DF000E0604FF0FF306064A0649EB9206908B9AC
:103E0000012000E00020A8B904F1100000F006FC39
:103E100001280FD1000709490860BFF34F8FBFF396
:103E20006F8F07E004F11000FFF76EFA04F1240031
:103E3000FFF76AFAFFF7C8FA012070BD04ED00E051
:103E40002DE9FF4383B0064688461D464FF0000922
:103E5000344654B900BF102080F31188BFF34F8F50
:103E6000BFF36F8F00BF00BFFEE7B8F1000F01D1B5
:103E7000206C08B9012000E0002050B900BF1020DC
:103E800080F31188BFF34F8FBFF36F8F00BF00BF68
:103E9000FEE7022D02D1E06B012801D1012000E0F4
:103EA000002050B900BF102080F31188BFF34F8F5E
:103EB000BFF36F8F00BF00BFFEE700F08FFA08B9B5
:103EC000059808B9012000E0002050B900BF10207B
:103ED00080F31188BFF34F8FBFF36F8F00BF00BF18
:103EE000FEE700BFFFF746FAA06BE16B884201D303
:103EF000022D28D12A4641462046FEF752FD0746AC
:103F0000606A08B9012000E0002068B904F12400CB
:103F100000F084FB012810D1000730490860BFF38E
:103F20004F8FBFF36F8F08E03FB14FF080502B49A8
:103F30000860BFF34F8FBFF36F8FFFF745FA012083
:103F400007B0BDE8F083059818B9FFF73DFA0020E7
:103F5000F6E7B9F1000F04D101A8FFF761FC4FF0BB
:103F60000109FFF731FAFFF7BFFCFFF703FA606CB6
:103F7000401C08B900206064A06C401C08B90020F7
:103F8000A064FFF721FA05A901A800F0A1F8F0B993
:103F90002046FEF788FEA0B104F110000599FFF756
:103FA00067FB2046FFF739F800F084FB002899D121
:103FB0004FF0805009490860BFF34F8FBFF36F8FF8
:103FC00090E72046FFF729F800F074FB8AE72046C7
:103FD000FFF723F800F06EFB0020B1E704ED00E0EE
:103FE0002DE9F04707468A4690461E463C4654B99E
:103FF00000BF102080F31188BFF34F8FBFF36F8F86
:1040000000BF00BFFEE7BAF1000F01D1206C08B974
:10401000012000E0002050B900BF102080F311887B
:10402000BFF34F8FBFF36F8F00BF00BFFEE7022EBD
:1040300002D1E06B012801D1012000E0002050B93D
:1040400000BF102080F31188BFF34F8FBFF36F8F35
:1040500000BF00BFFEE7FFF729FA00BF1021EFF312
:10406000118081F31188BFF34F8FBFF36F8F00BFB3
:104070000546A06BE16B884201D3022E1FD1324668
:1040800051462046FEF78DFCA06C401C88B9606A42
:1040900008B9012000E0002070B904F1240000F00C
:1040A000BDFA48B1B8F1000F06D00120C8F80000F1
:1040B00002E0A06C401CA0644FF0010901E04FF049
:1040C000000900BF85F3118800BF4846BDE8F087AE
:1040D00070B504460D4654B900BF102080F3118816
:1040E000BFF34F8FBFF36F8F00BF00BFFEE755B91F
:1040F00000BF102080F31188BFF34F8FBFF36F8F85
:1041000000BF00BFFEE7FFF735F9124803682868D3
:10411000401C08B9002619E00F4920680968884248
:1041200004D06068984201D801260FE06068181A30
:104130002968884209D228686168591A401A28609B
:104140002046FFF76DFB002600E00126FFF73CF953
:10415000304670BD880000209C0000202DE9FF4FF4
:1041600081B0804616469A46DDE90E5BB8F1000F35
:104170000AD100BF102080F31188BFF34F8FBFF327
:104180006F8F00BF00BFFEE7062D01D2012000E0C7
:10419000002050B900BF102080F31188BFF34F8F6B
:1041A000BFF36F8F00BF00BFFEE730461099FEF7E8
:1041B0005BFB0446002C64D0701E216B01EB800970
:1041C00029F0070909F0070008B9012000E00020E4
:1041D00050B900BF102080F31188BFF34F8FBFF399
:1041E0006F8F00BF00BFFEE700962A462046119B56
:1041F0000299FEF785FC524641464846FEF7FAFF13
:104200002060BBF1000F01D0CBF80040FFF7B2F8FF
:1042100027480068401C264908602648006840B9C5
:10422000244804600846006801280CD1FEF79AFC77
:1042300009E02148006830B91E480068C06AA842F9
:1042400001D81C4804601D480068401C1B490860D8
:1042500008460068606494F82C10012088401849D2
:104260000968084316490860E16A01EB8101154AB3
:1042700002EB8100211DFFF771F80127FFF7A4F879
:1042800001E04FF0FF37012F0ED10B48006858B105
:1042900008480068C06AA84206D238070A49086080
:1042A000BFF34F8FBFF36F8F384605B0BDE8F08F77
:1042B000840000207400002090000020A000002056
:1042C0008C000020C809002004ED00E02DE9F04733
:1042D00006460D46174698464FF0010A56B900BFEC
:1042E000102080F31188BFF34F8FBFF36F8F00BF93
:1042F00000BFFEE73446FFF73DF8B8F1000F02D0EB
:10430000606DC8F8000094F85890022084F85800B6
:10431000052F17D2DFE807F01503070B0D00606DBE
:10432000284360650EE0606D401C60650AE06565CD
:1043300008E0B9F1020F01D0656501E04FF0000A15
:1043400000E000BF00BFB9F1010F33D1201DFEF71F
:10435000C7FF94F82C1001208840194909680843C8
:1043600017490860E16A01EB8101164A02EB8100FE
:10437000211DFEF7F3FFA06A08B9012000E000202C
:1043800050B900BF102080F31188BFF34F8FBFF3E7
:104390006F8F00BF00BFFEE70B49E06A0968C96A7A
:1043A000884207D94FF0805008490860BFF34F8F0B
:1043B000BFF36F8FFFF708F85046BDE8F0870000A5
:1043C0008C000020C80900207400002004ED00E0EB
:1043D0000149086870470000740000200549096819
:1043E00009B9012005E00449096809B9022000E083
:1043F0000020704790000020A800002001490868B4
:1044000070470000880000202DE9F0414FF00008BF
:1044100045480068002879D144480068401C434959
:1044200008600846066816BB41480068006808B97D
:10443000012000E0002050B900BF102080F3118857
:10444000BFF34F8FBFF36F8F00BF00BFFEE7384849
:1044500007683848006836490860364807603648BB
:104460000068401C34490860FEF72AFD00BF33484D
:10447000006886423CD300BF2D480068006808B938
:10448000012000E0002020B14FF0FF302B490860F0
:104490002DE027480068C068C4686568AE4202D253
:1044A0002648056023E0201DFEF71AFFA06A18B118
:1044B00004F11800FEF714FF94F82C100120884036
:1044C0001F49096808431E490860E16A01EB810140
:1044D0001C4A02EB8100211DFEF740FF1A49E06AE9
:1044E0000968C96A8842C7D34FF00108C4E700BF12
:1044F00015480068C06A00EB8000124951F820009E
:10450000012808D94FF0010805E0FFE70F480068CF
:10451000401C0E4908600E48006808B14FF00108C1
:104520004046BDE8F0810000A8000020880000207F
:10453000780000207C0000209C000020A4000020C7
:104540008C000020C8090020740000209400002086
:104550009800002070B505462C460026002D55D049
:104560002B480068844201D1012000E0002050B9AE
:1045700000BF102080F31188BFF34F8FBFF36F8F00
:1045800000BF00BFFEE7206D50B900BF102080F3D0
:104590001188BFF34F8FBFF36F8F00BF00BFFEE7DF
:1045A000206D401E2065E16CE06A88422ED0206DAF
:1045B00060BB201DFEF794FE78B9E06A00EB800036
:1045C000144951F8200040B994F82C10012088407B
:1045D00011490968814310480160E06CE062E06ABB
:1045E000C0F10600A06194F82C10012088400A490F
:1045F0000968084308490860E16A01EB8101054A3E
:1046000002EB8100211DFEF7A9FE0126304670BD98
:1046100074000020C80900208C00002070B50646F8
:10462000F068C46854B900BF102080F31188BFF34C
:104630004F8FBFF36F8F00BF00BFFEE704F118007C
:10464000FEF74EFE15480068A8B9201DFEF748FE8B
:1046500094F82C100120884011490968084310493A
:104660000860E16A01EB81010E4A02EB8100211D25
:10467000FEF774FE04E004F118010B48FEF76EFE2D
:104680000A49E06A0968C96A884204D901250120FB
:104690000749086000E00025284670BDA8000020FA
:1046A0008C000020C8090020680A00207400002047
:1046B0009800002070B500253648006850B900BF4A
:1046C000102080F31188BFF34F8FBFF36F8F00BFAF
:1046D00000BFFEE7FEF74EFE2E480068401E2D4943
:1046E000086008460068002850D12B480068002860
:1046F0004CD024E02948C068C46804F11800FEF7D3
:10470000EFFD201DFEF7ECFD94F82C1001208840F1
:1047100023490968084322490860E16A01EB8101E5
:10472000204A02EB8100211DFEF718FE1E49E06AB7
:104730000968C96A884202D301201C4908601748E9
:10474000006808B9012000E000200028D2D01848F5
:10475000006878B10AE0FFF757FE10B10120134955
:10476000086013480068401E11490860104800683E
:104770000028F0D10D480068012807D10125000765
:104780000C490860BFF34F8FBFF36F8FFEF71CFE1D
:10479000284670BDA800002084000020680A002080
:1047A0008C000020C8090020740000209800002020
:1047B0009400002004ED00E02DE9F04706460D4688
:1047C00017469846DDF820900DB9002410E02C2003
:1047D000FEF762FC04465CB1FEF768F82660A5614E
:1047E000E761C4F82080C4F82490201DFEF799FDED
:1047F0000DB1012000E0002050B900BF102080F36F
:104800001188BFF34F8FBFF36F8F00BF00BFFEE76C
:104810002046BDE8F08700001FB50024FEF746F8EB
:104820000F48006868B100200523CDE900300290F0
:1048300003464FF480720BA103900C48FFF78EFCE7
:10484000044654B900BF102080F31188BFF34F8F86
:10485000BFF36F8F00BF00BFFEE7204604B010BD5E
:10486000B4000020546D72205376630001300008BC
:104870002DE9FF4704460D4616461F46DDF83080F9
:104880004FF0000954B900BF102080F31188BFF326
:104890004F8FBFF36F8F00BF00BFFEE71448006863
:1048A00010B3009501960294062D15DAFFF796FDD8
:1048B000022808D10023424669460D480068FFF7E8
:1048C000BFFA814610E000231A466946084800688E
:1048D000FFF7B6FA814607E000233A4669460448E6
:1048E0000068FFF77DFB8146484604B0BDE8F087CD
:1048F000B40000201449000800000020E40000007B
:10490000301D0008F8490008E4000020EC85000094
:10491000401D000800000000000000000000000032
:104920000000000000000000000000000000000087
:104930000000000000000000000000000000000077
:104940004101000090010000000000000000000094
:104950000000000000000000000000000000000057
:104960000000000000000102030401020304060726
:1049700008090000007A030A00000000000000009F
:1049800001020304060708090000000000000000FF
:104990000000000000000000000000000000000017
:1049A0000000000000000000000000000000000007
:1049B00000000000000000000000000000000000F7
:1049C00000000000000000000000000000000000E7
:1049D00000000000000000000000000000000000D7
:1049E0000000000000000000AAAAAAAA000000001F
:0849F0000000000000000000BF
:040000050800018965
:00000001FF
