:020000040800F2
:100000005086002059020008C90B00083D0A00086C
:10001000C50B0008FD0300081D13000800000000C8
:10002000000000000000000000000000A101000826
:100030005B09000800000000F5010008E10E00085F
:1000400073020008730200087302000873020008BC
:1000500073020008730200087302000873020008AC
:10006000730200087302000873020008730200089C
:10007000730200087302000873020008730200088C
:10008000730200087302000873020008730200087C
:10009000730200087302000873020008730200086C
:1000A000730200087302000873020008730200085C
:1000B000730200087302000873020008730200084C
:1000C000730200087302000873020008730200083C
:1000D000730200083D100008730200087302000854
:1000E000730200087302000873020008730200081C
:1000F000730200087302000873020008730200080C
:1001000073020008730200087302000873020008FB
:1001100073020008730200087302000873020008EB
:1001200073020008730200087302000873020008DB
:1001300073020008730200087302000873020008CB
:10014000010400087302000873020008730200082B
:1001500073020008730200087302000873020008AB
:10016000730200087302000873020008730200089B
:10017000730200087302000873020008730200088B
:100180007302000873020008DFF810D000F09AF83C
:100190000048004751170008AFF300805086002048
:1001A0002A4B19680868B0E8F04F80F30988BFF35C
:1001B0006F8F4FF0000080F311887047000000003F
:1001C00006480068006880F3088862B661B6BFF32D
:1001D0004F8FBFF36F8F00DF00BF00BF08ED00E05F
:1001E000DFF80C00016841F470010160704700BF46
:1001F00088ED00E0EFF30980BFF36F8F134B1A68AF
:100200001EF0100F08BF20ED108A20E9F04F10609B
:1002100008B44FF0100080F31188BFF34F8FBFF385
:100220006F8F02F01FFA4FF0000080F3118808BCB6
:1002300019680868B0E8F04F1EF0100F08BFB0EC66
:10024000108A80F30988BFF36F8F70474800002041
:10025000EFF30580704700000648804706480047D6
:10026000FEE7FEE7FEE7FEE7FEE7FEE7FEE7FEE766
:10027000FEE7FEE7D50F00088901000840EA010308
:100280009B0703D009E008C9121F08C0042AFAD24C
:1002900003E011F8013B00F8013B521EF9D2704710
:1002A000D2B201E000F8012B491EFBD270470022B8
:1002B000F6E710B513460A4604461946FFF7F0FF65
:1002C000204610BD064C074D06E0E06840F00103F3
:1002D00094E8070098471034AC42F6D3FFF758FF74
:1002E000F83300081834000838B532240C480023CD
:1002F0000122322100900BA002F0E0FF0B490860C0
:10030000002214210A2002F0B3FA094908600022F1
:1003100014210A2002F0ACFA0649086038BD00003A
:100320000127000854696D6572000000100000206C
:1003300014000020180000201FB500201B4A0123D4
:10034000CDE901200093039003464FF4007218A1F9
:100350001A4802F071FD0020194A0223CDE901205C
:100360000093039003464FF4007216A1184802F060
:1003700063FD0020174A0323CDE901200093039079
:1003800003464FF4007214A1164802F055FD0020F8
:10039000154A0423CDE901200093039003464FF44E
:1003A000007212A1144802F047FD1FBD0400002096
:1003B000765461736B4C454400000000252400080E
:1003C00000000020765461736B55736572494600D6
:1003D000F126000808000020765461736B4D7367A6
:1003E00050726F00712400080C0000207654617375
:1003F0006B53746172740000BD25000800BFFEE7F6
:1004000008B500200090124A0021124800F05BF964
:100410000F48006840F24111884217D10C48007A19
:10042000A0B90B48807A082810D100236A460849F1
:100430000948006802F042FC009838B14FF0805043
:1004400006490860BFF34F8FBFF36F8F08BD0000F0
:10045000C8000020006800401400002004ED00E007
:1004600010B504460B48844209D10121480600F02A
:1004700013FC00214FF0007000F00EFC08E0012199
:10048000880600F009FC00214FF0806000F004FCB9
:1004900010BD00000064004010B50021837A0122E5
:1004A00002FA03F13D4A126842F001023B4B1A6026
:1004B0003A4A1C3212688A43384B1C331A60027B5A
:1004C000CAB9364A0C3212688A43344B0C331A606C
:1004D0004288C38842EA0343304A4032847A42F871
:1004E00034300288838842EA03432C4A4032847ABB
:1004F00002EBC4025360027B012A19D1274A0C3255
:1005000012680A43254B0C331A604288038842EA7A
:100510000343224A4032847A42F83430C2888388C6
:1005200042EA03431D4A4032847A02EBC40253601C
:10053000C27A3AB9194A121D12688A43174B1B1D19
:100540001A6006E0154A121D12680A43134B1B1D60
:100550001A60028932B9114A143212688A430F4B69
:1005600014331A600289012A06D10C4A1432126827
:100570000A430A4B14331A60427B012A06D1074A08
:100580001C3212680A43054B1C331A60034A126876
:1005900022F00102014B1A6010BD0000006600400D
:1005A0001AB143690B43436102E043698B434361E2
:1005B000704730B5024600200023146824F002047E
:1005C0001460146844F00104146000E05B1C54687B
:1005D00004F001041CB94FF6FF74A342F6D154682D
:1005E00004F001040CB900206CE08C79012C04D1DA
:1005F000146844F08004146003E0146824F080045C
:100600001460CC79012C04D1146844F040041460C7
:1006100003E0146824F0400414600C7A012C04D127
:10062000146844F02004146003E0146824F02004EB
:1006300014604C7A012C04D1146844F01004146046
:1006400003E0146824F0100414608C7A012C04D1A7
:10065000146844F00804146003E0146824F00804EB
:100660001460CC7A012C04D1146844F004041460A2
:1006700003E0146824F0040414608C78A407CD7897
:1006800044EA05640D7944EA05444D7944EA055489
:100690000D886D1E2C43D461146824F0010414608D
:1006A000002300E05B1C546804F001041CB14FF609
:1006B000FF74A342F6D1546804F001040CB1002089
:1006C00000E0012030BD10B500F5D87303EB011335
:1006D0001B6803F004031372137A53B900F5D8733F
:1006E00003EB01131B6840F2FF7404EA53531360D9
:1006F00009E000F5D87303EB01131B686FF0604449
:1007000004EAD303536000F5D87303EB01131B68AD
:1007100003F00203537200F5D87303EB01135B6817
:1007200003F00F03937200F5D87303EB01135B68BA
:100730001B0AD37400F5D87303EB01139B68D372C3
:1007400000F5D87303EB01139B681C0A147300F5C2
:10075000D87303EB01139B681C0C547300F5D8731A
:1007600003EB01139B681B0E937300F5D87303EB27
:100770000113DB68D37300F5D87303EB0113DB6857
:100780001C0A147400F5D87303EB0113DB681C0C0E
:10079000547400F5D87303EB0113DB681B0E9374DC
:1007A00021B9C36843F02003C36003E0036943F049
:1007B0002003036110BD10B502460020936803F0CA
:1007C0008063B3F1806F00D110E0936803F00063A1
:1007D000B3F1006F01D1012008E0936803F080536A
:1007E000B3F1805F01D1022000E00420042874D01E
:1007F00002F5C07303EB00131B6803F0010402F55C
:10080000C07303EB00131C600B7A7BB94B7A0C8826
:1008100043EA445302F5C07404EB001424682343F4
:1008200002F5C07404EB0014236010E00B7A4C68EE
:1008300043EAC4034C7A234302F5C07404EB00146A
:100840002468234302F5C07404EB001423608B7A00
:1008500003F00F038B7202F5C07303EB00135B68A8
:1008600023F00F0402F5C07303EB00135C6002F584
:10087000C07303EB00135B688C7A234302F5C074EA
:1008800004EB001463608B7B1C064B7B44EA03443F
:100890000B7B44EA0323CC7A234302F5C07404EBB8
:1008A0000014A3608B7C1C064B7C44EA03440B7C45
:1008B00044EA0323CC7B234302F5C07404EB001409
:1008C000E36002F5C07303EB00131B6843F00104FF
:1008D00002F5C07303EB00131C6010BD00B585B0BA
:1008E00040F241100090002001908DF809008DF831
:1008F000080008208DF80A0001208DF80B00032164
:100900008DF80C1005218DF80D1007218DF80E10B3
:1009100009218DF80F1011218DF8101013218DF879
:10092000111015218DF8121069460248FFF743FF98
:1009300005B000BD0068004008B525208DF8000016
:1009400001208DF8010000208DF8020001208DF8B3
:100950000300684600F03AF908BD7047F0B50A4652
:1009600000210023002400BF3DE0012505FA01F32A
:10097000156805EA03049C4234D105684F0003263C
:10098000BE40B543056015794E00B5400668354355
:1009900005601579012D02D01579022D16D18568D3
:1009A0004F000326BE40B543856055794E00B540E3
:1009B000866835438560456801268E40B5434560AD
:1009C000456896798E40B6B235434560C5684F009C
:1009D0000326BE40B543C560D5794E00B540C66814
:1009E0003543C560491C1029BFD3F0BDF0B50023C5
:1009F00000244D07ED0E02FA05F3CE1000F120059C
:100A000055F826504E07F70E0F26BE40B543CF10BF
:100A100000F1200646F82750CE1000F1200555F8C9
:100A2000265045EA0304CE1000F1200545F8264083
:100A3000F0BD4183704701837047000009A1002089
:100A40000BE00A5C124B9A8000BF114A128802F038
:100A50004002002AF9D0421CD0B22A28F1D300BFAC
:100A6000FEE700000D0A456E7465722048617264ED
:100A70004661756C745F48616E646C65722C2053BE
:100A8000797374656D2048616C742E0D0A00000046
:100A90000010014000B587B00121084600F0DCF8E5
:100AA0000121102000F008F9072209212248FFF750
:100AB0009DFF07220A212048FFF798FF00208DF8AC
:100AC0001A0001208DF81B0002208DF8180000028A
:100AD000059002208DF8190005A91748FFF73EFF81
:100AE00002208DF818004002059005A91248FFF772
:100AF00035FF4FF4E13001900020ADF80800ADF86B
:100B00000A00ADF80C00ADF810000C20ADF80E0096
:100B100001A90A4800F0FEFA012240F225510748D7
:100B200000F0D3FA0121054800F099FA402103486A
:100B300000F08CFA07B000BD000002400010014038
:100B40000448006900F0100008B901207047002037
:100B5000FCE70000001002400448006900F00800B3
:100B600008B9012070470020FCE700000010024097
:100B70000448006900F0010008B900207047012016
:100B8000FCE70000000002401CB50121084600F00F
:100B900063F8C020009001208DF8040000208DF83B
:100BA000060003208DF8050001208DF80700694636
:100BB0000348FFF7D3FEC0210148FFF73CFF1CBDEF
:100BC0000000024000BFFEE77047000070B5002142
:100BD00000230F22C4781CB3174C246804F4E0648B
:100BE000C4F5E064C4F30721C1F10404E3B20A418F
:100BF00044789C40E1B28478144021430C07210ED4
:100C00000E4C05786155047804F01F050124AC40B2
:100C100005786D11AD0005F1E025C5F8004109E04A
:100C2000047804F01F050124AC40054D06787611C8
:100C300045F8264070BD00000CED00E000E400E047
:100C400080E100E002490143024A11607047000060
:100C50000000FA050CED00E029B1064A12680243D3
:100C6000044B1A6004E0034A12688243014B1A6085
:100C7000704700003038024029B1064A126802432A
:100C8000044B1A6004E0034A12688243014B1A6065
:100C9000704700004038024029B1064A12680243FA
:100CA000044B1A6004E0034A12688243014B1A6045
:100CB000704700002038024029B1064A12680243FA
:100CC000044B1A6004E0034A12688243014B1A6025
:100CD0007047000044380240F0B500210022002493
:100CE000022500260223324F3F6807F00C0121B194
:100CF000042905D0082937D105E02E4F076036E0DA
:100D00002D4F076033E02A4F3F1F3F68C7F38056DF
:100D1000274F3F1F3F6807F03F036EB1264FB7FBD9
:100D2000F3F7DFF88CC0ACF1040CDCF800C0CCF3B6
:100D3000881C07FB0CF40CE01E4FB7FBF3F7DFF841
:100D400070C0ACF1040CDCF800C0CCF3881C07FBCD
:100D50000CF4174F3F1F3F68C7F301477F1C7D000E
:100D6000B4FBF5F7076002E0124F076000BF00BF59
:100D70000F4F3F6807F0F0010909104F7A5C0768D0
:100D8000D74047600A4F3F6807F4E051890A0B4F8C
:100D90007A5C4768D7408760054F3F6807F4604139
:100DA000490B064F7A5C4768D740C760F0BD00002A
:100DB000083802400024F40000127A0024000020C9
:100DC0001CB501210220FFF747FF01208DF8040028
:100DD00000208DF806008DF8070003208DF805002F
:100DE0000420009069460248FFF7B8FD1CBD0000D2
:100DF000000402400CB500200190009034480068C7
:100E000040F480303249086000BF3148006800F487
:100E1000003000900198401C0190009818B901988A
:100E2000B0F5A04FF1D12A48006800F4003010B1AD
:100E30000120009001E0002000900098012846D198
:100E400023484030006840F080502149403108601C
:100E50002048006840F440401E4908601C480830A3
:100E600000681B49083108600846006840F40040EB
:100E700008600846006840F4A05008601648091F42
:100E80000860081F006840F08070091F086000BFFC
:100E90000F48006800F000700028F9D040F205709B
:100EA0000E4908600A480830006820F0030008492D
:100EB000083108600846006840F00200086000BF82
:100EC00003480830006800F00C000828F8D10CBD79
:100ED000003802400070004008544007003C0240C7
:100EE00010B500BF1020EFF3118180F31188BFF31C
:100EF0004F8FBFF36F8F00BF02F06CF818B14FF047
:100F0000805003490860002080F3118800BF10BDA5
:100F100004ED00E070B5002000220223002402212D
:100F2000274D2D6805F00C0020B1042806D00828B4
:100F300034D107E0234D244E356033E0234D224E5B
:100F400035602FE01E4D2D1F2D68C5F380541C4DBC
:100F50002D1F2D6805F03F0154B11C4DB5FBF1F577
:100F6000174E361F3668C6F3881605FB06F209E0F1
:100F7000144DB5FBF1F5124E361F3668C6F38816D0
:100F800005FB06F20E4D2D1F2D68C5F301456D1CA6
:100F90006B00B2FBF3F50C4E356003E0094D0A4ED1
:100FA000356000BF00BF064D2D68C5F30315084E20
:100FB000705D054D2D68C540034E356070BD000065
:100FC000083802400024F4003400002000127A00A7
:100FD0003800002010B51548006840F4700013492F
:100FE00008601348006840F00100114908600020C3
:100FF0000F49083108600E4800680E4908400C4946
:1010000008600D48091D0860081F006820F4802052
:10101000091F0860002006490C310860FFF7EAFE4E
:101020004FF0006001498039086010BD88ED00E094
:1010300000380240FFFFF6FE1030002410B50248D1
:1010400000F0DBF810BD00002001002001F4007268
:10105000B2F5007F00D100BFCA430280704721B1C2
:10106000828942F40052828104E082894DF6FF7346
:101070001A408281704770B5024600240023002583
:10108000002040F66A16B14200D100BFC1F34215FC
:1010900001F01F03012606FA03F3012D02D1968900
:1010A000334006E0022D02D1168A334001E0968AD1
:1010B00033400C12012606FA04F41688344013B1AA
:1010C0000CB1012000E0002070BDF0B50346002403
:1010D00000260025002040F66A17B94200D100BF63
:1010E0001846C1F3421401F01F06012707FA06F55E
:1010F000012C01D10C3004E0022C01D1103000E0B1
:1011000014301AB107682F43076002E00768AF4345
:101110000760F0BD2DE9FF4705460E460024A146B5
:1011200000BFA046B08900B100BF2C8A24F440540F
:10113000F08804432C82AC8941F20C608443B0886F
:1011400031890843718908430443AC81AC8A24F493
:101150004074B0890443AC826846FFF7BDFD204867
:10116000854202D01F48854202D1DDF80C9001E093
:10117000DDF80890A88900F4004040B109EBC900EF
:1011800000EB091031684900B0FBF1F707E009EB0B
:10119000C90000EB091031688900B0FBF1F7642049
:1011A000B7FBF0F004012009642101FB1078A88945
:1011B00000F4004040B1322000EBC800B0FBF1F079
:1011C00000F00700044308E0322000EB081064211F
:1011D000B0FBF1F000F00F0004432C81BDE8FF8765
:1011E000001001400014014001468888C0F3080047
:1011F0007047C1F308028280704770B5044640F220
:1012000025512068FFF737FFE0B12068FFF7ECFFBA
:10121000C5B2E18AA0684554E08A401C80B2E082F1
:10122000E189884201DB0020E082608BE18988420D
:1012300002DA608B401C6083606A10B12846616AE4
:10124000884700BF40F227712068FFF714FF08B3FA
:10125000A08A60B9002240F227712068FFF735FFAD
:10126000012240F226612068FFF72FFF37E0638AF2
:101270006268D15C2068FFF7BCFF608A401C80B2C6
:101280006082A189884201DB00206082A08A401E22
:10129000A08224E040F226612068FFF7ECFEF0B166
:1012A000A08A50B9002240F226612068FFF70DFFA6
:1012B000206AA0B1206A804711E0638A6268D15C2D
:1012C0002068FFF796FF608A401C80B26082A18987
:1012D000884201DB00206082A08A401EA08270BD8F
:1012E0000A480B4908600B4848600B4888604FF477
:1012F00080608881C881002008824882C882088373
:1013000048838882C86108624862704700100140C3
:1013100020010020480100204805002000BFFEE712
:1013200002E008C8121F08C1002AFAD170477047AE
:10133000002001E001C1121F002AFBD1704700000C
:1013400070B50546304800EB05142068804700283A
:101350003ED02079012802DA0120207152E0207964
:10136000022803DA2079401C20714BE0A07A38B9BA
:101370000120A07205EB4501491CC8B200F08EF9AE
:10138000208900283EDDE088218988420DDAE08846
:10139000401C80B2E0802189884233D105EB4501B1
:1013A000C91CC8B200F07AF92CE0E07A002829DDE7
:1013B000207B401CC0B22073E17A884222DB0020EF
:1013C000207305EB4501491CC8B200F067F919E02C
:1013D0002079012802DD0120207110E0207918B168
:1013E0002079401E20710AE0A07A012807D1002050
:1013F000A07205EB4501891CC8B200F04FF900202E
:10140000E080207370BD0000F00000200B48C07821
:101410000A4A1279904201D1002070470748C078EB
:10142000064A115C1046C078401CC0B2D070032838
:1014300001DB0020D0700846EFE700001E0000200E
:1014400010B54FF44070FFF7FDFBFFF763FD00F0B0
:10145000EBF800F07BF800F0DDF800F001F810BDCB
:1014600000B589B001210220FFF7F6FB09220C210B
:101470003448FFF7BBFA09220D213248FFF7B6FACC
:101480004FF48050079002208DF820008DF8210045
:1014900000208DF8220001208DF8230007A929489B
:1014A000FFF75CFA4FF40050079007A92548FFF7B3
:1014B00055FA01214806FFF7DFFB01218806FFF7F7
:1014C000DBFB2148FEF7CCFF00208DF816008DF8DD
:1014D00017008DF818008DF819008DF81A008DF896
:1014E0001B0001208DF8120000208DF813000B2046
:1014F0008DF8140007208DF815000220ADF81000BB
:1015000004A91148FFF755F80E208DF80A000020B5
:101510008DF80B0001208DF80C000020ADF80000C4
:10152000ADF80200ADF80400ADF80600ADF8080013
:1015300001208DF80D006846FEF7AEFF00F0BEF802
:1015400009B000BD000402400068004010B500F082
:101550002DF800F001F810BD1CB501211120FFF796
:101560007BFB00208DF804008DF8060001208DF82B
:10157000070002208DF805001020009069460948F8
:10158000FFF7ECF90820009069460648FFF7E6F9F6
:1015900002208DF807000120009069460248FFF7FD
:1015A000DDF91CBD00100240000002400021144A79
:1015B000D17011715171002017E06421114A02EBC2
:1015C0000012118100210F4A02EB001211710D4A25
:1015D00002EB001291720B4A02EB0012D172094A1F
:1015E00002EB00121173411CC8B20328E5DB064967
:1015F000044A1160054911610549116270470000F4
:101600001E000020F0000020410B0008590B0008CC
:10161000710B000810B5FFF7B7FA012000F01AF8B7
:10162000022000F017F810BD10B5FFF759FEFFF7C4
:1016300031FAFFF7C5FBFFF77FF910BD10B50024A5
:1016400004E02046FFF77CFE601CC4B2032CF8DBEC
:1016500010BD000010B50446012C04D140210548FE
:10166000FFF7E9F905E0022C03D180210148FFF7DB
:10167000E2F910BD0000024010B50446012C04D16F
:1016800040210548FFF7D5F905E0022C03D1802160
:101690000148FFF7CEF910BD000002400649097964
:1016A000054A505411460979491CC9B211710329E0
:1016B00001DB0021117170471E00002008B5402099
:1016C0008DF8000001208DF8010000208DF8020047
:1016D00001208DF803006846FFF778FA0122022105
:1016E0000148FEF75DFF08BD0068004008B52BE02B
:1016F000FFF78CFE0446002C23DD012C04D0042CC3
:1017000005D0072C1BD10FE0FFF7E8F818E001F037
:101710005BFC0546322000232A46012100900B483D
:10172000006801F027FE0BE04FF0FF3000231A465F
:10173000032100900548006801F01CFE00E000BF96
:1017400000BF052000F028FED2E7000010000020B6
:10175000012080F3108800BFFFF772FEFEF7ECFD5A
:10176000FEF7C2FD00F032FF00BFFEE710B50446F1
:101770000E48006844600E480068844207D20B4857
:101780000168091D0B48006800F0E6FC0CE0074802
:101790000168091D0848006800F0DEFC0748006881
:1017A000844201D20548046010BD000048000020BA
:1017B0005C000020500000204C0000207800002039
:1017C0002DE9F04105460F461FB9A80000F0EEFBD9
:1017D00000E03846064656B1542000F0E7FB0446C8
:1017E0000CB1266304E0304600F024FD00E0002444
:1017F00024B1A900A522206BFEF752FD2046BDE8CA
:10180000F081000010B500F0CDFC1348006800BB6B
:10181000124800F091FC124800F08EFC0F4811496C
:1018200008600F481049086000220C210A2001F0CE
:101830001FF8094908600846006850B900BF102029
:1018400080F31188BFF34F8FBFF36F8F00BF00BFCE
:10185000FEE700F0D1FC10BD88000020240A002023
:10186000380A0020800000208400002070B523E0AA
:1018700000F0F0FE1348006808B9012000E00020E5
:10188000054601F099FCBDB900F08CFC0D48C0681C
:10189000C468201D00F03CFC0B480068401E0A494B
:1018A00008600A480068401E0849086000F0A4FC6F
:1018B000204600F059F800BF044800680028D7D13E
:1018C00070BD0000FC0900205800002054000020DA
:1018D00070B504460D46206C70B1216CE068084478
:1018E000E0606168E068884201D32068E0602846D3
:1018F000226CE168FEF7C2FC70BD2DE9F0410446A0
:101900000E4615460027206C40B37DB93146226C47
:10191000A068FEF7B3FC216CA0680844A060D4E97D
:10192000011088421AD32068A06017E03146226C6B
:10193000E068FEF7A3FC216CE068401AE0602168D3
:10194000E068884203D2216C6068401AE060022D92
:1019500004D1A06B10B1A06B401EA063A06B401C13
:10196000A0633846BDE8F08110B50446206B00F056
:1019700061FC204600F05EFC10BD00000146084AF4
:10198000126812680AB9012200E000220A600A689F
:1019900022B9034A1268D268106800E0002070473C
:1019A0008000002030B54FF4F043174800F00704E2
:1019B0002CB1C01D20F00700134C041B1B1B02465A
:1019C000124C22600024114D6C60D018083820F0B1
:1019D00007000F4C206000240D4D2D686C600C4DED
:1019E0002D682C601146441A4C60094C24680C6028
:1019F000084D4C682C60084D4C682C604FF000443A
:101A0000064D2C6030BD00004C0A002090000020E4
:101A100098000020A00000209C000020A4000020CE
:101A200000BFFFF723FF064800680128F9D94FF0EF
:101A3000805004490860BFF34F8FBFF36F8FF0E70A
:101A40004809002004ED00E02DE9F04704460F4668
:101A500016469946DDF82080002507E0795D04F1FF
:101A600034004155785D00B902E06D1C102DF5D3AE
:101A700000BF002143200155062E00D30526E66253
:101A8000201D00F066FB04F1180000F062FB2461E9
:101A9000C6F10600A06164620020E06484F8500092
:101AA000BDE8F08710B5002407E004EB84010F4A7D
:101AB00002EB810000F040FB641C062CF5D30C48BF
:101AC00000F03AFB0B4800F037FB0B4800F034FB0A
:101AD0000A4800F031FB0A4800F02EFB044809498F
:101AE000086004480849086010BD0000480900204B
:101AF000C0090020D4090020E8090020FC090020CA
:101B0000100A00204C0000205000002010B50146B3
:101B1000164800E0006803688B42FBD30246436826
:101B200013448B4204D143684C682344436001460C
:101B30000A464B6813440468A34211D10C4C036855
:101B40002468A34208D04B680468646823444B604F
:101B500003681B680B6005E0054B1B680B6001E028
:101B600003680B60884200D0016010BD9000002027
:101B7000980000202DE9F04104460D4616461F4608
:101B80004FF0000865602461B5420CD8F01BA169D4
:101B9000884202D34FF0010811E0211D0948006876
:101BA00000F0DAFA0BE0BE4204D2BD4202D34FF09D
:101BB000010804E0211D0448006800F0CDFA404609
:101BC000BDE8F081840000208000002070B505464B
:101BD00000F0E8FAA86B08B9012400E0002400F046
:101BE0000BFB204670BD70B5054600F0DBFAA86B14
:101BF000E96B884201D1012400E0002400F0FCFAE6
:101C0000204670BDF8B505460F4616480068C06806
:101C1000C468201D00F07CFAE06901281ED1A0698B
:101C200041192B463A462046FFF7A4FF012815D15B
:101C3000002003462A4601460090204601F09AFB08
:101C4000064656B900BF102080F31188BFF34F8FAE
:101C5000BFF36F8F00BF00BFFEE700BF2046616A81
:101C60008847F8BD8000002070B586B06BE003980F
:101C7000002868DB059C606908B9012000E00020AD
:101C800010B9201D00F044FA02A800F0BDF8054686
:101C900003980A2855D2DFE800F0090507323450CE
:101CA0000608333500BF00BF00BF00BF0498A2691B
:101CB000811803462A462046FFF75CFF01281DD104
:101CC0002046616A8847E069012817D1002000900A
:101CD0000498A169421800231946204601F04AFBE6
:101CE000064656B900BF102080F31188BFF34F8F0E
:101CF000BFF36F8F00BF00BFFEE700BF22E000BF51
:101D000020E000BF0498A061A06908B1012000E0B4
:101D1000002050B900BF102080F31188BFF34F8F0F
:101D2000BFF36F8F00BF00BFFEE7A06941192B46CC
:101D30002A462046FFF71EFF04E0204600F07AFA0C
:101D400000E000BF00BF00231A4603A90348006853
:101D500000F0D2FD00288AD106B070BD88000020B6
:101D6000F8B505460C4600F075FC684600F04CF8E6
:101D70000646009820BB44B9B54206D801F01CFACB
:101D800031462846FFF73EFF1CE03CB10E48006894
:101D9000006808B9012000E000200446A91B224683
:101DA0000A48006800F0D6FA01F006FA50B94FF080
:101DB000805007490860BFF34F8FBFF36F8F01E07A
:101DC00001F0FAF9F8BD000084000020880000202E
:101DD00004ED00E00A490968096809B9012100E039
:101DE000002121B14FF0FF31064A116006E004499D
:101DF0000968C968C868034A4168116070470000F3
:101E00004C0000207800002070B5044601F0DCF89A
:101E1000054607480068854204D200F00BF801200F
:101E2000206001E00020206001480560284670BD68
:101E30008C0000202DE9F84332E024480068C06897
:101E4000056822480068C068C468201D00F060F979
:101E50002046616A8847E069012821D1A0694619B6
:101E6000AE4207D966602461211D1848006800F061
:101E700073F915E0002003462A46014600902046EB
:101E800001F078FA074657B900BF102080F3118897
:101E9000BFF34F8FBFF36F8F00BF00BFFEE700BFE0
:101EA0000A480068006808B9012000E00020002806
:101EB000C3D00648D0F80080054800680349086090
:101EC0000348C0F80080BDE8F883000080000020CF
:101ED000840000200E480068401C08B9012000E082
:101EE000002050B900BF102080F31188BFF34F8F3E
:101EF000BFF36F8F00BF00BFFEE700BF102080F36D
:101F00001188BFF34F8FBFF36F8F00BF00BFFEE795
:101F1000A800002008B500BF6846FFF72FFD044663
:101F200020460099FFF71CFFFFF79EFEF4E710B56F
:101F3000044600F037F911E0606A08B9012000E0BA
:101F4000002038B904F1240001F0EAF818B100F0DB
:101F500089FA00E005E0A06C401EA064A06C002897
:101F6000EADC00BF4FF0FF30A06400F045F900F05C
:101F700019F911E0206908B9012000E0002050B9EA
:101F800004F1100001F0CCF808B100F06BFA606CBD
:101F9000401E606400E002E0606C0028EADC00BFE4
:101FA0004FF0FF30606400F027F910BD2DE9F041DB
:101FB00004464FF0000800F04DFB4648006808B9A1
:101FC000FFF7F0FC44480068204000286BD1D4B1F2
:101FD000083404F00700B0B104F00700C0F10800B5
:101FE000044404F0070008B9012000E0002050B9C3
:101FF00000BF102080F31188BFF34F8FBFF36F8FA6
:1020000000BF00BFFEE7002C4DD03448006884427A
:1020100049D8334E3046056801E02E462D68686881
:10202000A04202D228680028F7D12A4800688542D9
:1020300039D0306800F10808286830606868001BF3
:10204000102819D92F1907F0070008B9012000E05E
:10205000002050B900BF102080F31188BFF34F8FCC
:10206000BFF36F8F00BF00BFFEE76868001B78609A
:102070006C603846FFF74AFD184968680968081A15
:10208000164908600846006816490968884203D264
:1020900012480068134908600F49686809680843D6
:1020A00068600020286001F087F808F0070008B990
:1020B000012000E0002050B900BF102080F31188FB
:1020C000BFF34F8FBFF36F8F00BF00BFFEE74046E7
:1020D000BDE8F08198000020A40000209C000020B2
:1020E00090000020A0000020001F4FF080730360CC
:1020F000001F0160001F054B036014380260001FC1
:102100006FF002030360203870470000D51E0008FE
:1021100001460A69D1E901309860D1E901035860AC
:102120005068884201D188685060002008611068BA
:10213000401E10601068704700F1080141604FF0C8
:10214000FF31816000F10801C1600161002101607F
:10215000704700210161704710B502460B685C1C96
:102160000CB9106907E002F1080000E0406844681B
:1021700024689C42FAD944684C604C68A16088602D
:1021800041600A611468641C146010BD42684A60B2
:1021900093688B60936859609160086103685B1C69
:1021A0000360704700BF102080F31188BFF34F8F8A
:1021B000BFF36F8F00BF0E480068401C0C490860D9
:1021C00008460068012812D10A480068C0B208B960
:1021D000012000E0002050B900BF102080F31188DA
:1021E000BFF34F8FBFF36F8F00BF00BFFEE7704795
:1021F000A800002004ED00E00D48006850B900BFC1
:10220000102080F31188BFF34F8FBFF36F8F00BF93
:1022100000BFFEE706480068401E05490860084602
:10222000006820B9002080F3118800BF00BF70470C
:10223000A800002070B506463546002E3FD0083D68
:102240002C461F4960680968084008B1012000E079
:10225000002050B900BF102080F31188BFF34F8FCA
:10226000BFF36F8F00BF00BFFEE7206808B90120F1
:1022700000E0002050B900BF102080F31188BFF3A8
:102280004F8FBFF36F8F00BF00BFFEE70C49606840
:102290000968084098B1206888B9094960680968E8
:1022A0008843606000F0D6F9064960680968084410
:1022B000044908602046FFF729FC00F07DFF70BD4F
:1022C000A40000209C00002003484FF0E02148615A
:1022D00007200861704700003F90020070B5FDF7CD
:1022E000B7FF0446102C16D304F1E02090F8F05309
:1022F00015480078854201DB012000E0002050B93C
:1023000000BF102080F31188BFF34F8FBFF36F8F92
:1023100000BF00BFFEE70D48006800F4E0600C4914
:102320000968884201D8012000E0002050B900BFB0
:10233000102080F31188BFF34F8FBFF36F8F00BF62
:1023400000BFFEE770BD0000AC0000200CED00E017
:10235000B00000202DE9F04105460E4617462C46F8
:10236000FFF720FF606C401C08B900206064A06C7F
:10237000401C08B90020A064FFF73EFFA06B28B9FD
:102380003A46314604F1240000F0BEF82046FFF73B
:10239000CEFDBDE8F081000070B5044600266CB3A8
:1023A0001B48006808B9012000E0002050B900BFB8
:1023B000102080F31188BFF34F8FBFF36F8F00BFE2
:1023C00000BFFEE700F046F9124800680519124800
:1023D0000068001DFFF79CFE50B90F48006890F898
:1023E0002C10012088400D49096881430B48016089
:1023F0002846FFF7BBF900F0DFFE06463EB94FF076
:10240000805007490860BFF34F8FBFF36F8F70BDD7
:102410007C0000205C0000204800002060000020BC
:1024200004ED00E01BE00E48007830B10120FFF71A
:1024300023F90220FFF70EF905E00120FFF70AF962
:102440000220FFF719F90648007808B9012000E0DA
:102450000020034908704FF4FA70FFF79DFFE2E790
:102460001C00002001200149086070476C0000201A
:1024700007E000235A1E03490348006800F03CFAB5
:1024800000BFF6E7DC0000201400002070B5054610
:102490000C4655B900BF102080F31188BFF34F8F51
:1024A000BFF36F8F00BF00BFFEE71348016818310C
:1024B0002846FFF751FE10480068001DFFF728FE70
:1024C00050B90D48006890F82C10012088400B4945
:1024D0000968814309480160601C30B906480168F9
:1024E000091D0748FFF752FE05E006480068061977
:1024F0003046FFF73BF970BD480000206000002027
:10250000100A00205C0000202DE9F04104460D4631
:10251000164654B900BF102080F31188BFF34F8FC7
:10252000BFF36F8F00BF00BFFEE71448016818318A
:102530002046FFF72BFE11480068001DFFF7E8FD5D
:1025400050B90E48006890F82C10012088400C49C2
:10255000096881430A480160012E06D107480168D5
:10256000091D0848FFF712FE05E0074800684719F3
:102570003846FFF7FBF8BDE8F08100004800002076
:1025800060000020100A00205C00002050B900BF4D
:10259000102181F31188BFF34F8FBFF36F8F00BFFE
:1025A00000BFFEE70349096801600349096841600B
:1025B00070470000700000205C00002004E0FFF77E
:1025C0003DF80A20FFF7E8FEF9E700001FB50020FC
:1025D0000090019002900346802218A103901948B0
:1025E00000F02AFC0446012C02D100F097FE0446BC
:1025F000012C15D100BF102080F31188BFF34F8F3D
:10260000BFF36F8F00BF4FF0FF300F49086001200C
:102610000E49086000200E49086000F08BF80BE0BE
:1026200054B900BF102080F31188BFF34F8FBFF360
:102630006F8F00BF00BFFEE71FBD000049444C453F
:1026400000000000211A000878000020640000202B
:102650005C00002002480068401C01490860704787
:102660007C0000201D48006818B101201C4908604A
:1026700032E000201A4908601A480068B0FA80F079
:10268000C0F11F0101EB8100174A52F8200008B188
:10269000012000E0002050B900BF102080F3118815
:1026A000BFF34F8FBFF36F8F00BF00BFFEE701EB9B
:1026B00081020D4B03EB820042685268426000F1D8
:1026C00008024368934202D14268526842604268FD
:1026D000D268064B1A6000BF704700007C000020E3
:1026E0006C00002060000020480900204800002005
:1026F00004E0FEF7FBFF0520FFF74EFEF9E70000C0
:1027000050B900BF102181F31188BFF34F8FBFF381
:102710006F8F00BF00BFFEE705490978491C044AD6
:10272000117011460978FA2901DD002111707047F6
:102730001D0000201CB5474800684749884201D069
:10274000012000E0002050B900BF102080F3118864
:10275000BFF34F8FBFF36F8F00BF00BFFEE73D4851
:1027600000683D49491E884201D0012000E0002058
:1027700050B900BF102080F31188BFF34F8FBFF313
:102780006F8F00BF00BFFEE7344908460078019014
:10279000FF200A4610700846007800909DF800005F
:1027A00000F0F0009DF80020904201D1012000E0EF
:1027B000002050B900BF102080F31188BFF34F8F65
:1027C000BFF36F8F00BF00BFFEE79DF8000000F071
:1027D0001000234A10700720224A106009E02148A7
:1027E0000068401E1F4A10609DF800004006000E61
:1027F00000909DF8000000F080008028EFD019487C
:1028000000680002174A10601046008800F4E0607B
:102810001060124A019810700E482030006840F491
:1028200070000C49203108600846006840F0704094
:102830000860FFF749FD00200B490860FDF7D0FC58
:102840000A48006840F0404008490860FDF7B8FCBD
:1028500000201CBD00ED00E071C20F4100E400E06B
:10286000AC000020B0000020A800002034EF00E001
:102870002DE9F04706460D4690464FF000090EB18F
:10288000012000E0002050B900BF102080F3118823
:10289000BFF34F8FBFF36F8F00BF00BFFEE70DB9CF
:1028A000002702E006FB05F0471C07F15400FFF784
:1028B0007DFB044674B10DB9246002E004F15400BC
:1028C0002060E66325640121204600F0DDF884F8ED
:1028D0005080A146B9F1000F0AD100BF102080F34B
:1028E0001188BFF34F8FBFF36F8F00BF00BFFEE7AC
:1028F0004846BDE8F08700002DE9FF4383B0054658
:102900000E461F464FF000092C4654B900BF102058
:1029100080F31188BFF34F8FBFF36F8F00BF00BFED
:10292000FEE70EB9206C08B9012000E0002050B984
:1029300000BF102080F31188BFF34F8FBFF36F8F5C
:1029400000BF00BFFEE700F02FFB08B9059808B9EB
:10295000012000E0002050B900BF102080F3118852
:10296000BFF34F8FBFF36F8F00BF00BFFEE700BF05
:10297000FFF718FCA06BC0B3D4F80C80314620469A
:10298000FEF7A6FFB7B9A06B401EA063206908B987
:10299000012000E0002010BB04F1100000F0C0FB9B
:1029A00001281CD1000737490860BFF34F8FBFF3E0
:1029B0006F8F14E0C4F80C80606A08B9012000E051
:1029C000002060B904F1240000F0AAFB38B14FF0F8
:1029D00080502C490860BFF34F8FBFF36F8FFFF714
:1029E0000BFC012007B0BDE8F083FFE7059818B99C
:1029F000FFF702FC0020F5E7B9F1000F04D101A8B0
:102A0000FFF7C4FD4FF00109FFF7F6FBFFF722FEC9
:102A1000FFF7C8FB606C401C08B900206064A06C24
:102A2000401C08B90020A064FFF7E6FB05A901A837
:102A300000F0BCF9F0B92046FFF7C8F8A0B104F1E6
:102A400024000599FFF722FD2046FFF770FA00F0F9
:102A5000B3FB00288CD14FF080500A490860BFF3C7
:102A60004F8FBFF36F8F83E72046FFF760FA00F0C8
:102A7000A3FB7DE72046FFF75AFA00F09DFB0020FC
:102A8000B0E7000004ED00E070B505460E462C46A8
:102A900054B900BF102080F31188BFF34F8FBFF3EC
:102AA0006F8F00BF00BFFEE7FFF77CFBD4E90F127A
:102AB000206801FB020060600020A0632068A06025
:102AC000E06B401E226C216800FB0210E0604FF0BA
:102AD000FF306064A0649EB9206908B9012000E05D
:102AE0000020A8B904F1100000F01AFB01280FD152
:102AF000000709490860BFF34F8FBFF36F8F07E0EE
:102B000004F11000FFF718FB04F12400FFF714FB99
:102B1000FFF772FB012070BD04ED00E02DE9FF43DB
:102B200083B0064688461D464FF00009344654B926
:102B300000BF102080F31188BFF34F8FBFF36F8F5A
:102B400000BF00BFFEE7B8F1000F01D1206C08B94B
:102B5000012000E0002050B900BF102080F3118850
:102B6000BFF34F8FBFF36F8F00BF00BFFEE7022D93
:102B700002D1E06B012801D1012000E0002050B912
:102B800000BF102080F31188BFF34F8FBFF36F8F0A
:102B900000BF00BFFEE700F007FA08B9059808B9C2
:102BA000012000E0002050B900BF102080F3118800
:102BB000BFF34F8FBFF36F8F00BF00BFFEE700BFB3
:102BC000FFF7F0FAA06BE16B884201D3022D28D108
:102BD0002A4641462046FEF790FE0746606A08B93D
:102BE000012000E0002068B904F1240000F098FA08
:102BF000012810D1000730490860BFF34F8FBFF3A1
:102C00006F8F08E03FB14FF080502B490860BFF351
:102C10004F8FBFF36F8FFFF7EFFA012007B0BDE8CA
:102C2000F083059818B9FFF7E7FA0020F6E7B9F145
:102C3000000F04D101A8FFF7A9FC4FF00109FFF72D
:102C4000DBFAFFF707FDFFF7ADFA606C401C08B92F
:102C500000206064A06C401C08B90020A064FFF74D
:102C6000CBFA05A901A800F0A1F8F0B92046FEF7BB
:102C7000BAFFA0B104F110000599FFF707FC204648
:102C8000FFF755F900F098FA002899D14FF08050DD
:102C900009490860BFF34F8FBFF36F8F90E720465D
:102CA000FFF745F900F088FA8AE72046FFF73FF979
:102CB00000F082FA0020B1E704ED00E02DE9F047D2
:102CC00007468A4690461E463C4654B900BF10202F
:102CD00080F31188BFF34F8FBFF36F8F00BF00BF2A
:102CE000FEE7BAF1000F01D1206C08B9012000E025
:102CF000002050B900BF102080F31188BFF34F8F20
:102D0000BFF36F8F00BF00BFFEE7022E02D1E06B62
:102D1000012801D1012000E0002050B900BF10209F
:102D200080F31188BFF34F8FBFF36F8F00BF00BFD9
:102D3000FEE7FFF7D3FA00BF1021EFF3118081F314
:102D40001188BFF34F8FBFF36F8F00BF0546A06B95
:102D5000E16B884201D3022E1FD1324651462046F4
:102D6000FEF7CBFDA06C401C88B9606A08B9012051
:102D700000E0002070B904F1240000F0D1F948B15E
:102D8000B8F1000F06D00120C8F8000002E0A06CE6
:102D9000401CA0644FF0010901E04FF0000900BFA2
:102DA00085F3118800BF4846BDE8F08770B504463A
:102DB0000D4654B900BF102080F31188BFF34F8F28
:102DC000BFF36F8F00BF00BFFEE755B900BF1020F3
:102DD00080F31188BFF34F8FBFF36F8F00BF00BF29
:102DE000FEE7FFF7DFF9124803682868401C08B9BE
:102DF000002619E00F4920680968884204D06068FD
:102E0000984201D801260FE06068181A29688842A4
:102E100009D228686168591A401A28602046FFF7CD
:102E2000B5FB002600E00126FFF7E6F9304670BD4D
:102E30005C000020700000202DE9FF4F81B080462B
:102E400016469A46DDE90E5BB8F1000F0AD100BFC5
:102E5000102080F31188BFF34F8FBFF36F8F00BF37
:102E600000BFFEE7062D01D2012000E0002050B98E
:102E700000BF102080F31188BFF34F8FBFF36F8F17
:102E800000BF00BFFEE730461099FEF799FC0446EC
:102E9000002C64D0701E216B01EB800929F007091A
:102EA00009F0070008B9012000E0002050B900BF78
:102EB000102080F31188BFF34F8FBFF36F8F00BFD7
:102EC00000BFFEE700962A462046119B0299FEF7B6
:102ED000BBFD524641464846FFF706F92060BBF16C
:102EE000000F01D0CBF80040FFF75CF927480068DD
:102EF000401C264908602648006840B92448046000
:102F00000846006801280CD1FEF7CCFD09E02148F5
:102F1000006830B91E480068C06AA84201D81C4841
:102F200004601D480068401C1B4908600846006892
:102F3000606494F82C1001208840184909680843FF
:102F400016490860E16A01EB8101154A02EB810034
:102F5000211DFFF71BF90127FFF74EF901E04FF0A4
:102F6000FF37012F0ED10B48006858B108480068A0
:102F7000C06AA84206D238070A490860BFF34F8FDB
:102F8000BFF36F8F384605B0BDE8F08F58000020C2
:102F90004800002064000020740000206000002031
:102FA0004809002004ED00E00549096809B901203D
:102FB00005E00449096809B9022000E000207047D3
:102FC000640000207C000020014908687047000070
:102FD0005C0000202DE9F0414FF0000845480068F2
:102FE000002879D144480068401C434908600846DD
:102FF000066816BB41480068006808B9012000E077
:10300000002050B900BF102080F31188BFF34F8F0C
:10301000BFF36F8F00BF00BFFEE73848076838482E
:103020000068364908603648076036480068401C2A
:1030300034490860FEF7CEFE00BF33480068864280
:103040003CD300BF2D480068006808B9012000E0AB
:10305000002020B14FF0FF302B4908602DE02748B9
:103060000068C068C4686568AE4202D22648056040
:1030700023E0201DFFF74CF8A06A18B104F11800F6
:10308000FFF746F894F82C10012088401F49096882
:1030900008431E490860E16A01EB81011C4A02EB0A
:1030A0008100211DFFF772F81A49E06A0968C96AB0
:1030B0008842C7D34FF00108C4E700BF1548006835
:1030C000C06A00EB8000124951F82000012808D99D
:1030D0004FF0010805E0FFE70F480068401C0E496B
:1030E00008600E48006808B14FF001084046BDE88E
:1030F000F08100007C0000205C0000204C000020DB
:1031000050000020700000207800002060000020A7
:103110004809002048000020680000206C000020C2
:1031200070B50646F068C46854B900BF102080F33B
:103130001188BFF34F8FBFF36F8F00BF00BFFEE753
:1031400004F11800FEF7E4FF15480068A8B9201D37
:10315000FEF7DEFF94F82C10012088401149096821
:10316000084310490860E16A01EB81010E4A02EB55
:103170008100211DFFF70AF804E004F118010B4853
:10318000FFF704F80A49E06A0968C96A884204D965
:10319000012501200749086000E00025284670BD90
:1031A0007C0000206000002048090020E809002081
:1031B000480000206C00002070B5002536480068EB
:1031C00050B900BF102080F31188BFF34F8FBFF3B9
:1031D0006F8F00BF00BFFEE7FEF7E4FF2E480068D8
:1031E000401E2D49086008460068002850D12B4831
:1031F000006800284CD024E02948C068C46804F165
:103200001800FEF785FF201DFEF782FF94F82C10B2
:103210000120884023490968084322490860E16A7F
:1032200001EB8101204A02EB8100211DFEF7AEFF78
:103230001E49E06A0968C96A884202D301201C4914
:1032400008601748006808B9012000E00020002845
:10325000D2D01848006878B10AE0FFF7BBFE10B181
:1032600001201349086013480068401E1149086096
:10327000104800680028F0D10D480068012807D1E7
:10328000012500070C490860BFF34F8FBFF36F8F14
:10329000FEF7B2FF284670BD7C00002058000020D9
:1032A000E8090020600000204809002048000020B4
:1032B0006C0000206800002004ED00E02DE9F047DC
:1032C00006460D4617469846DDF820900DB90024B5
:1032D00010E02C20FEF76AFE04465CB1FEF792FA7D
:1032E0002660A561E761C4F82080C4F82490201D01
:1032F000FEF72FFF0DB1012000E0002050B900BF04
:10330000102080F31188BFF34F8FBFF36F8F00BF82
:1033100000BFFEE72046BDE8F08700001FB500248F
:10332000FEF770FA0F48006868B100200523CDE968
:103330000030029003464FF480720BA103900C48BA
:10334000FFF77AFD044654B900BF102080F31188BE
:10335000BFF34F8FBFF36F8F00BF00BFFEE7204664
:1033600004B010BD88000020546D722053766300B5
:10337000151F00082DE9FE4304460D4616461F465C
:10338000DDF828804FF0000954B900BF102080F309
:103390001188BFF34F8FBFF36F8F00BF00BFFEE7F1
:1033A0001448006810B3009501960294062D15DAB2
:1033B000FFF7FAFD022808D10023424669460D486E
:1033C0000068FFF7ABFB814610E000231A46694610
:1033D00008480068FFF7A2FB814607E000233A4651
:1033E000694604480068FFF769FC81464846BDE825
:1033F000FE83000088000020183400080000002030
:10340000B400000020130008CC340008B4000020F1
:103410009C85000030130008000000000000000040
:10342000000000000000000000000000000000009C
:10343000000000000000000000000000000000008C
:10344000010203040102030406070809007A030AC3
:103450000000000000000000010203040607080944
:10346000000000000000000000000000000000005C
:10347000000000000000000000000000000000004C
:10348000000000000000000000000000000000003C
:10349000000000000000000000000000000000002C
:1034A000000000000000000000000000000000001C
:1034B000000000000000000000000000000000000C
:0C34C000AAAAAAAA000000000000000058
:040000050800018965
:00000001FF
