:020000040800F2
:1000000008060020D9000008E10B0008250B0008B5
:1000100000000000000000000000000000000000E0
:10002000000000000000000000000000590D000862
:100030000000000000000000350C0008E50D00087D
:10004000EB000008EB000008EB000008EB000008E4
:10005000EB00000855090008B9090008EB0000088A
:10006000EB000008EB000008B1080008EB000008F6
:10007000EB000008EB000008EB000008EB000008B4
:10008000750E0008EB00000800000000490E000893
:10009000EB000008EB000008EB000008EB00000894
:1000A000EB000008EB000008EB0000081D0F000843
:1000B000EB00000800000000EB000008000000005A
:1000C0000448854600F0D6F9004800479D14000812
:1000D000C046C04608060020044880470448004740
:1000E000FEE7FEE7FEE7FEE7FEE7FEE7E90D0008B4
:1000F000C100000830B50B46014600202022012433
:1001000009E00D46D5409D4205D31D469540491B4B
:100110002546954040191546521E002DF1DC30BD94
:1001200003460B439B0703D009E008C9121F08C010
:10013000042AFAD203E00B780370401C491C521EBB
:10014000F9D27047F0B51FB488B00B990998002414
:1001500048400999C00F490049080991C0070B9907
:100160000090490049080B9109990898A646084350
:100170001CD00B990A98084318D009980124400014
:10018000420D4800410D099824050003000B20434F
:1001900009900B980003000B20430B9050181C494A
:1001A0004018002201901446104605E00020014648
:1001B0000DB0F0BD032801DA034600E003239C469E
:1001C000C11A0AAE0AE05F0008ADED5B4F00F75BB5
:1001D0007D430027AA187C41491C5B1E6145F2DD66
:1001E000410004AB5A522104120C0A43240C401C57
:1001F0000828DFDB01980290009970460191009079
:10020000059B049A0799069800F0E2F8D0E70000F1
:100210000DFCFFFFF0B50C465C4085B0E40FE40731
:1002200003944C000026640859009446490802468D
:100230000296224321D062460A431ED06200570D27
:100240004A000E032303550D012402462C492405C0
:10025000781B1B0B360B4018234326436146009046
:100260001C46501AB44103D30098401C009002E091
:10027000921800985B41002803DA0020014605B07F
:10028000F0BD0020012109050746864611E06446BD
:100290001D46141BB54106D36546521BB341744637
:1002A00007430C43A646CD07400849082843921847
:1002B0005B4105460D43EAD11046184313D0604612
:1002C000194650407140084306D06046101AB341A9
:1002D00006D20122002306E000220123DB0702E010
:1002E0000122D2435310009874460105381C614125
:1002F000029C039D0019694100F05DF8BFE7000012
:10030000FD03000070B54B005B0803430BD04B00AE
:100310005C0D002633466542B341D417AD1AA341A4
:1003200002DB0020014670BD12053018514170BD3E
:100330000EB505490291002100910A460B46019134
:1003400000F046F803B000BD3304000070B5CD0FD7
:100350004A0009030123090B1B0519430B4BED0749
:100360000024520D9A4201DA002070BD074B34334D
:100370009A4203DC9A1A00F00DF802E00449511881
:1003800088402C43F1D0404270BD0000FF030000C4
:10039000CDFBFFFF10B5202A04DB0846203AD040F1
:1003A000002110BD0B46D340D0402024A21A91401A
:1003B0000843194610BD10B5002B08DA0024401C74
:1003C000614192185B411A4301D14008400010BDC1
:1003D000F0B51FB482B005460C0003D0084600F00B
:1003E00007FF02E000F004FF2030024600902146A3
:1003F000284600F051F8049B059A04460F4618431E
:100400001143084314D0184610431BD000984021D4
:100410000A1A18460599FFF7BDFF05460E46009AD1
:100420000599049800F038F8084305D0012004E04D
:100430002046394607B0F0BD0020C11705430E43E2
:100440002C43374300990E986305401A7905E40A56
:1004500000220C43FD0A0A3002D500200146E9E7DC
:100460000105101969410C9C0D9D00196941FFF7A8
:10047000A2FFDFE7064C0125064E05E0E36807CC46
:100480002B430C3C98471034B442F7D3FFF71CFEC3
:10049000D8150008F815000810B5202A04DB01461D
:1004A000203A9140002010BD914020239C1A034621
:1004B000E3401943904010BD10B500220A4BFFF7EE
:1004C00041FEFFF743FF09490212C87003140A7185
:1004D000040E80184B711A198C718018C8710A218A
:1004E000024800F0EDFC10BD80842E414000002049
:1004F00010B500F0FFF80F2000F052FF00F02DF8CB
:100500000028FBD100F0D7F80F2000F049FF00F0E1
:1005100024F80028FBD100F0DFF80F2000F040FFA6
:1005200000F01BF80028FBD110BDF8B50924E40643
:10053000A08A1025A843A08200F03DF9074600F0EC
:100540003AF9064600F037F90146A08A2843A0820E
:100550003804320210430843F8BD0920C006008A5F
:10056000C007C00F70470000F0B51FB407463C023B
:100570000A98FFF7DDFE0E46054601220399029810
:10058000FFF7C0FE2A463346FFF744FE0326B607B0
:10059000002C09DA0C4A0446BA430D461046FFF710
:1005A000C7FE3246094B06E004460D463846FFF7C3
:1005B000BFFE3246064BFFF72DFE22462B46FFF7C5
:1005C000C1FD05B0F0BD0000FFFFFF00FFFF5FC1F0
:1005D000FFFF5F41FEB50121480400F02DFB012122
:1005E000880400F029FB01206946087100264E713D
:1005F0008E71CE7120200924E4060090204600F080
:1006000047FA102769462046009700F041FA022079
:100610001F4D00906946284600F03AFA802000906D
:100620006946204600F034FA0820009069462046CA
:1006300000F02EFA69460E7140200090204600F02E
:1006400027FA012000906946204600F021FAA08A8E
:100650003843A082A08A08210843A082A18A2020D2
:100660008143A182A98A02208143A982642000F0EB
:100670008DFEA88A02210843A882012000F086FE90
:10068000A08AB843A082012000F080FEFEBD0000D9
:100690000004004870B50924E406208AC007FCD194
:1006A000A08A1025A843A082032000F0C1F8A08AE8
:1006B0002843A08270BD70B50924E406208AC007D3
:1006C000FCD1A08A1025A843A0820F2000F0B0F82A
:1006D000A08A2843A08270BD70B50924E406A08AD0
:1006E0001025A843A082F02000F0A2F8A08A284399
:1006F000A08270BD70B50924E406A08A1025A84325
:10070000A082FF2000F094F8A08A2843A08270BD48
:100710001FB584B0002000900190029069460390BC
:10072000097C002905D06A46117A022211436A46E3
:1007300011726A46517A527C120111436A46927CC8
:1007400011436A465172917AD27C520111436A4632
:10075000127DD20011436A46527D11436A4691725E
:10076000917DD1721073052202A9002000F082F859
:1007700005226946002000F03BF86A4610780A21FD
:100780000840117A884211D15078517A88420DD1AF
:100790009078917A884209D1D078D17A884205D16F
:1007A0001079117B40084000884202D0012008B037
:1007B00010BD0020FBE7F8B509250024ED06202731
:1007C000A88A3843A8827006060E012000F0E8FDD2
:1007D000A88AB843A882288A4006C00F0643012091
:1007E00000F0DEFD641CE4B2082CE9D33046F8BD0D
:1007F000F8B509271546FF06BA8A0E4610218A4326
:10080000BA82084300F014F8681EC0B200F010F875
:10081000142000F0C5FD002403E0FFF7CCFF3055A5
:10082000641CAC42F9DBB88A10210843B882F8BDD9
:10083000F8B509260024F60605462027B08A384375
:10084000B0822806B08A02D58021084301E08021C9
:100850008843B0826806050E012000F0A1FDB08A31
:10086000B843B082012000F09BFD641CE4B2082C68
:10087000E4D3F8BDF8B509270E46FF06B98A154638
:1008800010229143B98250210843FFF7D1FF681E1F
:10089000C0B2FFF7CDFF002403E0305DFFF7C8FFD3
:1008A000641CAC42F9DBB88A10210843B882F8BD59
:1008B00010B5202000F01EF8002802D003490020C7
:1008C0000870202000F004F810BD00000000002097
:1008D000014948607047000000000240002901689B
:1008E00002D00122114301E0014A1140016070472A
:1008F000FEFF0000034A0146126800200A4200D0B1
:100900000120704700000240002A026801D00A431B
:1009100000E08A430260704730B503680C4A0C6AF5
:1009200013408A684D6922430C692C4322438C6929
:100930002243CC6922434C6A22438C6A22431A43E5
:100940000260CA6842600A6882604968C16030BD5E
:100950000F80FFFFF8B5154E7069800724D5092177
:10096000C906088A134D82072F4611480124103703
:10097000002A0BDA818AA1438182FFF78BFE0F20C8
:1009800000F00EFD2C706C70BC700BE0098A8907BA
:1009900008D4818A21438182FFF78DFE00202870D0
:1009A0006870B87002207061F8BD0000000401405A
:1009B0000014004830000020F8B5174D6869400762
:1009C00028D50921C906088A154C4207264613482E
:1009D00002271036002A0CDA818AB9438182FFF798
:1009E00059FE0F2000F0DCFC012020706070B77011
:1009F0000EE0098A49070BD4818A39438182FFF7C7
:100A00005AFE0F2000F0CCFC002020706070B07007
:100A100004206861F8BD0000000401400014004893
:100A20003000002010B5837918490268002B26D0C9
:100A30000B6893430B604A6803689A434A600279E3
:100A4000521813680468234313608A6803689A4342
:100A50008A60CA6803689A43CA604279102A05D03E
:100A600051180A68006802430A6010BD8A6803686A
:100A70001A438A60CA6800680243CA6010BD0079E0
:100A8000401801689143016010BD0000000401405E
:100A9000F0B50022032501230C6893401C409C42C2
:100AA0002AD10C79012C01D0022C12D18768540074
:100AB0002E46A640B74387604E79A64084682643F9
:100AC000866084889C43848084888B7993401C430F
:100AD0008480066853002C469C40A64306600E792D
:100AE00007689E403E430660C668A643C660CC7950
:100AF0009C40C3681C43C460521C102ACBD3F0BD79
:100B00004B07DB0E9A40C90810B589000818016A26
:100B10000F249C40A1430162016A1143016210BD90
:100B200081617047FEE70000F0B5012185B04804FF
:100B300000F082F80121880500F07EF801210846C6
:100B400000F086F803260124684600960471C471FB
:100B5000224D467169462846FFF79AFF0121284633
:100B6000FFF7DEFF02212846FFF7DAFF0627002500
:100B7000684600970571C571467109206946C0062F
:100B8000FFF786FF0121002000F0E8F80221002095
:100B900000F0E4F8022002906846057310264673C0
:100BA000847302A8FFF73EFF042002906846057395
:100BB0004673847302A8FFF735FF05216846017468
:100BC0004474847404A800F00DF8684607744474F3
:100BD000847404A800F006F805B0F0BD00140048C5
:100BE0007047000030B5827801240178002A15D0C2
:100BF0008B080E4A9B009A1813688907C90EFF25B7
:100C00008D40AB434578AD072D0E8D401D431560DB
:100C10000078C006C00E8440054804E0C806C00E37
:100C2000844003488030046030BD000000E400E0F0
:100C300000E100E070470000044A0029516901D03A
:100C4000014300E081435161704700000010024001
:100C5000044A0029916901D0014300E08143916178
:100C60007047000000100240F8B5354E0446706829
:100C70000C21344D084004D06A00042803D0082811
:100C800003D0256014E0226012E0716870680123CF
:100C900089021B040F0F1840BF1C00281CD0F06AEB
:100CA0000107090F1046491CFFF724FA784320601A
:100CB0007068254B0006000F1A5C20680146D14081
:100CC000616072685205520F9A5CD140A160326B2C
:100CD000D20505D41D4A09E01D4847432760E7E7D0
:100CE0007268520401D44A0800E08A08E260326B5C
:100CF000184B520603D4174A1232226100E02361D6
:100D0000326BD20601D4656100E06061326B9207FC
:100D10000FD0316B8907890F01290CD0306B800708
:100D2000800F022809D0306BC043800700D1A56135
:100D3000F8BDA161F8BDA061F8BDA361F8BD0000D8
:100D40000010024000127A001C000020809FD50095
:100D500000093D0000800000704700008A0710B5C0
:100D6000120F0F2393408C080549A40061188C686A
:100D70009C438C608B68904003438B6010BD0000E7
:100D8000000001400CB50020009001901349112093
:100D900008601348416841604168416041683F22F2
:100DA00012049143416041680522D204114341601D
:100DB0000168012212061143016001688901FCD516
:100DC00041688908890041604168022211434160FD
:100DD00041680907890F0229FAD10CBD00200240A1
:100DE000001002407047000010B51448016801224D
:100DF000114301604168124A114041600168114A83
:100E00001140016001680122920491430160416830
:100E10003F22120491434160C16A09090901C1627C
:100E2000016BFF22543291430163416B4908490031
:100E3000416300218160FFF7A5FF10BD0010024053
:100E40000CB8FFF8FFFFF6FE10B5084C0121204654
:100E500000F029F8002807D00121204600F020F8F2
:100E600003480168491C016010BD000000200040DB
:100E70000800002010B5084C0121204600F013F8AE
:100E8000002807D00121204600F00AF803484168F5
:100E9000491C416010BD0000000400400800002013
:100EA000C943018270470246138A002092890B4091
:100EB0000A40002B02D0002A00D001207047000019
:100EC000F8B5124D074628780C46002801D00020BE
:100ED000F8BD0F4E00213046FFF700FD224639468F
:100EE0000C48FFF71DF90A480A491C388162046260
:100EF000E021416008494020086201202870014635
:100F00003046FFF7EBFC0120F8BD00000000002098
:100F10001C000240500000200038014038B500207D
:100F200069460870134D144C2946204600F0D0F84D
:100F300000280ED1114D2046294600F0C9F800289E
:100F400007D1FF2509352946204600F0C1F80028C1
:100F500008D02946204600F09DF8204600F030F9E0
:100F600069460870064801226946406800F056FA52
:100F700038BD0000050105000038014000030300F2
:100F800000000020F1B5012194B00846FFF754FE9F
:100F900001214804FFF750FE01218803FFF758FEA6
:100FA0000921CF0601223846FFF7AAFD01220A21B6
:100FB0003846FFF7A5FD032040020190022668464F
:100FC000067203214172002484720125C57201A9B1
:100FD0003846FFF75DFD14980E900C20274F1290B5
:100FE00011940F9410940EA91394384600F0A2F8AF
:100FF0004021384600F04CF801222149384600F0E3
:1010000083F81B216846017045708570FFF7EAFD83
:1010100001228021384600F04CF80121384600F0CA
:101020003EF828020B9406901020059040020C9088
:101030000D94802008901148079428300A9403905A
:1010400009941048104C049003A92046FFF764FC53
:101050002020FFF73DFC012202212046FFF754FC2F
:101060000A216846017085704670FFF7BBFD642257
:101070000121064800F09CF915B0F0BD0038014090
:1010800005010500500000201C0002400400002063
:1010900001627047090C01228A40026270470029F0
:1010A000016802D00122114301E0490849000160B2
:1010B0007047002A826801D00A4300E08A438260B8
:1010C00070470246D26900200A4200D001207047D2
:1010D00030B50A04130E01252A4600248A40012B4C
:1010E0000ED0022B0ED08368090C1340C0698D40CE
:1010F0002840002B02D0002800D00124204630BD1B
:101100000368F1E74368EFE710B50B041C0E0123F9
:101110008B40022C02D0032C02D002E0001D00E024
:1011200008300168002A01D0194300E099430160AA
:1011300010BD000030B50446006887B00D46400879
:10114000400020606068032109038843A9680143C7
:10115000616020681749EA680840696811432A6994
:10116000024311432160A068032109028843696991
:101170000143A1606846FFF777FD0F48844201D123
:10118000069800E0029821680904296800D540000B
:10119000FEF7B0FF2A6852088A4200D8401C216836
:1011A000090404D50107054A490F10400843A081EE
:1011B00007B030BDF3E9FFFF00380140F0FF000049
:1011C000808CC005C00D7047C905C90D01857047E9
:1011D0000FB410B503A9044B044A029800F02EF88E
:1011E00010BC08BC04B01847791400084C0000205B
:1011F0002021020C01D010211046020A01D0104615
:101200000839020901D01046091F820801D0104692
:10121000891E420801D0881E7047081A704702E0F4
:1012200008C8121F08C1002AFAD170477047002071
:1012300001E001C1121F002AFBD17047FFB58DB03C
:101240000446002506E025280AD0109A0F999047F9
:10125000641C6D1C20780028F5D1284611B0F0BD23
:1012600000270121484A009700E00743641C2378C7
:101270000846203B98401042F7D120782E2817D1FD
:10128000042007436078641C2A280CD10E98641C43
:1012900002C800910E900BE000990A2251433039A8
:1012A0004018641C00902078014630390929F3D990
:1012B00020780028D1D0642808D0692806D0752865
:1012C0001ED0109A0F9990476D1C5BE00A200E9972
:1012D000019001C90E91002802DA40422D2102E05E
:1012E000390504D52B216A461172012103E0F90763
:1012F00004D02021F7E70BAE0B910DE00021FAE7B7
:101300000A200E99019001C90E91F7E70199FEF7A5
:10131000F1FE3031761E31700028F7D103A8801B12
:1013200020300190780701D5009801E0012000905D
:101330000199884201DD401A00E00020002700905A
:1013400006E002A8109AC05D0F9990476D1C7F1CA3
:101350000B988742F5DB04E0109A30200F999047F4
:101360006D1C0099481E00900029F5DC05E03078DE
:10137000109A761C0F9990476D1C0199481E019098
:101380000029F4DC641C65E709280100034A02E037
:101390001146491EFDD1401EFAD27047FF2F0000B2
:1013A00002E00121491EFDD2401EFAD27047000022
:1013B000F0B5154E00231C245C43345D002C04D092
:1013C0005B1C022BF7D30020F0BD002B1AD01C248D
:1013D0005C43A419A468641C80252D1B51438D42D5
:1013E000F1D31C2501275D437755AD196C60641E50
:1013F0000919A96000216961EA602A61A961036095
:101400003846F0BD0024E7E7D0010020814202D336
:10141000511A08187047401A70470000F0B5154679
:10142000022809D81C225043124A135C002B03D017
:1014300083181869A84201D20020F0BD0D4C5A68EB
:101440000020803CA618DA680AE09C69641C9C6154
:10145000944201D300249C610C5C9F69401CBC55E4
:10146000A842F2D399695869FFF7D0FF18610120AB
:10147000F0BD0000D001002070B5074D04464021AA
:101480002846FFF71EFE0028F9D0E1B22846FFF7F4
:101490009BFE204670BD0000003801401FB53C484F
:1014A000FFF774FFFFF740FB4B20C001FFF76AFD19
:1014B000FFF790F800246846447001268670067095
:1014C000C4704471047182218171324903910B46C9
:1014D0002246029401990098FFF71AF900280DD0CE
:1014E0002DA0FFF775FE6420FFF750FFBFF34F8F6D
:1014F00031493048C860BFF34F8FFEE72FA0FFF798
:1015000067FEFFF7F7F8FFF728F80028FBD1FEF792
:10151000EFFF304DFFF721F80028FBD1A878012814
:101520000CD0022813D028780128F7D1FFF715F83E
:101530000028F3D16878012812D016E0AC70FFF7CC
:10154000A9F80F20FFF72CFF2E706E70EEE7AC703D
:10155000FFF7B1F80F20FFF723FF2C706C70DDE769
:10156000FF206C70F530FFF711FFFEF7DEFF6860BB
:1015700069464A7931469140C9B20091039B029A6B
:10158000FEF7F2FFE960A860FEF796FFC6E70000ED
:10159000B80B000000000440414453313235366935
:1015A0006E6974206661696C202052657365740DE4
:1015B0000A0000000400FA0500ED00E04144533148
:1015C000323536696E697420737563657373667539
:1015D0006C0D0A0030000020F81500080000002003
:1015E000500000001E12000848160008500000209D
:1015F000B80500002E1200080000000000000000E6
:1016000000000000000000000000000000000000DA
:1016100000000000000000000102030401020304B6
:10162000060708090000000000000000000000009C
:1016300000000000000000005AA5000000000000AB
:081640000D0A0000000000008B
:04000005080000C12E
:00000001FF
